S015000054464C6974655F53414D4435312E73726563FD
S214000000C8AC0220E5020000E1020000E1020000A8
S214000010E1020000E1020000E10200000000000032
S214000020000000000000000000000000E1020000E8
S214000030E102000000000000E1020000E102000012
S214000040E1020000E1020000E1020000E10200001F
S214000050E1020000E1020000E1020000E10200000F
S214000060E1020000E1020000E10200008509000054
S214000070E1020000E1020000E1020000E1020000EF
S214000080E1020000E1020000E1020000E1020000DF
S214000090E1020000E1020000E1020000E1020000CF
S2140000A0E1020000E1020000E1020000E1020000BF
S2140000B0E1020000E1020000E1020000E1020000AF
S2140000C0E1020000E1020000E1020000E10200009F
S2140000D0E1020000E1020000E1020000E10200008F
S2140000E0E1020000E1020000000000000000000045
S2140000F000000000D5080000E1020000E102000058
S214000100E1020000E1020000E1020000E10200005E
S214000110E1020000E1020000E1020000E10200004E
S214000120E1020000E1020000E1020000E10200003E
S214000130E1020000E1020000E1020000E10200002E
S214000140E1020000E1020000E1020000E10200001E
S214000150E1020000E1020000E1020000E10200000E
S214000160E1020000E1020000E1020000E1020000FE
S214000170E1020000E10200000000000000000000B4
S214000180E1020000E1020000E1020000E1020000DE
S21400019000000000E1020000E1020000E1020000B1
S2140001A0E1020000E1020000E1020000E1020000BE
S2140001B0E1020000E1020000E1020000E1020000AE
S2140001C0E1020000E1020000E1020000E10200009E
S2140001D0E1020000E1020000E1020000E10200008E
S2140001E0E1020000E1020000E1020000E10200007E
S2140001F0E1020000E1020000E1020000E10200006E
S214000200E1020000E1020000E1020000E10200005D
S214000210E1020000E1020000E1020000E10200004D
S214000220E1020000E1020000E1020000E10200003D
S214000230E1020000E1020000E1020000E10200002D
S214000240E1020000E1020000E1020000E10200001D
S214000250E1020000E1020000E1020000E10200000D
S214000260E1020000F1EE103A43F08073E1EE103A3E
S214000270704700BF10B5054C237833B9044B13B153
S2140002800448AFF300800123237010BDD00900207E
S214000290000000003C4708000C4B43B10C480D49D9
S2140002A010B5AFF300800C48036823B910BD0A48A8
S2140002B0036833B97047094B002BF7D0BDE81040F0
S2140002C01847064B002BF5D0184700BF000000006B
S2140002D03C470800D4090020044508000000000040
S2140002E0FEE7000008B51C4B1C4A9A4210D01C4B77
S2140002F0194A9A420CD2013B9B1A23F0030304339B
S2140003001344164951F8040B42F8040B9A42F9D1EB
S214000310144B154A9A420AD2013B9B1A23F0030358
S21400032004331344002142F8041B9342FBD10F4BC5
S2140003300F4A22F07F029A60D3F8882042F47002B7
S214000340C3F88820BFF34F8FBFF36F8F094B9847D2
S214000350094B9847FEE700BF000000203C47080016
S214000360D0090020C8AC0120D009002000ED00E034
S21400037000000000C93701002D0C000070B50D46C6
S2140003801646044660B1081C18BF012034220549F1
S214000390054B98472368324629462046984770BD45
S2140003A00020F3E79CAA01006106000070B50D4628
S2140003B01646044660B1081C18BF01203D220549B8
S2140003C0054B98476368324629462046984770BDD5
S2140003D00020F3E79CAA010061060000F8B58446F9
S2140003E007682FB18D683C460026C2F1010E0BE06F
S2140003F00E4B9847F8BD7344A0680344AB420AD23C
S2140004002368264653B11C4663689342F3D8A06817
S21400041003449B1AF2E7A74204D034462046044B16
S2140004209847F8BD6046014B9847F8BD890600001E
S214000430B50600002DE9F0474469076901370761F2
S214000440037E13F0010F13D1037E13F0020F0FD1BA
S21400045054B36368FB1AA268934207D3064600F1BA
S2140004601408DFF84890DFF848A012E0BDE8F087EF
S214000470037E43F002030376BDE8F0877569E36800
S2140004802046984785B12C466B68FB1AAA689342AB
S2140004900AD34046C847237C012BEFD167603A4613
S2140004A021464046D047E9E7BDE8F087BD06000094
S2140004B0DD03000038B50D46044678B1081C18BFA9
S2140004C001203B220649074B984729462046064B03
S2140004D0984700202061054B236038BD0020F0E7D8
S2140004E0B0AA0100610600001909000035040000EA
S2140004F02DE9F8430F469046044628B331B3101C46
S21400050018BF0120F1221249124B98470834124DA9
S2140005102046A8470028FBD0013F0026DFF8409081
S2140005200D4D17F8011F2046C8472046A84700284B
S214000530FBD001364645F4D3084D2046A847002890
S214000540FBD03046BDE8F8830020DBE70020D9E783
S214000550C8AA010061060000DF0A0000E90A0000E0
S214000560D10A00002DE9F8430F4690460446E0B154
S214000570E9B1101C18BF01204FF486720D490E4BCE
S2140005809847013F002608340C4DDFF8349020468B
S214000590A8470028FBD02046C84707F8010F0136B9
S2140005A04645F4D33046BDE8F8830020E4E7002053
S2140005B0E2E700BFC8AA010061060000F30A0000D7
S2140005C0D70A000038B50D46044698B1081C18BF77
S2140005D0012034220849094B9847294604F10800AF
S2140005E0074B9847034618B9064A6260064A2260D7
S2140005F0184638BD0020ECE7C8AA010061060000D6
S214000600910A000065050000F104000010B50446DC
S21400061053220649003018BF0120054B984704F1C5
S2140006200800044B9847002010BD00BFC8AA010070
S21400063061060000BD0A000038B50C46054648B104
S214000640081C18BF012069220349044B98472560FF
S214000650002038BD0020F6E7C8AA010061060000A9
S21400066000B900BE704703684BB18B4209D01B68C7
S2140006701BB19942FBD10120704700207047002033
S214000680704701207047000038B504460D46064BFB
S214000690984780F0010039220449C0B2044B9847BD
S2140006A023682B60256038BD67060000E4AA0100B9
S2140006B06106000003680B600160704703680BB1B9
S2140006C01A6802601846704708B5034B1868034B53
S2140006D09847002008BD00BFF40900207D030000F5
S2140006E0002070470346064A126822B1044A106882
S2140006F00344136070470349014A1160F6E700BFE0
S214000700EC090020C8AC02204FF0FF3070474FF4D1
S21400071000534B6000207047012070470020704750
S21400072008B501460148024B9847FEE704AB0100B6
S2140007309142010070474FF0FF30704710B5094AEC
S21400074013889BB21380084B9847084B9847084B72
S21400075098470820074CA047074B984740F6F77085
S214000760A04710BD00400041C9070000E90700008F
S214000770BD0700007D070000ED07000010F0010F28
S21400078008D00B4A0B4B1A62194643F6FD724B68AB
S2140007901342FCD110F0080F08D0074A054BDA6266
S2140007A0194643F6FD724B681342FCD1704700BFF2
S2140007B006090100001C0040050901000122014B4A
S2140007C05A71704700080040064B42F28E029A8229
S2140007D000229A75DA75DA6902F47C52DA6101222F
S2140007E01A7470470014004070470000364A136AB7
S2140007F023F00F0343F004031362114643F6FD7221
S2140008004B681342FCD1304A536813F0040FFBD1F7
S2140008102E4B00221A772E4A9A621A4692F82C30ED
S21400082013F0100FFAD10022284B83F820201A4626
S21400083092F82C3013F0040FFAD10222234B1A77C9
S2140008401A4692F82C3013F0020FFAD11F4B5A6A50
S2140008505A621A4692F82C3013F0080FFAD180220A
S2140008601A4B83F820201A4692F82C3013F0040F07
S214000870FAD1164B93F8203013F0010F1DD0134A0F
S214000880136903F41063B3F5106FF9D10E4A536879
S214000890002BFCD10C4A136A23F00F0343F0060327
S2140008A01362114643F6FD724B681342FCD1064AAA
S2140008B0536813F0040FFBD17047044A136913F40E
S2140008C0807FFBD0E2E700BF001C00400010004025
S2140008D00000010400B583B00D4B9B78DBB201939A
S2140008E0019B13F0020F06D00A4B1B681BB1084A87
S2140008F05068984709E0019B13F0010F05D0054B9F
S2140009005B6813B1024A5068984703B05DF804FB71
S2140009100000024168AC012038B50C46054630227E
S2140009201449003018BF0120134B9847EC60012390
S214000930238048F2030223691342FCD1EB681A694C
S21400094012F0010FFBD148F280021A8048F2030130
S2140009501A690A42FCD1EA6820231362136913F06D
S214000960600FFBD1EB684FF480725A81034B1D6019
S214000970002038BD20AB010061060000F009002011
S2140009800020704710B5084B1C68E3689B8913F479
S214000990807F07D023680BB120469847E3684FF462
S2140009A080729A8110BD00BFF009002070B489B033
S2140009B006466C460D4D0FCD0FC495E80F0084E833
S2140009C00F00009BB3420DD0314601AB012053F817
S2140009D0042B8A4207D001300828F8D1002009B03D
S2140009E070BC70470020C0B2F9E700BF38AB01000A
S2140009F010B50446214B9847042805D040F24722FC
S214000A001F4900201F4B9847E36913F0010F19D1C7
S214000A10E36913F0030FFBD1236813F0020F0BD02A
S214000A20236823F002032360E36913F0030FFBD16E
S214000A30E36913F0020FFBD105232360E36913F08B
S214000A40030FFBD1E36913F0010FFBD10E4B2360BC
S214000A50E36913F0030FFBD14FF440336360E3699F
S214000A6013F01F0FFBD1094BA3604FF22B63A3813A
S214000A700020A07384F8300010BD00BFAD09000050
S214000A8070AB010061060000040010400200700018
S214000A9038B50C460546BB220549003018BF012074
S214000AA0044B98472C602046034B984738BD00BF40
S214000AB070AB010061060000F109000002681368CF
S214000AC043F002031360D36913F0030FFBD17047A2
S214000AD00368996270470368986AC0B270470368F3
S214000AE0187E00F0010070470368187EC0F34000CF
S214000AF070470368187EC0F38000704708B5014B46
S214000B00984708BD9D0B0000104B93F8C82002F0D4
S214000B10FE0242F0010283F8C82093F8B42002F0E7
S214000B20F00242F0030283F8B42093F8C92002F0E2
S214000B30FE0242F0010283F8C92093F8B42002F0C6
S214000B400F0242F0300283F8B42070470080004164
S214000B50064B4022C3F808214322C3F88C20044ADF
S214000B60136A43F001031362704700BF001C004085
S214000B700008004008B5054B984700224FF0864114
S214000B800348044B9847044B984708BD510B000098
S214000B9094AC0120C5050000090B000008B5124BF7
S214000BA09847124B0222C3F89820C3F8882002F117
S214000BB08042C3F8A8204FF04042C3F8A82093F81C
S214000BC0C12002F0FE0283F8C120094A536943F4AB
S214000BD000735361074B9847024607490748084B7E
S214000BE09847084B984708BD3D0700000080004125
S214000BF000080040810900000024004078AC012075
S214000C00B5040000750B000010B5044C04492046DE
S214000C10044B98472046044B984710BD94AC0120DF
S214000C20F4090020390600000D0600002DE9F04109
S214000C302DED028BADF5826D2B4B98472B4B9847CD
S214000C402B4B98472B4C2C4E9FED2C8A4FF00008D0
S214000C500DF107051CE08DED027A00238DF80C30AF
S214000C608DF80D308DF80E3020238DF80F300122D0
S214000C7029462068224FB847042202A92068B847B0
S214000C80042203A92068B84702221E4BC3F89C2002
S214000C904FF4806204A92068B0470DF10F031A4A8A
S214000CA00DF20F4113F8010F07EE900AF8EE677A7F
S214000CB087EE887AA2EC017A8B42F3D1134B9847E1
S214000CC000238DF8073007EE108AF0EC017AF4EE78
S214000CD0C77AF1EE10FAC4BF8DF80730B0EE677A27
S214000CE001332B2BF1D1B6E7FD0A0000090C0000FA
S214000CF0150E0000F4090020AD03000000007F433D
S214000D007D03000000800041609B012085120000EA
S214000D10704708B503681B69984708BD08B503689F
S214000D205B69984708BD202919D030B4D0F8A44094
S214000D30BCB10D4683698B420CD0024600230133BA
S214000D40A34209D020329169A942F8D100EB4310A2
S214000D50043002E0043000E0002030BC7047002081
S214000D6070470020F9E7704738B5D0F8C450052D15
S214000D7012D8BDB190F8A8308B420FD000F1A9026E
S214000D80002301339D420BD012F8014B8C42F8D160
S214000D902C3350F8230038BD034B98470023F7E761
S214000DA0002038BD002038BD693201002DE9F84327
S214000DB0D0F8A460CEB189468046044600250C4F84
S214000DC003E001352034B5420CD0A369202BF8D1BE
S214000DD04946E069B8470028F3D108EB45100430CF
S214000DE0BDE8F8830020BDE8F8830020BDE8F8835E
S214000DF02948010010B50446014B9847204610BD0F
S214000E007591000010B50446014B9847204610BD6A
S214000E1075910000F0B58DB0A24B1B78BFF35B8FC9
S214000E2013F0010F00F099809E489F4B43609F4B44
S214000E301968CA188260CB58D31A1988042940F357
S214000E409B809B88002B00F09F80D258032A40F09E
S214000E509480944B1B7BBFF35B8F13F0010F00F065
S214000E60958004A8924B98478E4803691B69032116
S214000E7010309847002800F0A4808A4BD3F8D8009A
S214000E8018B103228B498C4B984704A88B4B984784
S214000E90844803691B69092110309847002800F030
S214000EA0C080804BD3F8D80018B109228149824B04
S214000EB0984704A8824B98477A4803691B69112112
S214000EC010309847002800F0DC80764BD3F8D80026
S214000ED018B111227749784B984704A8794B984760
S214000EE0704803691B69162110309847002800F0E7
S214000EF02B816C4BD3F8D80018B116226D496E4B77
S214000F00984704A8704B9847664803691B691921DF
S214000F1010309847002800F04781624BD3F8D8007D
S214000F2018B119226349644B98475E4B93F8DC303E
S214000F30BFF35B8F13F0010F00F06681634C04F67D
S214000F409820C4F8180B624B98470021D4F8180B69
S214000F50604B9847C4F81C0B14E052485E4B984709
S214000F6000283FF461AF4F485C4B98475C4A5D49A8
S214000F704D485D4B984757E7002203235B494A4894
S214000F804D4CA0470DB0F0BD0022F6E75848524B36
S214000F90984700283FF465AF424C564B2361002328
S214000FA0C4F8B430C4F8D430C4F8D83004F10C0017
S214000FB04A4B98474A4A504904F110004A4B984712
S214000FC04FE7384BD3F8B460042E0AD9D3F8D800CC
S214000FD000283FF45AAF052303224849364CA04761
S214000FE053E7304F07EB461E0EF1140404AD0FCD49
S214000FF00FC495E80F0084E80F000322CEF82820DF
S2140010000136C7F8B460D7F8D430F91881F8B8209C
S21400101007EB83023A49C2F8C0100133C7F8D43050
S21400102033E7204BD3F8B460042E0AD9D3F8D8009F
S21400103000283FF43EAF0523092230491E4CA04746
S21400104037E7184F07EB461E0EF1140404AD0FCD1C
S2140010500FC495E80F0084E80F000922CEF8282078
S2140010600136C7F8B460D7F8D430F91881F8B8203C
S21400107007EB83022349C2F8C0100133C7F8D43007
S21400108017E7084BD3F8B460042E3DD9D3F8D80040
S21400109000283FF422AF052311221849064CA0472A
S2140010A01BE700BFF80900200400002090AB0100F9
S2140010B02D380000C4010800D512000011490000B8
S2140010C0E1570000515A0000E95F000040900120FF
S2140010D005890000598B00007D910000B591000045
S2140010E000000020110D0000699100007C0108003E
S2140010F0040A002060010800670D000014020800C2
S21400110075140000B5150000504F07EB461E0EF193
S214001110140404AD0FCD0FC495E80F0084E80F004B
S2140011201122CEF828200136C7F8B460D7F8D4309C
S214001130F91881F8B82007EB83024549C2F8C010B9
S2140011400133C7F8D430C8E6404BD3F8B460042E59
S2140011500AD9D3F8D80000283FF4D3AE05231622C8
S2140011603C493D4CA047CCE6384F07EB461E0EF1F7
S214001170140404AD0FCD0FC495E80F0084E80F00EB
S2140011801622CEF828200136C7F8B460D7F8D43037
S214001190F91881F8B82007EB83023049C2F8C0106E
S2140011A00133C7F8D430ACE6284BD3F8B460042E2D
S2140011B00AD9D3F8D80000283FF4B7AE0523192281
S2140011C02449254CA047B0E6204F07EB461E0EF1FB
S2140011D0140404AD0FCD0FC495E80F0084E80F008B
S2140011E01922CEF828200136C7F8B460D7F8D430D4
S2140011F0F91881F8B82007EB83021949C2F8C01025
S2140012000133C7F8D43090E61648174B98470028A5
S2140012103FF494AE0D4C154D002302936368019382
S2140012204FF4C833009304F1E00304F11002A16800
S21400123028460F4EB04704F1DC000E4B98470E4A86
S2140012400E4928460E4B984778E600BFF80900205E
S214001250E916000014020800D51200002918000044
S214001260F1180000D40A00207D910000D89A0120D1
S214001270AD880000B591000000000020EB8700005C
S2140012806991000008B50D4BD3F81C2B03F53261AD
S2140012905160D3F8180B0A4B984738B90021074B12
S2140012A0D3F8180B074B9847406808BD002206493C
S2140012B0064B5868064B9847F0E700BF4090012061
S2140012C04D8A0000A58B000058020800F80900208F
S2140012D0D51200000EB400B582B003AA52F8041B63
S2140012E0019203689B68984702B05DF804EB03B070
S2140012F070470CB400B583B004AA52F8041B0192E0
S21400130003689B68984703B05DF804EB02B070472B
S214001310013804280ED8DFE800F0030507090B00A3
S2140013200120704702207047032070470420704752
S214001330052070470020704720B101280CBF02200E
S214001340002070470120704708B518B121B12AB1B6
S21400135033B108BD034B9847024B9847014B98475B
S214001360004B98476932010038B5C1B10D460C688C
S214001370B4EB900F1AD814B3043A002351F8040FB4
S21400138042F8040F01339C4217D028688342F5D3F5
S2140013900C4B0D4A40F201110C480D4CA047049A24
S2140013A00C4918460C4B9847012038BD049A0B4947
S2140013B01846094B9847012038BD002038BD00204C
S2140013C038BD00BFCC03080088020800D803080018
S2140013D07932010058030800D5120000880308007F
S2140013E008B50B2837D8DFE800F00A06161A2226BA
S2140013F02A122E1E0E320A230B70002008BD01236F
S2140014000B70002008BD0B230B70002008BD0723BF
S2140014100B70002008BD02230B70002008BD0323BC
S2140014200B70002008BD09230B70002008BD0423A4
S2140014300B70002008BD05230B70002008BD062396
S2140014400B70002008BD08230B70002008BD0C237D
S2140014500B70002008BD13460246002008700349A2
S2140014601846034B9847012008BD00BF1804080023
S214001470D51200002DE9F04182B004460F4615460D
S2140014809846454EB0472B681B680422182128460C
S214001490984700285AD006462368E31A1A880A2A6C
S2140014A04EDD598900294BD0615C012948D10C2AB0
S2140014B046DD9B89E718002B42D0E5587C193FD0C3
S2140014C07B59E31A1A88042A4DDD9B88002B4CD0E2
S2140014D0E056C0B2314B984730707B59E31A1A88F1
S2140014E0062A44DDDB88002B43D0E35873607B5923
S2140014F0E31A1A88082A3EDD1B89002B3DD0E358E4
S214001500B3607B59E31A1A880A2A38DD5B89002BF8
S21400151037D0E056C0B2224B984730737B59E31A57
S2140015201A880C2A2FDD9B897BB3E35833617B59DD
S214001530E31A1A880E2A2ADDDB8953B3E35873614F
S214001540C8F80060002002B0BDE8F081154B01939A
S2140015504FF47B730093144B144A39463846144CA8
S214001560A0470120EFE70020B3E70020B1E7002303
S214001570BCE70023BAE70023C2E70023C0E7002049
S214001580C8E70020C6E70123D0E70123CEE7012302
S214001590D5E70123D3E700BF491300003913000045
S2140015A0111300008C0408003C04080074040800B2
S2140015B0F31200002DE9F04782B0044689469046B3
S2140015C09A46414DA847D8F800301B6801220421EE
S2140015D040469847002854D005462368E31A1A88E0
S2140015E00A2A69DD5989002966D0615C082963D119
S2140015F00C2A61DD9B89E718002B5DD0E658BC19E4
S2140016005AD0BB59E31A1A88042A47DD9B88002B58
S21400161046D0E056C0B22D4B98472870BB59E31A07
S2140016201A88082A3EDD1B89002B3DD0E35C003378
S21400163018BF0123AB70BB59E31A1A880A2A35DD96
S2140016405B89002B34D0E35C003318BF0123EB70BA
S214001650BB59E31A1A88062A2CDDDB8853B3E356F7
S21400166043B3012B2CD01A4948461A4B9847D8F852
S21400167000305B68294640469847012002B0BDE826
S214001680F087154B019340F252430093134B144AD4
S21400169049464846134CA0470120EFE70020B9E72B
S2140016A00020B7E70023C2E70023C0E70023CBE70C
S2140016B00023C9E700236B70CAF800500020DDE75E
S2140016C001236B70F8E700BF4913000011130000F8
S2140016D0A0040800D51200008C0408003C04080092
S2140016E074040800F31200002DE9F04182B00446AD
S2140016F00F4615469846454EB0472B681B68042291
S21400170028212846984700285BD006462368E31A17
S2140017101A880A2A4FDD598900294CD0615C0529B0
S21400172049D10C2A47DD9B89E718002B43D0E558A2
S2140017307C1940D07B59E31A1A88042A4EDD9B8810
S214001740002B4DD0E056C0B2314B984730707B59D5
S214001750E31A1A88062A45DDDB88002B44D0E358B6
S21400176073607B59E31A1A88082A3FDD1B89002B11
S2140017703ED0E358B3607B59E31A1A880A2A39DD4B
S2140017805B89002B38D0E358F3607B59E31A1A883C
S2140017900C2A33DD9B89002B32D0E35833617B590A
S2140017A0E31A1A880E2A2DDDDB896BB3E056C0B229
S2140017B0184B98473075C8F80060002002B0BDE8A6
S2140017C0F081154B019340F249530093134B144A92
S2140017D039463846134CA0470120EFE70020B2E711
S2140017E00020B0E70023BBE70023B9E70023C1E7EA
S2140017F00023BFE70023C7E70023C5E70023CDE7A4
S2140018000023CBE70020D2E70020D0E749130000F2
S21400181039130000111300008C0408003C04080073
S21400182074040800F31200002DE9F04782B0054664
S214001830884614461F46274EB04723681B68042276
S21400184024212046984778B306462B68EB1A1A8858
S2140018500A2A26DD598921B3695C112921D10C2A6F
S2140018601FDD9B89E918E3B1EB58CA1819D0CB588D
S214001870D31A1988042914DD9B8802EB030A83B166
S21400188052F803901AEB09010BD0134B0093434612
S21400189002462020114DA847054690B95AF809304F
S2140018A033623E60002012E00D4B019340F2A353DA
S2140018B000930C4B0C4A414640460C4CA047012076
S2140018C005E023685B68314620469847284602B004
S2140018D0BDE8F08749130000CC0408006913000037
S2140018E08C0408003C04080074040800F31200008E
S2140018F02DE9F04182B00446884615461E461E4F26
S214001900B8472B681B68042211462846984708B338
S21400191001462368E31A1A880A2A16DD5889A0B1F8
S214001920205C092811D10C2A0FDD9B89E01863B1D1
S214001930E358C21809D0C358D31A1888042816DDED
S2140019409B88B3B11A4413680B603160002002B064
S214001950BDE8F081094B019340F2FD530093084B1C
S214001960084A41464046084CA0470120EFE70023BE
S214001970EAE70023E8E700BF491300008C040800EC
S2140019803C04080074040800F31200002DE9F0413E
S2140019900E4617461D4600232B600368C31A1A8896
S2140019A0042A41DD998800293ED0445C082A1BDDC4
S2140019B01989E1B150F801807E2C1BDC202C3AD12D
S2140019C0062A2ADDDB88C1183BB3C358C91824D0C1
S2140019D033685B6842460431304698472860B0FA60
S2140019E080F04009BDE8F0814FF00108E4E74FF0D1
S2140019F00108E1E7224616493846164B984701206B
S214001A00BDE8F0814346144A52F82420134938466C
S214001A10104CA0470120BDE8F081114938460D4B17
S214001A2098470120BDE8F081082A01DD0024BFE7C1
S214001A304FF00108002433681B68424621463046B2
S214001A40984728600028DDD00020BDE8F08100BF60
S214001A5048070800D5120000480508009C07080043
S214001A60D407080090F82D3093B130B40378092BD2
S214001A700CBF056900254468836933B1234603F823
S214001A80015B1A1B81699142F9D8002030BC70476F
S214001A900020704770B52DED028BB0EE408AF0EE58
S214001AA0608A06460C460022002351EC100B204D9F
S214001AB0A84728B1002333602360BDEC028B70BDBD
S214001AC02046B0EE480AF0EE680A1A4B9847002205
S214001AD0194B51EC100B194DA84741EC100B184B45
S214001AE0984751EC100B174B98474FF000420023D5
S214001AF082428B4112DB002908BFB0F1004F0FD0A5
S214001B00B0F1004F71F1000310DA236813F11F0FD4
S214001B1002DA0023236000203060CEE70A4B9847A5
S214001B202368013323604FF08040EEE7064B98476A
S214001B30551E0100D91101000000E0418519010081
S214001B4041120100192001006932010070B52DED27
S214001B50028BB0EE408AF0EE608A06460C46002203
S214001B600B4B51EC100B0B4DA84768B12146304685
S214001B70B0EE480AF0EE680A074B98472368002B39
S214001B8004DBBDEC028B70BD044B9847034B9847B3
S214001B900000F03FA51E0100951A00006932010002
S214001BA02DE9D04F2DED028B5BEC10ABB0EE418AE9
S214001BB0F0EE618A0E461746C0F11F00012303FAB5
S214001BC000F0154B984780468946144C53EC182B6A
S214001BD050465946A04702460B4640464946A0474F
S214001BE0804689460AA3D3E900230D4CA04748B98E
S214001BF049EC108B394630460A4B9847BDEC028BB1
S214001C00BDE8D08F9FED020BF4E700BFAFF3008076
S214001C100000C0FFFFFFDF41B91801008519010071
S214001C20A51E01004D1B00002DE9F843814688469D
S214001C301546012404FA00F001381B4B9847064667
S214001C400F46A5EB0900A0F12001C0F1200304FA1D
S214001C5001F124FA03F3154D04FA00F01943A847DE
S214001C6002460B4630463946114EB04706460F46EA
S214001C70A8F12001C8F1200304FA01F124FA03F3C5
S214001C8004FA08F01943A84702460B463046394680
S214001C90084CA04741EC100B074B984751EC100B33
S214001CA0064B9847BDE8F883B918010029190100CA
S214001CB085190100D91B0100B9100100B91E0100E9
S214001CC0F0B52DED028B83B007461E4691ED038AD4
S214001CD0D2ED037A28EE278A18EE100A114B9847A1
S214001CE0B5EEC08AF1EE10FA12DB04460D46F06837
S214001CF00C4B984702460B46204629460A4CA047FE
S214001D000A9BC3E90001002003B0BDEC028BF0BDC6
S214001D10064B00937C69A723054A06493846A04728
S214001D200120F1E7DD180100D91B0100D00D0800E5
S214001D30A40D0800740408002DE9F04782B081461F
S214001D400E4690469A46244FC868B84704460D4645
S214001D50D8F80C00B84702460B46204629461F4CCA
S214001D60A047BAF1000F1CD004460D46DAF80C0066
S214001D70B84702460B4620462946194CA04704465B
S214001D8021F000450A9BD868B84702460B46204615
S214001D902946144CA0470EA3D3E90023124CA047B3
S214001DA050B10B9B00930A9B4246314648460F4C67
S214001DB0A04702B0BDE8F0870D4B0093D9F8144059
S214001DC09A230C4A0C494846A0470120F1E700BF79
S214001DD07B14AE47E17A943FDD18010085190100B7
S214001DE01D160100D91B01007D1E0100C11C00004C
S214001DF0EC0D0800A40D0800740408002DE9F0415D
S214001E002DED028B82B01C461378032B21D0092BB4
S214001E1022D0072B14D147F6FF753C4E92ED038A6D
S214001E20176901291CD003292DD002294CD0266021
S214001E300A9B1D60002002B0BDEC028BBDE8F0815D
S214001E40334B00934469DA23324A3349A0470120D2
S214001E50F1E7FF250026E1E77F256FF07F06DDE747
S214001E609FED2E0A80EE080A2D4B9847BDEEC00A5D
S214001E7010EE103A3B449E42B8BF1E4626600A9BB0
S214001E801D600020D7E79FED250A80EE080ADFF8E0
S214001E909080C047BDEEC00A10EE103A3B449E420A
S214001EA0B8BF1E462660B1EE080A80EE080AC04794
S214001EB0BDEEC00A10EE103A3B449D42A8BF1D4638
S214001EC00A9B1D600020B6E7BFEE000A80EE080AF7
S214001ED0DFF84C80C047BDEEC00A10EE103A3B4417
S214001EE09E42B8BF1E462660B7EE000A80EE080A7D
S214001EF0C047BDEEC00A10EE103A3B449D42A8BF54
S214001F001D460A9B1D60002095E700BF0080FFFF6E
S214001F10100E0800A40D080074040800000000005D
S214001F20F11201002DE9F04F93B008900C9391F850
S214001F303030012B40F085808946904692F830304C
S214001F40012B40F08E80536B002B00F099801A68AE
S214001F500B92002A00F09E800B9AD2F800B0BBF1DC
S214001F60010F18DD0A78092A02D0072A40F09C8063
S214001F7098F80020092A40F0A180249A934540F062
S214001F80AC80D8F808209B6802EB83025368249A3A
S214001F909A4240F0B180D9ED037ACDED097A1C9BC8
S214001FA0D3ED037ACDED0A7A0B9B1E1D249B002BE6
S214001FB03BDD229BA3F1040A239F043F00256B4CC4
S214001FC00597CDF83480DDF89080BBF1010FCEBFC9
S214001FD030680B9B5868A047CDE906010998A047D2
S214001FE002460B46DDE90601614FB847CDE906011A
S214001FF00A98A04702460B46DDE906015D4FB84742
S21400200041EC100B10A90FA85B4B98470F9B4AF8A2
S214002010043F109B059A42F8043F1346059201358B
S2140020200436A845D1D1DDF8348099F80030032B6A
S21400203070D0092B00F08F80072B00F08C800020DA
S2140020400CE00124039402934C4B01934C4B0093F9
S214002050456936234B4A4C49A847204613B0BDE88D
S214002060F08F012403940293444B0193474B009353
S214002070089845693823434A4349A8472046EDE770
S214002080434B00930898446942233E4A4149A0477F
S2140020900120E3E7404B0093089844694323394AFC
S2140020A03C49A0470120D9E73C4B00930898446977
S2140020B04823344A3749A0470120CFE70923039332
S2140020C00292374B0193374B009308984469492393
S2140020D02C4A2D49A0470120C0E70392CDF808B04E
S2140020E0314B0193314B0093089844694A23254AA3
S2140020F02549A0470120B1E7039302922C4B019398
S214002100294B0093089844694D231E4A1E49A04750
S2140021100120A3E712AB0020002163E9020101932E
S2140021201C9B00930C9B424649460898214CA047AE
S214002130002893D10FA91E989DED100B0E4B9847C3
S2140021400F9B5B421F9A136099F80030092B02D050
S214002150032B7FF471AF1D9B1978219B0093209B66
S2140021601C9A0898144CA04778E700BFDD180100B9
S21400217085190100D91B0100951A0000340E0800CD
S214002180500E0800A40D0800180E08006C0E08007B
S214002190880E0800740408009C0E0800B80E08009C
S2140021A0F40E0800000F0800100F0800200F0800AB
S2140021B0440F0800391D0000FD1D000008B5034B44
S2140021C01B68D968024B984708BD00BF2000002056
S2140021D0D533010000B583B0836B63B102AA00213A
S2140021E042F8041D28219847012814BF01980020B2
S2140021F003B05DF804FB014B984700BF693201004D
S2140022002DE9F0478AB0189E0C682468023C012C21
S21400221013D84C682568012D18D001240394029524
S2140022205B4B01935B4B0093456950235A4A5B49CD
S214002230A84720460AB0BDE8F087594B009344698A
S2140022404F23554A5749A0470120F3E792F800C0AC
S214002250D2F80890D2F804E05469139F7D1E1769DF
S21400226007FB05F707F1010ABCF1010F11D0BCF11D
S214002270020F50D0149D013D04FB05F404F1010843
S214002280BCF1010F5CD0BCF1020F5BD000252C46E0
S21400229010E00EEB0305013D95FBFEF5149F07F1DC
S2140022A0FF3804FB08F404F10108129C4C44013C7E
S2140022B094FBF9F4013C09FB0484129FE41B24EA16
S2140022C0E474013D0EFB05A5EB1A23EAE37303EB6A
S2140022D0D3756D10356004EBD4756D10756003F022
S2140022E00103B36004F00104F4609DF85C30012B38
S2140022F04BD085680B685C6805EB841E9C6805EB14
S21400230084141F68022F21DDDB68B3F1FF3F1BD06A
S21400231005EB83131BE00EEB0305A5EB0A0595FB07
S214002320FEF5149F07F1FF3804FB08F404F10108DA
S214002330129C09EB040CACEB080C9CFBF9F4B9E717
S2140023400025B2E70025F3E7002300E00023A76896
S2140023507F680897F7690797B769069706F1240715
S214002360059706F12007049706F114070397103621
S21400237002960C3201924A68526805EB8215009567
S21400238022467146084CA04754E7002052E700BF9B
S21400239078150800C410080074100800180E08000D
S2140023A0A010080074040800251F00002DE9F04F57
S2140023B08FB0D1F810A0BAF1000F2FD005460C460A
S2140023C0D1F814B0BBF1000F2AD0D0F808800B6803
S2140023D05F68BF0108EB07029B6808EB83199368E8
S2140023E0DA6808929B680993D9F80830DA680A9286
S2140023F09A680B924A68526808EB82129268D16813
S2140024000C9192680D925E68B600836B0AF1180212
S2140024103146984730B10FB0BDE8F08F404B984733
S2140024203F4B9847AB6B0AF11C023146284698474B
S2140024300028F0D118F80730092B13D0CDF818A0D3
S21400244005930D9B04930C9B03930B9B02930A9B93
S2140024500193099B0093089B5A4621462846314C17
S214002460A047D8E799F83020012A22D1D9F834209D
S214002470002A2DD01168002934D0506800283BD09F
S2140024800A68012A04D0D9F8081049688A423DD162
S21400249001688A42D2D003910292234B0193234BC8
S2140024A000936C69A323224A22492846A0470120AC
S2140024B0B1E70124039402921F4B01931F4B009334
S2140024C06E6996231A4A1B492846B0472046A2E75B
S2140024D01B4B00936C699A23154A1A492846A04755
S2140024E0012098E7184B00936C699B23104A154906
S2140024F02846A04701208EE7144B00936C699C2366
S2140025000B4A10492846A047012084E7104B009349
S2140025106C69A123064A0B492846A04701207AE7A2
S214002520693201000122000074110800200F080023
S21400253074100800180E0800340E08006C0E080010
S214002540880E0800740408009C0E0800D8100800C6
S214002550F81008002DE9F04FD7B0609DDDF88491A3
S214002560DDF888A1659C29690891D9F810100991B1
S214002570216925911968009159680191D2F804B033
S2140025809168029111690391526904921A69139233
S2140025905F691A6A17925B6A1893002D00F05F81D4
S2140025A0D5F8088058F8046B3896052E40F35B8102
S2140025B0B04B9E4294BFB0004FF0FF30AE4B9847F2
S2140025C03990B2004146AD4B98476B680C93B9F111
S2140025D0000F00F04A81D9F8086056F8045B3E9573
S2140025E0052D40F34D81A34B9D4294BFA8004FF0AC
S2140025F0FF30A14B98473F90AA0031469F4B984723
S214002600D9F804302693BAF1000F00F03B81DAF8CF
S214002610086056F8045B4495052D40F33781954BCA
S2140026209D4294BFA8004FF0FF30934B98474590CB
S214002630AA003146914B9847DAF804301A93002CDA
S21400264000F02681A66856F8045B4A95052D40F3EF
S2140026502381884B9D4294BFA8004FF0FF30864BE5
S21400266098474B90AA003146844B98476368069378
S214002670639B002B00F01281639B9D682C6850942E
S214002680052C40F30D817B4B9C4294BFA0004FF07D
S214002690FF30794B98475190A200291D774B9847F9
S2140026A00FFA8BF30D93BDF90850BDF90CE0BDF998
S2140026B01060BDF90040BDF90480179B189A93423C
S2140026C000F3F080389B042B40F0EE803E9B042BFA
S2140026D040F0EC804A9B042B40F0EA80399B0A933A
S2140026E04B9A1E929A4240F0E5803C9B0793DDF899
S2140026F00891994540F0E0803F9B0B934E9A1292CA
S2140027009A4240F0DB801A9BABB1449A052ACCBFB4
S214002710459945A9002A40F3D3800B4601EB820178
S214002720012253F8040B00FB02F29942F9D1129BE6
S2140027309A4240F0C780DDF8E8B0DDF8ECC0409B78
S2140027400593DDF804A14C9914914D9B1A462293EB
S2140027501E98002840F3F88179420029D4BF3846F5
S2140027600020249001238340581E3290401033905E
S21400277012982F9017461346149A03FB02F300FB99
S21400278003F03090069820900CFB0BF3079800FBA4
S21400279003F22E92C8F10008CDF8C48063422C9351
S2140027A008FB0CF31B1B0C9C00FB03441D94129BA4
S2140027B01A4602FB07F42B942A95024600FB0CF3FC
S2140027C003FB05F036900D9C2894104602FB04F49B
S2140027D02994CDF81090059A0AFB02F209FB02F242
S2140027E02D9209FB0AF21192109603FB06F30F9343
S2140027F0CDF808E000FB0EF3039300230693139B2B
S2140028001C46DD17CDE9344521EAE1733793149B66
S214002810002B40F38A81319B23931D9B1993209BA9
S2140028201F9300231C935B46D346E2469C46229B9E
S214002830002B40F363812C9B0E93199B16931F9BD2
S214002840159300231B93E046129B002B40F3428116
S214002850269B2193159B27934FF0000C06E100233F
S21400286038930C93B3E639A8ABE600233E93269341
S214002870C9E600BFFEFFFF1F29920000E13F0100EE
S2140028803FA8B9E6002344931A93D8E645A8CFE6B6
S21400289000234A930693EBE64BA8E3E65093FFE645
S2140028A051A8F9E6854B9847844B9847834B984741
S2140028B0824B9847814B9847804B98477F4B984769
S2140028C0012234E77D4B98477C4B98477B4B9847D3
S2140028D07A4B9847794B9847784B9847774B984769
S2140028E001334B4530D0002AFADB5245F8DA00298E
S2140028F0F6DB4145F4DA069C002CE5DB0A9DA54292
S214002900E2DD002BE2DB079C9C42DFDDF45CBCF1E1
S214002910000FDDDB0B9FBC45DADABEF1000FD9DB1A
S214002920059F7745D6DD0028D6DB8345D4DD99455F
S214002930D4DD009FFD5C099FED1B089FE41B019FF3
S21400294004FB05740194CBE7009F0130029B1A44F8
S214002950049B1F44039B1E44584505D0B9F1000F45
S214002960F3DD00230097BEE70EF1010E0D9B119AD2
S21400297013440D930C9B0F9A13440C93109B19440D
S214002980059B9E4509D0BBF1000FEDDD0C9E0D9F0B
S2140029900E9A0020E2E7002301931A9B23B153F816
S2140029A02C30019A1A440192019A379B9A40139B45
S2140029B0934267D0D517359B02FB03F1139800FBB3
S2140029C00511A2FB00230B44002A73F10001C0F29C
S2140029D0CC8012F1804243F1000310461946002ACB
S2140029E073F10004C0F2D680C30F43EA4103249A71
S2140029F0002A4DDB249A1F2A51DC339A02EBD3714E
S214002A00329A1A40249803419142B8BF0133259A5E
S214002A101344179A9342B8BF1346189A9342A8BF16
S214002A201346069A002A41DB1E9991423EDD1C9A07
S214002A30002A3DDB14998A423ADA1B9A002A39DBCF
S214002A4022998A4236DABCF1000F35DB129A944599
S214002A5032DA279A02F8013B27920CF1010C219BEF
S214002A602D9A13442193129B9C4533D0059B002B33
S214002A7091DD2399169B0C93219B0D9300230193C4
S214002A809E4680E7B3F1004F94D16FF00043AEE767
S214002A900B4B0C4A4FF4B3710B480C4CA0470C4B35
S214002AA0084A40F267110848084CA047034B98476D
S214002AB0024B9847014B9847004B984769320100F4
S214002AC09C110800F80F0800AC11080079320100CC
S214002AD0DC1108001B9B01331B93159A2F990A449F
S214002AE01592169A29990A4416920E9A28990A441B
S214002AF00E92229A93427FF4A7AEC4461C9B0133E3
S214002B001C931F9A2B990A441F92199A36990A44C5
S214002B101992239A2A990A442392149A93427FF48C
S214002B2086AE6346D446DA469B46069B013306933A
S214002B30209A30990A4420921D9A2E990A441D9292
S214002B401E9A93427FF463AE509B052B03DD51988B
S214002B5008B1134B9847449B052B03DD459808B1F5
S214002B600F4B984757B0BDE8F08F0E484FF0FF3137
S214002B708018594102460B46002871F1000403DB19
S214002B80C30F43EA410332E76FF00040002180188C
S214002B905941F5E76FF0004000218018594123E7BE
S214002BA079910000010000C02DE9F04FCDB0569D90
S214002BB0579C29690391599909691691D2F808908A
S214002BC0D2F80480D2F814B0D2F810A05A68009256
S214002BD01A6801921A6A12925A6A13929A691492A1
S214002BE0DB691593002D00F03981AF6857F8046B48
S214002BF03496052E40F33581A84B9E4294BFB00014
S214002C004FF0FF30A64B98473590B2003946A54B9B
S214002C1098476F68002C00F02681A66856F8045B7B
S214002C203A95052D40F323819C4B9D4294BFA80006
S214002C304FF0FF309A4B98473B90AA003146994B8D
S214002C40984763681A93589B002B00F01281589B94
S214002C509E6856F8045B4095052D40F30D818F4B1A
S214002C609D4294BFA8004FF0FF308D4B984741908F
S214002C70AA0031468B4B9847589B5B681993599B23
S214002C80002B00F0FB80599B9D6855F8044B46943A
S214002C90052C40F3F680814B9C4294BFA0004FF079
S214002CA0FF307F4B98474790A20029467D4B9847B8
S214002CB0599B5E680FFA88F80FFA89FE0FFA8AFCAD
S214002CC00FFA8BFBBDF90440BDF90050129B139A16
S214002CD0934200F3D880349B042B40F0D6803A9B76
S214002CE0042B40F0D480469B042B40F0D280359BCA
S214002CF00593479A1B929A4240F0CD80389B0493E6
S214002D00DDF8F890994540F0D1803B9B06934A9AAF
S214002D100E929A4240F0CC80199BABB1409A052A9D
S214002D20CCBF419841A8002A40F3C480034600EB7C
S214002D308200012253F8041B01FB02F29842F9D1EB
S214002D400E9B934240F0B880369B0793DDF8DCA0DC
S214002D503C9B02933D9B1A46019348991791499BC9
S214002D601C931B99002940F38A810E9832901946CD
S214002D70179B01FB03F300FB03F029902696079BA5
S214002D800AFB03F3049E06FB03F32A936D422B957E
S214002D90634230930AFB05F31B1B06FB0375259560
S214002DA00E9800FB01F13391CDF8B0E006FB0AF374
S214002DB00EFB03F12E91CDF8BC8006FB08F12D9199
S214002DC0CDF824901146029C02FB04F209FB02F2A5
S214002DD0319209FB01F21092CDF844B00BFB03F3DD
S214002DE00F93CDF820C006FB0CF30A934FF0000BB0
S214002DF04B46D9469B46179B002B40F332812B9BB4
S214002E001D93259B2893269B2793002324931C9B86
S214002E10002B40F31381309B0D93289B1F93279B19
S214002E201E93002323930E9B002B40F3F480149BE9
S214002E30043B2093159B043B21931A9B18931E9BDF
S214002E4022934FF00008029B002B6CDD1D9C1F9BFD
S214002E500B93189B0C93002635465AE000273497B0
S214002E60D8E635A8D1E600233A931A93EBE63BA8BA
S214002E70E3E64093199302E741A8F9E60026469652
S214002E8018E747A810E7084B9847074B9847064BA4
S214002E909847054B9847044B984700BFFEFFFF1F17
S214002EA029920000E13F010069320100AF4B9847CC
S214002EB0AE4B9847012243E7AC4B9847AB4B98473D
S214002EC0AA4B9847A94B9847A84B9847A74B9847B3
S214002ED0A64B9847009E0130089B1A44099B9C44C9
S214002EE00A9B9E44019B984205D0BBF1000FF2DD81
S214002EF00023009620E101350C9B109A13440C9396
S214002F000B9B0F9A13440B93119B1C44029B9D42F0
S214002F100AD0019B002BEEDDDDF82CE0DDF830C09A
S214002F200D9A0020E1E70026199B13B153F82830CC
S214002F301E44209B53F8040F2093219B53F8047FD4
S214002F40219327EAE772002FD4BF7F4200279640DE
S214002F50B04200F09E80F517C31706FB03F100FB96
S214002F600511A6FB00230B44002A73F10001C0F2F2
S214002F70ED8012F1804243F1000310461946002A04
S214002F8073F10004C0F20881C30F43EA41031846F8
S214002F90002FC0F285801F2F00F389800123BB40DD
S214002FA0013B5A1002EBD07100EA030240FA07F325
S214002FB09142B8BF0133169A1344129A9342B8BF8F
S214002FC01346139A9342A8BF1346B9F1000F75DB58
S214002FD01B9A4A4572DD249A002A71DB17998A42A9
S214002FE06EDA239A002A6DDB1C998A426ADAB8F1F7
S214002FF0000F69DB0E9A424566DD229A02F8013B15
S214003000229208F10108189B319A134418930E9BDC
S21400301098457FF418AF239B013323931E9A329969
S2140030200A441E921F9A2D990A441F920D9A2F99B0
S2140030300A440D921C9A93427FF4F5AE249B01330A
S2140030402493279A33990A442792289A2E990A4459
S21400305028921D9A2C990A441D92179A93427FF43F
S214003060D6AE09F10109269B299A13442693259B7F
S2140030702A9A134425931B9B99457FF4BCAE409B2C
S214003080052B03DD419808B1394B98474DB0BDE894
S214003090F08FB6F1004F7FF45EAF6FF0004376E737
S2140030A0344B354A4FF4B3713448354CA047354B52
S2140030B0314A40F267113148314CA0472B4B9847B4
S2140030C02A4B9847294B9847284B9847B9F1000F49
S2140030D0FFF6F4AE059949457FF7F0AE002BFFF6F4
S2140030E0EFAE049999427FF7EBAE1EF90310B8F1E4
S2140030F0000FFFF6E7AE069E46457FF7E3AE002DCF
S214003100FFF6E2AE029EAE427FF7DEAE0028FFF686
S214003110DDAE019E86427FF7D9AE9B457FF7D8AEDF
S2140031201CF90370039E891B009E01FB076100913A
S21400313001335B453FF4CEAE002AF9DB5245F7DAA1
S214003140002CF5DB07998C42C0DBF1E70E484FF008
S214003150FF318018594102460B46002871F10004E1
S21400316014DBC30F43EA410311E700BF69320100D5
S214003170799100009C110800F80F0800AC110800B7
S21400318079320100DC110800010000C06FF0004039
S214003190002180185941E4E76FF0004000218018B4
S2140031A05941F1E62DE9F04F2DED028BCBB0569C40
S2140031B05B9D117B012900F08281032900F0848148
S2140031C00229DFEDB27AF7EE008A18BFF0EE678AC2
S2140031D0DFEDAF7ABFEE008A18BFB0EE678A1968D7
S2140031E000915B680193D2F80490D2F808801769C2
S2140031F05669002C00F06D81D4F808B05BF804AB7B
S214003200CDF8B0A0BAF1050F40F36781A14B9A45FF
S21400321094BF4FEA8A004FF0FF309F4B98472D909F
S2140032204FEA8A0259469D4B984763680293579B1C
S214003230002B00F05481579BD3F808A05AF8044B93
S2140032403294052C40F34E81924B9C4294BFA000D2
S2140032504FF0FF30904B98473390A20051468F4B6B
S2140032609847579B5B681F93589B002B00F03C8148
S214003270589BD3F808A05AF8044B3894052C40F312
S2140032803681844B9C4294BFA0004FF0FF30824BA7
S21400329098473990A2005146804B9847589B5B68E8
S2140032A01293002D00F02581D5F808A05AF8044B9B
S2140032B03E94052C40F32181764B9C4294BFA0009F
S2140032C04FF0FF30744B98473F90A2005146734B27
S2140032D09847D5F804A0599B002B00F01081599B05
S2140032E09D682C684494052C40F30B81694B9C42E6
S2140032F094BFA0004FF0FF30674B98474590A20060
S214003300291D664B98470FFA89F303930FFA88FE38
S2140033103FB236B2BDF90010BDF904502C9B042B09
S21400332040F0F180329B042B40F0EF803E9B042B54
S21400333040F0ED802D9B08933F9A18929A4240F0F9
S214003340E880309B0793DDF8D880984540F0E3800E
S214003350339B0993429A10929A4240F0DE80129B69
S214003360ABB1389A052ACCBF399839A8002A40F361
S214003370D680034600EB8200012253F8044B04FB80
S21400338002F29842F9D1109B9A4240F0CA80DDF8CA
S214003390B8C0DDF8BC90349B0593DDF8D4B04098F7
S2140033A004461C90419B1B931898002840F3B48158
S2140033B0184603FB04F39B00109C04FB03F32A93BC
S2140033C0CDF84CA009FB0CF39B00079A02FB03F315
S2140033D022936B422B934D4221951546920003FB98
S2140033E009F35B1A1146029A01FB03231693034660
S2140033F0204603FB04F39C002994CDF88CE005FBE3
S21400340009F39B0003FB0EF4259480002890039894
S214003410269001FB00F02490059A0BFB02F2920026
S21400342008FB02F2279208FB0BF292000E920D9612
S21400343003FB06F30F934FEA88030293039701FBFF
S21400344007F30493002306939FED166A4B46D9466E
S214003450E2469B461C9B002B40F34F812B9B1E9302
S214003460169B1993139B1793002315935346CA462E
S21400347099461B9B002B40F32A81219B0C93199B9A
S2140034801A93179B1D93002314930DE0FFFF7F7F75
S214003490FFFF7FFFFEFFFF1F29920000E13F0100B4
S2140034A0FFFF7F7F00000000109B002B40F3FC8096
S2140034B01F9B11931D9B20934FF0000CDCE05FEDEB
S2140034C0088A1FED088A8AE6F1EE088A1FED0B8A45
S2140034D085E600232C930293A9E62DA8A0E6329356
S2140034E01F93C1E633A8B8E638931293D9E639A8F5
S2140034F0D0E600233E939A46EDE63FA8E5E64493E1
S21400350001E745A8FBE68E4B98478D4B98478C4BBA
S21400351098478B4B98478A4B9847894B9847012288
S21400352031E7874B9847864B9847854B9847844B9F
S2140035309847834B9847824B9847814B984701336F
S2140035400431043243452ED00028F8DB5845F6DA1D
S214003550002CF4DB4C45F2DA069E002EE3DB374601
S214003560089EB742DFDA002BDFDB079E9E42DCDDDB
S214003570D2ED007ABCF1000FD9DB099EB445D6DA4D
S214003580BEF1000FD5DB059EB645D2DA002DD2DBA4
S214003590AA45D0DD9845D0DD91ED007A67EE877AB2
S2140035A076EEA76ACBE7009F019E0135029B1E447C
S2140035B0049B1F44039B1844554508D0B8F1000FE0
S2140035C0F3DD3A463146002300970196BCE70EF13C
S2140035D0010E0B9B0E9A13440B930A9B0F9A1344EF
S2140035E00A930D9B1C44059B9E4509D0BAF1000F1B
S2140035F0EDDD0C980A9F0B9E0025DFE7DFED516A94
S214003600129B002B45D003EB8C03D3ED007A069B70
S214003610002B41DB189A93423EDA159B002B3DDBCC
S2140036201C9A93423ADA149B002B39DB1B9A93427E
S21400363036DABCF1000F35DB109B634532DD77EEE2
S214003640A66AF4EE486AF1EE10FA48BFF0EE486A51
S214003650F4EE686AF1EE10FAC8BFF0EE686A209BD6
S214003660E3EC016A20930CF1010C119B279A13449A
S2140036701193109B9C4517D0059B002BBEDD1E9C0E
S2140036801A9B0A93119B0B934FF0000EDFED2D6AE9
S214003690ACE7F0EE467ABAE7294B9847284B9847AE
S2140036A0274B9847264B9847149B013314931D9A33
S2140036B028990A441D921A9A24990A441A920C9A36
S2140036C026990A440C921B9A93427FF4EDAE159B02
S2140036D001331593179A29990A441792199A25992E
S2140036E00A4419921E9A23990A441E921C9A9342DF
S2140036F07FF4BFAE4B46D1469A46069B01330693EF
S214003700139A2A990A441392169A22990A441692F0
S214003710189A93427FF49EAE449B052B03DD459892
S21400372008B1094B9847389B052B03DD399808B13B
S214003730054B98474BB0BDEC028BBDE8F08F00BF41
S2140037406932010000000000799100002DE9F04187
S21400375086B006464A6984684B685F6804EB87173C
S2140037600B685D68AD0104EB050E986804EB801CE1
S2140037701868022809DDDB68B3F1FF3F02D004EBCE
S214003780831804E04FF0000801E04FF000080B69D2
S21400379083B1605D03282ED009281ED001280BD0E7
S2140037A077691C4B9847635D02461B493046B8470D
S2140037B001200FE0194B98470597002404940394C2
S2140037C0CDF80880CDF804C0CDF800E03046144DA2
S2140037D0A847204606B0BDE8F0810024049403976D
S2140037E0CDF80880CDF804C0CDF800E030460D4D89
S2140037F0A8472046EEE70597002404940394CDF8E6
S2140038000880CDF804C0CDF800E03046064DA84745
S2140038102046DFE7E1900000EC1108006932010065
S214003820A5310000A92B00005525000070B40646FF
S2140038300446054D0FCD0FC495E80F0084E80F0031
S214003840304670BC704700BF5410080000B583B007
S214003850836B63B102AA002142F8041D1421984725
S214003860012814BF0198002003B05DF804FB014B4B
S214003870984700BF693201002DE9F04F89B0D1F8B2
S2140038801080B8F1000F15D00746D1F814C0BCF16F
S214003890000F11D084680E687268920104EB020E65
S2140038A03368022B0CDDF368B3F1FF3F06D004EB60
S2140038B0831306E02E4B98472D4B9847002300E0D5
S2140038C0002349684D68AD0104EB0509A05C625D04
S2140038D082420BD1B568AD016219615D81421CD090
S2140038E07B69244938469847012013E0D7F81480AE
S2140038F0214EB0478146605DB0470390CDF80890F2
S2140039001E4B01931E4B009360231E4A1E493846E9
S214003910C047012009B0BDE8F08F012826D09CF8EA
S214003920004008A94FF0000A4FF0000B61E902AB17
S2140039300191CDF8009071463846144DA8470028EE
S214003940E8D105A940469DED060B114B9847059B0F
S2140039505B42C8F8043008F10C03009308F1080332
S2140039604A46214638460B4CA047D3E70020D1E70D
S21400397069320100F4120800E1900000D812080035
S214003980E812080084120800BC120800391D000066
S214003990951A0000FD1D00002DE9F04F2DED028B5D
S2140039A09FB01E462A9C2B9F2C9D012A00F0D68095
S2140039B0032A00F0D880022ADFEDA47AF7EE008A08
S2140039C018BFF0EE678ADFEDA27ABFEE008A18BF56
S2140039D0B0EE678A002E00F0CB80D6F8089059F833
S2140039E0048BCDF81880B8F1050F40F3C380994BCF
S2140039F0984594BF4FEA88004FF0FF30964B9847A3
S214003A0007904FEA88024946944B98477668002C00
S214003A1000F0B280D4F8089059F8048BCDF83080C6
S214003A20B8F1050F40F3AC808A4B984594BF4FEA37
S214003A3088004FF0FF30884B98470D904FEA880279
S214003A404946864B984763680293002F00F09A8099
S214003A50D7F8088058F8044B1294052C40F394804D
S214003A607C4B9C4294BFA0004FF0FF307A4B9847A7
S214003A701390A2004146794B98477F68002D00F0CE
S214003A808780D5F8088058F8044B1894052C7DDDFF
S214003A90704B9C4294BFA0004FF0FF306E4B98478F
S214003AA01990A20041466D4B98476968189B05938C
S214003AB00C9A0492581E6BD4834269DD059B052B35
S214003AC0CCBF199C19AC059A002A63DD4FF0010A99
S214003AD0002355469646984214BF54F823202A469B
S214003AE002FB0AFA01339E45F5D1049B9A1E54D474
S214003AF0049B934253DD049B052B52DC1EAB03EB69
S214003B00820252F8442C059B052B4EDC1EAB03EBC1
S214003B10800050F8143C0193019B93424AD1049BC9
S214003B205A1E49D4049B934248DD049B052B47DC70
S214003B301EAB03EB820252F844CCBAF1000F40F3FE
S214003B409380019B9B00039389464FEA8C0E07EBFC
S214003B5003084FF0000B9FED426A6DE0DFED3B8AF5
S214003B609FED3F8A36E7F1EE088A9FED3D8A31E702
S214003B7006964CE707A844E700230C93029364E7F5
S214003B800DA85BE7129779E713A872E719A888E7EC
S214003B90344B98474FF0010AA7E7324B9847314B12
S214003BA098470D9B53F82220ADE7199B53F8203019
S214003BB00193B1E72B4B98472A4B9847294B9847D8
S214003BC00D9B53F822C0B8E7DFED256A28E0F0EE3B
S214003BD0467A76EEA76AF4EE486AF1EE10FA48BF27
S214003BE0F0EE486AF4EE686AF1EE10FAC8BFF0EE3E
S214003BF0686AE5EC016A04307444804515D0BCF16F
S214003C00000FE1DD22463346DFED156AB3EC017A9C
S214003C10F2EC017A67EE277A76EEA76A8B42F5D148
S214003C20002FD4D0D0ED007AD3E70BF1010B039B25
S214003C3099447644D34517D0019B002BF5DD3846D2
S214003C40029C06EB0E014D46D9E700BFFFFF7F7FC3
S214003C50FFFF7FFFFEFFFF1F29920000E13F0100EC
S214003C600000000069320100059B052B03DD199852
S214003C7008B10E4B9847129B052B03DD139808B12D
S214003C800A4B9847049B052B03DD0D9808B1074B9C
S214003C909847069B052B03DD079808B1034B98470A
S214003CA000201FB0BDEC028BBDE8F08F79910000BC
S214003CB02DE9F04FE3B04A69AAB1064684680B685E
S214003CC058684FEA801804EB0807986804EB801BD6
S214003CD0186802280CDDDB68B3F1FF3F05D004EB63
S214003CE08313069306E09D4B98470023069301E056
S214003CF0002306934B685D68AB010893E3180793AF
S214003D000B699BB114F80800032800F07481092899
S214003D101CD001280CD07569914B984714F80830D0
S214003D20024690493046A84701200CE08B4B984746
S214003D301278079B0293069B0193CDF800B03B4692
S214003D403046894CA04763B0BDE8F08FD7F81080A6
S214003D50DBF81040079A12690A92D3F80090D3F85D
S214003D6004A09A680892DB680993002F00F0B880D8
S214003D70BE6856F8045B2C95052D40F3B3807B4B4C
S214003D809D4294BFA8004FF0FF30794B98472D9086
S214003D90AA003146774B98477F68BBF1000F00F0CA
S214003DA0A380DBF8086056F8045B2695052D40F3E3
S214003DB09F806E4B9D4294BFA8004FF0FF306C4B27
S214003DC098472790AA0031466A4B9847DBF804309C
S214003DD01493069B002B00F08D80069B9E6856F879
S214003DE0045B2095052D40F38880604B9D4294BF70
S214003DF0A8004FF0FF305E4B98472190AA0031464E
S214003E005C4B9847069B5B680693079B002B76D017
S214003E10079B9E6856F8045B1A95052D75DD534B77
S214003E209D4294BFA8004FF0FF30514B98471B901F
S214003E30AA0031464F4B9847079B5968269B169316
S214003E40012B60DD1A9B022B61D1089B099A9342D5
S214003E505FDC1B9B15931C9B1393169B9A1E5AD4D0
S214003E60169B934259DD169B052B58DC62AB03EB81
S214003E70820252F8EC3C139A934254DB169B5A1E6D
S214003E8053D4169B934252DD169B052B51DC62AB36
S214003E9003EB820252F8EC3C0793159B002B40F391
S214003EA09380CAF10003002BD4BFD4464FF0000C19
S214003EB0012202FA0CF2013A0C9252101092139A56
S214003EC0129201EB020A079A0492059700221192B9
S214003ED023EAE3730B934A46D317CDE90E2366E035
S214003EE02C975AE72DA853E700232693149370E7E0
S214003EF027A867E72093069387E721A87EE71A930B
S214003F00269B012B03DC154B98471BA890E7134B09
S214003F109847124B9847114B9847104B9847279B4A
S214003F2053F82230A7E70D4B98470C4B98470B4B9E
S214003F309847279B53F822300793AEE70022C9E341
S214003F40B9F1004F40F0CF836FF000438CE30A4B8B
S214003F500A4A4FF4B3710A480A4CA0476932010076
S214003F60E1900000EC11080099390000FEFFFF1FE9
S214003F7029920000E13F01009C1108000812080089
S214003F80AC11080079320100A44BA54A40F2671133
S214003F90A448A54CA047119B01331193129A924452
S214003FA0059A04990A440592159A93420CD0139BDD
S214003FB0002BF0DD129BAAEB03050698DDF850E017
S214003FC0049B059A991873E3209B052B03DD219823
S214003FD008B1964B9847169B052B03DD279808B12A
S214003FE0924B98472C9B052B03DD2D9808B18F4BE1
S214003FF098470020A7E63D69DBF810A0079A1269EB
S2140040000A921A681692D3F80490C9F100089A68C2
S2140040100492DB680593089BE05C03280DD0072814
S21400402000F098817769824B9847089BE35C0246CC
S21400403080493046B847012085E6002F00F0E3802F
S214004040BE6856F8044B5C94052C40F3DF807A4B30
S2140040509C4294BFA0004FF0FF30784B98475D908D
S214004060A2003146764B98477E68BBF1000F00F001
S214004070CF80DBF8087057F8044B5694052C40F3B5
S214004080CB806D4B9C4294BFA0004FF0FF306B4B33
S21400409098475790A2003946694B9847DBF804309A
S2140040A01793069B002B00F0CD80069B9F6857F861
S2140040B0044B5094052C40F3C8805F4B9C4294BF41
S2140040C0A0004FF0FF305D4B98475190A200394654
S2140040D05B4B9847069B5B680893079B002B00F09A
S2140040E0B680079B9F6857F8044B4A94052C40F30C
S2140040F0B480514B9C4294BFA0004FF0FF304F4B12
S21400410098474B90A20039464D4B9847079B5C68F2
S214004110569B1193012B40F39E804A9A002A40F347
S2140041209E80049B05998B4200F39B80531E00F1F2
S2140041309A809A4240F39780052ACCBF4B984BA8AA
S214004140012113910027394601279C46BE4661454A
S21400415014BF50F821303B4603FB0EFE01318A4265
S214004160F5D118916346CDF84CE0119A911E7CD497
S214004170119A8A427BDD119A052A7ADC62AA02EB42
S214004180810151F82C1C189A052A76DC62AA02EBEB
S214004190830353F85C3C1493149B8B4272D1119B9F
S2140041A05A1E71D4119B934270DD119B052B6FDC58
S2140041B062AB03EB820252F82C3C0993139B002B54
S2140041C040F39B80B8F1000FD4BF4846002001237F
S2140041D08340013B0C935B101093149B159304EBE8
S2140041E0030CDDF8249006960023129328EAE87361
S2140041F00B93169A1646D717CDE90E67CDF81C9086
S214004200E14694466CE000265C962EE75DA827E71C
S21400421000235693179344E757A83BE7DC110800A2
S21400422008120800AC1108007932010079910000EC
S214004230E1900000EC110800FEFFFF1F299200002D
S214004240E13F01005093089347E751A83EE74A93A1
S214004250569B012B03DC384B98474BA852E7364B4E
S2140042609847354B9847344B9847334B9847324BD3
S2140042709847579A52F8211085E74B9A52F8233000
S214004280149389E72C4B98472B4B98472A4B984713
S214004290579B53F82230099390E7002277E2B2F159
S2140042A0004F40F07D826FF000433DE2234B244AEE
S2140042B04FF4B3712348244CA047244B204A40F2C5
S2140042C067112048204CA047129B01331293159A81
S2140042D09144069A07990A440692139A93420CD080
S2140042E0149B002BF0DD159BA9EB030E089CDDF854
S2140042F05C80069B079A991837E2189B052B03DD0E
S2140043004B9808B1124B9847509B052B03DD5198EC
S21400431008B10F4B9847119B052B03DD579808B142
S2140043200B4B98475C9B052B03DD5D9808B1084B4B
S2140043309847002007E500BF693201009C1108007D
S21400434008120800AC11080079320100DC110800E0
S21400435079910000002F00F0E680BE6856F8044B06
S2140043604494052C40F3E280944B9C4294BFA000FA
S2140043704FF0FF30924B98474590A2003146914B44
S21400438098477E68BBF1000F00F0D280DBF808701B
S21400439057F8044B3E94052C40F3CE80874B9C4246
S2140043A094BFA0004FF0FF30854B98473F90A20087
S2140043B03946844B9847DBF804301793069B002B4E
S2140043C000F0BC80069B9F6857F8044B3894052C79
S2140043D040F3B780794B9C4294BFA0004FF0FF306B
S2140043E0774B98473990A2003946764B9847069BFC
S2140043F05B681893079B002B00F0A580079B9F68BF
S21400440057F8044B3294052C40F3A0806B4B9C422B
S21400441094BFA0004FF0FF30694B98473390A2003E
S2140044203946684B9847079B5C68049B059A9342FD
S21400443000F38E800A9B002B40F08C80329B1593F5
S2140044403E9A11925A1E00F18780934240F3848070
S214004450159B052BCCBF339833A8159900297DDD15
S21400446001230E9300230127BE468C46934214BFB9
S21400447050F82310394601FB0EFE01339C45F5D15A
S214004480CDF838E0119B991E6BD4119B8B426ADDE8
S214004490119B052B69DC62AB03EB810151F88C1C88
S2140044A0159B052B65DC62AB03EB820252F8BC3C25
S2140044B01393139B8B4261D1119B5A1E60D4119BA0
S2140044C093425FDD119B052B5EDC62AB03EB820241
S2140044D052F88C3C07930E9B002B40F3A380B8F158
S2140044E0000FD4BFCC464FF0000C012303FA0CF3A8
S2140044F0013B09935B100A93139B5B001493109483
S214004500079B194606960023129328EAE8730B9336
S214004510169A1646D717CDE90C671695CDF864A0FF
S2140045208A46964669E0002644962BE745A824E787
S21400453000233E93179341E73FA838E73893189334
S21400454058E739A84FE7002432946EE733A866E7A9
S2140045501D4B98471C4B98471B4B984701230E93BF
S21400456090E7194B9847184B98473F9B53F82110F4
S21400457096E7339B53F8223013939AE7124B9847EB
S214004580114B9847104B98473F9B53F822300793A0
S214004590A1E7BEF1004F40F099816FF000435EE165
S2140045A00A4B0B4A4FF4B3710A480B4CA0470B4B0F
S2140045B0074A40F267110748074CA047FEFFFF1F57
S2140045C029920000E13F0100693201009C110800B9
S2140045D008120800AC11080079320100DC1108004E
S2140045E0129B01331293109A14990A441092069A59
S2140045F0524406920E9A9A4214D0139B002BEFDD7B
S214004600189BA3F10409DDF85C80149A109B1A44E9
S21400461008921D46069B0AEB0304199B5842169BFC
S21400462059423DE1159B052B03DD339808B1B64B87
S2140046309847389B052B03DD399808B1B24B98474D
S214004640119B052B03DD3F9808B1AF4B9847449B61
S214004650052B03DD459808B1AB4B98470020FFF7C4
S21400466072BBF30F43EA4703BCF1000FFFF66FACD3
S214004670BCF11F0F3FF788AC109A02EBD3760C9A6A
S2140046801A4043FA0CF39642B8BF01330A9A134411
S214004690089A9342B8BF1346099A9342A8BF134696
S2140046A005F8013B0430049B9E44AA453FF473ACD6
S2140046B0079B002B7FF742ACF346059F002217F9B5
S2140046C0016B1BF9013B1B1BA6EB080606FB03222E
S2140046D08F42F4D1069B0BB103681A440B9B9A4099
S2140046E091453FF42DACD71709FB07F60F9B02FB4D
S2140046F00366A9FB02233344002A73F10006C0F2C6
S214004700818012F1804243F1000316461F46002ABC
S21400471073F1000BA5DA6FF000460027B6185F416C
S2140047209FE7F30F43EA47030028FFF6BFAD1F28B5
S2140047303FF7C3AD109A02EBD3760C9A1A400341AA
S2140047409642B8BF01330A9A1344049A9342B8BFFC
S2140047501346059A9342A8BF13460EF8013B04344D
S214004760079B9844CE453FF4AFAD099B002B7FF7DF
S21400477094ADC346069F002217F8016B1BF8013B59
S214004780A3EB0A03761B06FB03228F42F4D1089B99
S2140047900BB123681A440B9B9A4094453FF47FADB7
S2140047A0D7170F9B02FB03F60CFB0766A2FB0C2336
S2140047B03344002A73F1000639DB12F1804243F1DC
S2140047C0000316461F46002A73F1000BA9DA6FF0A5
S2140047D000460027B6185F41A3E74C4E4FF0FF3760
S2140047E0B6185F4132463B46002E77F1000B03DBDE
S2140047F0F30F43EA470332E06FF000460027B6188F
S2140048005F41F5E7414E4FF0FF37B6185F4132463D
S2140048103B46002E77F1000B03DBF30F43EA47031A
S21400482022E76FF000460027B6185F41F5E7374EDF
S2140048304FF0FF37B6185F4132463B46002E77F101
S214004840000B03DBF30F43EA47036DE76FF0004608
S2140048500027B6185F41F5E7F30F43EA4703BCF1BC
S214004860000FFFF69DAEBCF11F0F3FF7A0AE0A9AF1
S21400487002EBD376099A1A4043FA0CF39642B8BF75
S2140048800133049A9342B8BF1346059A9342A8BFD1
S214004890134625F8023BD044089B9D423FF4A0AE49
S2140048A059F8042F079B002B0BDDC346069F17F80D
S2140048B0016B1BF8013B03440E4416FB0322A74280
S2140048C0F5D10B9B9A4096453FF463AED7170D9BE8
S2140048D002FB03F60EFB0766A2FB0E233344002AF8
S2140048E073F10006FFF679AF12F1804243F1000340
S2140048F016461F46002A73F1000BADDA6FF000462D
S2140049000027B6185F41A7E779910000010000C0B4
S21400491070B406460446054D0FCD0FC495E80F004B
S21400492084E80F00304670BC704700BF6412080071
S21400493088421CD030B4C517CB1700FB03F301FB2D
S2140049400533A0FB01011944002871F1000314DBB4
S21400495010F1804041F1000102460B46002871F13B
S21400496000041FDBD00F40EA430030BC7047B0F1B4
S214004970004FDFD16FF0004070470D4A4FF0FF3315
S2140049808018594102460B46002871F1000403DBEB
S214004990D00F40EA4300E8E76FF000420023121809
S2140049A04B41F5E76FF00042002312184B41D9E760
S2140049B0010000C02DE9F84F6FF0004200231418E4
S2140049C043EBE075002C75F10003B9BF4FF0FF32E2
S2140049D04FF0FF3301220023A01845EB0301CB0F55
S2140049E0C01841F1000149104FEA3000834656498D
S2140049F0564B984700F15A340325DFF850A16FF064
S214004A0000484FF0000968E0B4F1004F6CD14FF059
S214004A10FF3E00206FF0004250E04FF000424DE0B5
S214004A20B4F1804FB4BF002301235842B4F1404F85
S214004A30CCBF002201225142E51724196D41B4F182
S214004A40004F75F1FF3614DB6FF000460027A642D4
S214004A5077EB0506B8BF6FF00044013B1C4020F022
S214004A6000406040013A104001F000435840BDE865
S214004A70F88F4FF00044F0E7D10F41EA4301B1F15F
S214004A80005F4FF0FF3EB8BF4FF0000EB1F1604F31
S214004A904FF0FF30C8BF00200A46CB179F0047EAFA
S214004AA091778E00B6F1004F77F1FF33B5DBB04556
S214004AB079EB0703ACBF32466FF000426FEA0E0395
S214004AC013402EF0004E83EA0E03C243134000F05C
S214004AD0004043401C44013DA2D021465846D047E2
S214004AE0C0F1005E74458FD07246D317E1170EFBF7
S214004AF001F204FB0323AEFB04011944002871F104
S214004B0000030EDB10F1804041F1000102460B4627
S214004B10002871F1000EAFDA10EB080241EB090332
S214004B20AAE70B4A4FF0FF3312184B4110461946BE
S214004B30002A73F1000E03DA12EB080043EB0901BA
S214004B40C30F43EA41019AE7C4C3C3C33149000017
S214004B50010000C088421CD030B4C517CB1700FB3C
S214004B6003F301FB0533A0FB01011944002871F192
S214004B70000314DB10F1804041F1000102460B46B1
S214004B80002871F100041FDBD00F40EA430030BC60
S214004B907047B0F1004FDFD16FF0004070470D4A0C
S214004BA04FF0FF338018594102460B46002871F13A
S214004BB0000403DBD00F40EA4300E8E76FF0004252
S214004BC0002312184B41F5E76FF00042002312183D
S214004BD04B41D9E7010000C02DE9F041144F00F128
S214004BE0805631463046134DA84704463146A847FE
S214004BF0804621462046A847C30F013300F0030233
S214004C0080109342B8BF01300B494044A847204467
S214004C1000F00103B3EBD07FCCBF0124002404EBEB
S214004C20600081193846A8473844BDE8F08100BFC7
S214004C3094A8F570554B0000ABAAAA2AF0B5059CBF
S214004C409368D3F808E0DD688F684A68D1F810C02A
S214004C50CE680B78012B08D0022B2CD0012B35D038
S214004C60022B35D000210B4608E0A918013991FB2C
S214004C70F2F107EB0E00013890FBF7F3013B07FB60
S214004C8003C3A3EB0E0323EAE373013902FB0162BD
S214004C90521B22EAE27202EBD2714910216003EB4A
S214004CA0D3714910616002F00102A26003F00103B3
S214004CB0E3600020F0BDA918891B91FBF2F107EB19
S214004CC00E00A0EB0C0090FBF7F3D7E70021D0E72F
S214004CD00021F4E72DE9F04F2DED028BD5B0044608
S214004CE0D1F8149087680B685E68B60107EB060873
S214004CF04B685D6807EB85152CAB00932B46424648
S214004D004946DFF8E4A2D04780B9B85D032800F032
S214004D10F281092800F0EF8101280CD06569A94BC3
S214004D2098470246A8492046A847012055B0BDEC42
S214004D30028BBDE8F08F99F81430012B00F0E2806A
S214004D40032B00F0E480022BDFEDA07AF7EE008A5A
S214004D5018BFF0EE678ADFED9E7ABFEE008A18BFB6
S214004D60B0EE678AD9F808301A93D9F804301B9346
S214004D70D9F810301C93D9F80C3018932D9B1D933E
S214004D802C9B1E93B8F1000F00F0C680D8F8086080
S214004D9056F8044B3694052C40F3C2808D4B9C424B
S214004DA094BFA0004FF0FF308B4B98473790A2007F
S214004DB031468A4B9847D8F804300E93002D00F001
S214004DC0B180AE6856F8044B3094052C40F3B180A1
S214004DD0804B9C4294BFA0004FF0FF307E4B98471C
S214004DE03190A20031467D4B98476B681693369BF0
S214004DF0042B40F09C80309B042B40F09C80379B1B
S214004E000893319A11929A4240F09780DDF8E8A014
S214004E10349B0993534540F09280389B0793DDF806
S214004E20E490329B1093339B0F93119B002B40F31F
S214004E3060814FF00008CDF864900AFB09F31593E3
S214004E40DFED636A0DF1AC0B5346C24698461099E7
S214004E50002940F348811A9B2593BDF97430079AC0
S214004E602292D01820905B420C9300230D930AFBED
S214004E7002F323930AFB01F324930F9A002A40F3CC
S214004E802481209B2299591A21EAE17113911C98DA
S214004E909842A8BF184604901B9B2693BDF978300D
S214004EA003EB09001F905B420B9300230A93239B9E
S214004EB00C9803440B44199901FB03F32193249B9C
S214004EC00D990B4402FB03F317934B46D1469A46C3
S214004ED0099B002B40F3E8800B9B12931F9A1999AD
S214004EE0511A21EAE1710846029118999142A8BF29
S214004EF0114603910021219AD318034408FB03F3BB
S214004F001493A8E0DFED318A9FED358A2AE7F1EEAB
S214004F10088A9FED338A25E7002336930E934DE7E4
S214004F2037A844E700233093369B042B03D02D4B41
S214004F30984731A855E72B4B98472A4B9847294B5B
S214004F409847284B9847274B9847264B9847254B1A
S214004F5098470EF1010E059B1F440136049B9E45A3
S214004F6044DA029B039A9342F3DAB9F1000FE8DBC6
S214004F70089B4B45E5DD002EE5DB079BB342E2DDF3
S214004F80BCF1000FE1DBD445DFDA069B3A46002988
S214004F90DDDB8845DBDD9DED2B7AD2ED007AB4EEC5
S214004FA0E77AF1EE10FA4CBF1046584600682B9090
S214004FB09C42CED0002BC8DB581C2A449A45C4DD40
S214004FC00346E4E7E190000088130800FFFF7F7FB8
S214004FD0FFFF7FFFFEFFFF1F29920000E13F010059
S214004FE000000000693201003D4C0000B9F1000FDE
S214004FF052DB119B4B454FDD0D9B002B4EDB109A71
S2140050009A424BDD0A9B002B4ADB0F9A9A4247DDF9
S214005010002947DB099B8B4244DD179B0A9A134401
S214005020099800FB0313169A02EB8303DDED2B7A37
S214005030F4EE487AF1EE10FA48BFF0EE487AF4EE55
S214005040687AF1EE10FAC8BFF0EE687AC3ED007A1F
S2140050500131814228D0CDED2B6A049B1846139A65
S2140050609042C3DD159B9B000593149B5F180E9B17
S21400507003EB870713460C9A9E184FEA88059E4650
S214005080129A029C204602EB040C631C13440693FF
S214005090039B0B9A9C1864E78E4B98478D4B98475A
S2140050A08C4B98478B4B98470A9B01330A931F9962
S2140050B0269A891A1F910B9911440B910F9A9342C5
S2140050C07FF406AF5346CA4699460D9B01330D93AF
S2140050D02099259A891A20910C9911440C91109ABE
S2140050E093427FF4CAAE0AF1010A119B9A457FF4F7
S2140050F0AEAE00201AE6032802D0092840F0E7806A
S21400510099F814102BAB00932AAB2A462046724C13
S214005110A047D9F80840D9F804301993D9F81030C8
S2140051201A93D9F80C301893BDF9B4301B93BDF917
S214005130B0301C932A9B0A932B9B0B93BB5D032BCF
S21400514000F0D280B8F1000F00F06E82D8F8087038
S21400515057F8046B4296052E40F36A825F4B9E42D8
S21400516094BFB0004FF0FF305D4B98474390B200BD
S21400517039465C4B9847D8F804301093002D00F061
S2140051805982AF6857F8046B3C96052E40F356825A
S214005190524B9E4294BFB0004FF0FF30504B9847A2
S2140051A03D90B20039464F4B98476B681D930A9B5B
S2140051B00B9A934200F344820A9B13F1800FC0F2CD
S2140051C041820B9B7F2B00F33F82429B042B40F0D7
S2140051D03D823C9B042B40F03B82439B09933D9AC7
S2140051E016929A4240F03682DDF818A1409B0C9346
S2140051F0534540F03182449B0893DDF814913E9A63
S21400520015923F9A1492169A002A40F30A824FF09B
S214005210000827942593CDF880900AFB09F307939E
S2140052200DF1A70B5346C2469846159B002B40F33C
S214005230C482089A1B995018219049420F91002168
S214005240119102FB0AF2239203FB0AF32493149AA9
S214005250002A40F3A482219B2599591A21EAE1717C
S21400526012911A989842A8BF18460490199B269344
S2140052701C9809EB00031F9343420E9300230D93E3
S214005280239B0F9803440B44209901FB03F32293BE
S214005290249B11990B4402FB03F31E930C9B002BDB
S2140052A040F36F820E9B13931F9A2099511A21EA9E
S2140052B0E171029118989042A8BF1046039000240E
S2140052C0229AD3180B4408FB03F3179336E2014BDC
S2140052D0984700BF69320100FD1D0000FEFFFF1F5A
S2140052E029920000E13F0100B8F1000F00F0C080F5
S2140052F0D8F8087057F8046B4E96052E40F3BC801D
S214005300874B9E4294BFB0004FF0FF30854B9847C6
S2140053104F90B2003946844B9847D8F80430119322
S214005320002D00F0AB80AF6857F8046B4896052E4A
S21400533040F3A8807A4B9E4294BFB0004FF0FF30F7
S214005340784B98474990B2003946774B98476B6838
S21400535016930A9B0B9A934200F396800A9B002BA7
S214005360C0F294800B9BFF2B00F392804E9B042B85
S21400537040F09080489B042B40F08E804F9B099312
S214005380499A14929A4240F08980DDF848A14C9BD5
S2140053901093534540F08480509B0893DDF8449169
S2140053A04A9A13924B9A1292149A002A40F3398121
S2140053B04FF0000826942793CDF884900AFB09F353
S2140053C007930DF1A70B5346C2469846139B002B36
S2140053D040F321811B9A089950181D9052420C9256
S2140053E000220F9201FB0AF2249203FB0AF3259394
S2140053F0129A002A40F301811D9B2799591A21EA27
S214005400E17115911A989842A8BF18460490199B06
S21400541022931C9809EB00031E9343420E9300232D
S2140054200D93249B0C9803440B44219901FB03F332
S2140054302393259B0F990B4402FB03F32093109BA9
S214005440002B40F3CC800E9B17931E9A2199511A7D
S21400545021EAE171039118989042A8BF1046029085
S2140054600024239AD3180B4408FB03F31F9390E001
S21400547000234E93119353E74FA84AE7002348931F
S214005480169366E749A85EE7284B9847274B984748
S214005490264B9847254B9847244B9847234B9847CD
S2140054A0224B9847214B9847204B98471F4B9847CD
S2140054B01E4B98470CF1010C079B9E440137049B3A
S2140054C0634535DD029B039A9342F3DDBAF1000F84
S2140054D0E8DB099B9A45E5DA002FE5DB089B9F424F
S2140054E0E2DA059B002BE1DB9945DFDD069B724681
S2140054F0002CDDDBA045DBDD9DF8A7001178884297
S214005500ACBF5946114609788DF8A710AB42D1D0EA
S214005510002BCBDB591C32444B45C7DA0B46E7E77A
S214005520FEFFFF1F29920000E13F010069320100E3
S2140055309DF8A7309DF828209A4201DD9DF8283076
S2140055408DF8A7300B99CAB29342C8BF1346BAF17A
S214005550000F3CDB149A924539DA0F9A002A38DBA2
S2140055601399914235DD0D9A002A34DB1299914247
S21400557031DD002C31DB109AA2422EDD209A0D99E7
S2140055800A441098169D00FB0252135501348442BB
S21400559025D000238DF8A730159A04998A4280F208
S2140055A0138146461F9B03EB040E119B9E44134635
S2140055B00C9A9F189C46179A134603990B4405931A
S2140055C04B1C13440693029B0E9A9D187AE7834B56
S2140055D09847824B9847814B9847804B98470D9B3E
S2140055E001330D931E99229A891A1E910E99114421
S2140055F00E91129A93427FF422AF0F9B01330F93C2
S2140056001D99269A891A1D910C9911440C91139A8A
S21400561093427FF4EDAE0AF1010A149B9A457FF49B
S214005620D5AE0020FFF782BB002342931093A5E57A
S21400563043A89CE500233C931D93B8E53DA8B0E540
S214005640664B9847654B9847644B9847634B98471B
S214005650624B9847614B9847604B98475F4B98471B
S2140056605E4B98475D4B98475C4B98470CF1010C96
S214005670079B9E440137049B63452FDD029B039ADC
S2140056809342F3DABAF1000FE8DB099B9A45E5DAB4
S214005690002FE5DB089B9F42E2DA059B002BE1DB4F
S2140056A04B45DFDA069B7246002CDDDB4445DBDA31
S2140056B09DF9A70092F900108842ACBF59461146E2
S2140056C091F900108DF8A710AB42CFD0002BC9DBA4
S2140056D0591C32449945C5DD0B46E5E79DF9A720E0
S2140056E09DF928309342B8BF13468DF8A7309DF930
S2140056F02C209342A8BF1346BAF1000F39DB169A46
S214005700924536DA119A002A35DB15998A4232DA42
S2140057100D9A002A31DB149991422EDD002C2EDBE7
S2140057200C9A94422BDA1E9A0D990A440C981D9DE9
S21400573000FB025213550134844222D080238DF898
S214005740A730129A04998A42C8DA4646179B03EB9A
S214005750040E109B9E440F998F189446029B139A32
S21400576099180591013313440693039B0E9A9D18CE
S21400577084E71A4B9847194B9847184B9847174B8E
S21400578098470D9B01330D931F99269A891A1F91EE
S2140057900E9911440E91149A93427FF47FAD119B9B
S2140057A0013311932199279A891A21910F9911444F
S2140057B00F91159A93427FF44AAD0AF1010A169B9F
S2140057C09A457FF432AD2CE79DF8A7309DF8282047
S2140057D09A423FF7B3AE8DF8A730B8E669320100BB
S2140057E010B5044620220021024B9847024BE36086
S2140057F0204610BDDD410100D54C000010B4846881
S2140058000B685A6804EB82124B685B6804EB8314DF
S2140058105168636899420AD0936943B1002351687E
S214005820C85C6168C854013391699942F7D8002072
S2140058305DF8044B704700002DE9F04F85B0064632
S2140058408568D1F800A0DAF804304FEA831C05EB2F
S2140058500C034A685468A40105EB040B9F68D7F84C
S21400586000E0BEF1000F23DD0437012200230020F4
S21400587057F8041B4FEAE17902FB09F801FB03889D
S214005880A2FB0123434401307045F1D1DBF80890B8
S214005890DAF80030012B0DD0D9F800E0BEF1000F89
S2140058A053DD09F1040000234FF0FF38012713E011
S2140058B00122EBE7D9F80070012FEDD1D9F80430BA
S2140058C0002B5DD0D9F800E0EBE7B8F1FF3F0BD135
