S015000054464C6974655F53414D4435312E73726563FD
S214000000D0B00220D5020000D1020000D1020000CC
S214000010D1020000D1020000D10200000000000062
S214000020000000000000000000000000D1020000F8
S214000030D102000000000000D1020000D102000042
S214000040D1020000D1020000D1020000D10200005F
S214000050D1020000D1020000D1020000D10200004F
S214000060D1020000D1020000D10200007509000094
S214000070D1020000D1020000D1020000D10200002F
S214000080D1020000D1020000D1020000D10200001F
S214000090D1020000D1020000D1020000D10200000F
S2140000A0D1020000D1020000D1020000D1020000FF
S2140000B0D1020000D1020000D1020000D1020000EF
S2140000C0D1020000D1020000D1020000D1020000DF
S2140000D0D1020000D1020000D1020000D1020000CF
S2140000E0D1020000D1020000000000000000000065
S2140000F000000000C5080000D1020000D102000088
S214000100D1020000D1020000D1020000D10200009E
S214000110D1020000D1020000D1020000D10200008E
S214000120D1020000D1020000D1020000D10200007E
S214000130D1020000D1020000D1020000D10200006E
S214000140D1020000D1020000D1020000D10200005E
S214000150D1020000D1020000D1020000D10200004E
S214000160D1020000D1020000D1020000D10200003E
S214000170D1020000D10200000000000000000000D4
S214000180D1020000D1020000D1020000D10200001E
S21400019000000000D1020000D1020000D1020000E1
S2140001A0D1020000D1020000D1020000D1020000FE
S2140001B0D1020000D1020000D1020000D1020000EE
S2140001C0D1020000D1020000D1020000D1020000DE
S2140001D0D1020000D1020000D1020000D1020000CE
S2140001E0D1020000D1020000D1020000D1020000BE
S2140001F0D1020000D1020000D1020000D1020000AE
S214000200D1020000D1020000D1020000D10200009D
S214000210D1020000D1020000D1020000D10200008D
S214000220D1020000D1020000D1020000D10200007D
S214000230D1020000D1020000D1020000D10200006D
S214000240D1020000D1020000D1020000D10200005D
S214000250D1020000D1020000D1020000D10200004D
S214000260D102000010B5054C237833B9044B13B106
S2140002700448AFF300800123237010BDD00900208E
S21400028000000000F8F003000C4B43B10C480D4989
S21400029010B5AFF300800C48036823B910BD0A48B8
S2140002A0036833B97047094B002BF7D0BDE8104000
S2140002B01847064B002BF5D0184700BF000000007B
S2140002C0F8F00300D4090020F8F003000000000056
S2140002D0FEE7000008B51C4B1C4A9A4210D01C4B87
S2140002E0194A9A420CD2013B9B1A23F003030433AB
S2140002F01344164951F8040B42F8040B9A42F9D1FC
S214000300144B154A9A420AD2013B9B1A23F0030368
S21400031004331344002142F8041B9342FBD10F4BD5
S2140003200F4A22F07F029A60D3F8882042F47002C7
S214000330C3F88820BFF34F8FBFF36F8F094B9847E2
S214000340094B9847FEE700BF00000020F8F00300C6
S214000350D0090020D0B00120D009002000ED00E038
S21400036000000000FD780100410C000070B50D464D
S2140003701646044660B1081C18BF01203422054901
S214000380054B98472368324629462046984770BD55
S2140003900020F3E770EB01005106000070B50D4633
S2140003A01646044660B1081C18BF01203D220549C8
S2140003B0054B98476368324629462046984770BDE5
S2140003C00020F3E770EB010051060000F8B5844604
S2140003D007682FB18D683C460026C2F1010E0BE07F
S2140003E00E4B9847F8BD7344A0680344AB420AD24C
S2140003F02368264653B11C4663689342F3D8A06828
S21400040003449B1AF2E7A74204D034462046044B26
S2140004109847F8BD6046014B9847F8BD790600003E
S214000420A50600002DE9F047446907690137076112
S214000430037E13F0010F13D1037E13F0020F0FD1CA
S21400044054B36368FB1AA268934207D3064600F1CA
S2140004501408DFF84890DFF848A012E0BDE8F087FF
S214000460037E43F002030376BDE8F0877569E36810
S2140004702046984785B12C466B68FB1AAA689342BB
S2140004800AD34046C847237C012BEFD167603A4623
S21400049021464046D047E9E7BDE8F087AD060000B4
S2140004A0CD03000038B50D46044678B1081C18BFC9
S2140004B001203B220649074B984729462046064B13
S2140004C0984700202061054B236038BD0020F0E7E8
S2140004D084EB010051060000090900002504000015
S2140004E02DE9F8430F469046044628B331B3101C56
S2140004F018BF0120F1221249124B98470834124DBA
S2140005002046A8470028FBD0013F0026DFF8409091
S2140005100D4D17F8011F2046C8472046A84700285B
S214000520FBD001364645F4D3084D2046A8470028A0
S214000530FBD03046BDE8F8830020DBE70020D9E793
S2140005409CEB010051060000CF0A0000D90A00000B
S214000550C10A00002DE9F8430F4690460446E0B174
S214000560E9B1101C18BF01204FF486720D490E4BDE
S2140005709847013F002608340C4DDFF8349020469B
S214000580A8470028FBD02046C84707F8010F0136C9
S2140005904645F4D33046BDE8F8830020E4E7002063
S2140005A0E2E700BF9CEB010051060000E30A0000F2
S2140005B0C70A000038B50D46044698B1081C18BF97
S2140005C0012034220849094B9847294604F10800BF
S2140005D0074B9847034618B9064A6260064A2260E7
S2140005E0184638BD0020ECE79CEB010051060000E1
S2140005F0810A000055050000E104000010B504461D
S21400060053220649003018BF0120054B984704F1D5
S2140006100800044B9847002010BD00BF9CEB01006B
S21400062051060000AD0A000038B50C46054648B134
S214000630081C18BF012069220349044B984725600F
S214000640002038BD0020F6E79CEB010051060000B4
S21400065000B900BE704703684BB18B4209D01B68D7
S2140006601BB19942FBD10120704700207047002043
S214000670704701207047000038B504460D46064B0B
S214000680984780F0010039220449C0B2044B9847CD
S21400069023682B60256038BD57060000B8EB0100C4
S2140006A05106000003680B600160704703680BB1D9
S2140006B01A6802601846704708B5034B1868034B63
S2140006C09847002008BD00BFF40900206D03000015
S2140006D0002070470346064A126822B1044A106892
S2140006E00344136070470349014A1160F6E700BFF0
S2140006F0EC090020D0B002204FF0FF3070474FF4D6
S21400070000534B6000207047012070470020704760
S21400071008B501460148024B9847FEE7D8EB0100B2
S214000720D183010070474FF0FF30704710B5094A7B
S21400073013889BB21380084B9847084B9847084B82
S21400074098470820074CA047074B984740F6F77095
S214000750A04710BD00400041B9070000D9070000BF
S214000760AD0700006D070000DD07000010F0010F68
S21400077008D00B4A0B4B1A62194643F6FD724B68BB
S2140007801342FCD110F0080F08D0074A054BDA6276
S214000790194643F6FD724B681342FCD1704700BF02
S2140007A006090100001C0040050901000122014B5A
S2140007B05A71704700080040064B42F28E029A8239
S2140007C000229A75DA75DA6902F47C52DA6101223F
S2140007D01A7470470014004070470000364A136AC7
S2140007E023F00F0343F004031362114643F6FD7231
S2140007F04B681342FCD1304A536813F0040FFBD108
S2140008002E4B00221A772E4A9A621A4692F82C30FD
S21400081013F0100FFAD10022284B83F820201A4636
S21400082092F82C3013F0040FFAD10222234B1A77D9
S2140008301A4692F82C3013F0020FFAD11F4B5A6A60
S2140008405A621A4692F82C3013F0080FFAD180221A
S2140008501A4B83F820201A4692F82C3013F0040F17
S214000860FAD1164B93F8203013F0010F1DD0134A1F
S214000870136903F41063B3F5106FF9D10E4A536889
S214000880002BFCD10C4A136A23F00F0343F0060337
S2140008901362114643F6FD724B681342FCD1064ABA
S2140008A0536813F0040FFBD17047044A136913F41E
S2140008B0807FFBD0E2E700BF001C00400010004035
S2140008C00000010400B583B00D4B9B78DBB20193AA
S2140008D0019B13F0020F06D00A4B1B681BB1084A97
S2140008E05068984709E0019B13F0010F05D0054BAF
S2140008F05B6813B1024A5068984703B05DF804FB82
S2140009000000024170B0012038B50C460546302282
S2140009101449003018BF0120134B9847EC600123A0
S214000920238048F2030223691342FCD1EB681A695C
S21400093012F0010FFBD148F280021A8048F2030140
S2140009401A690A42FCD1EA6820231362136913F07D
S214000950600FFBD1EB684FF480725A81034B1D6029
S214000960002038BDF4EB010051060000F00900201D
S2140009700020704710B5084B1C68E3689B8913F489
S214000980807F07D023680BB120469847E3684FF472
S21400099080729A8110BD00BFF009002070B489B043
S2140009A006466C460D4D0FCD0FC495E80F0084E843
S2140009B00F00009BB3420DD0314601AB012053F827
S2140009C0042B8A4207D001300828F8D1002009B04D
S2140009D070BC70470020C0B2F9E700BF0CEC010005
S2140009E010B50446214B9847042805D040F247220C
S2140009F01F4900201F4B9847E36913F0010F19D1D8
S214000A00E36913F0030FFBD1236813F0020F0BD03A
S214000A10236823F002032360E36913F0030FFBD17E
S214000A20E36913F0020FFBD105232360E36913F09B
S214000A30030FFBD1E36913F0010FFBD10E4B2360CC
S214000A40E36913F0030FFBD14FF440336360E369AF
S214000A5013F01F0FFBD1094BA3604FF22B63A3814A
S214000A600020A07384F8300010BD00BF9D09000070
S214000A7044EC010051060000040010400200700023
S214000A8038B50C460546BB220549003018BF012084
S214000A90044B98472C602046034B984738BD00BF50
S214000AA044EC010051060000E109000002681368EA
S214000AB043F002031360D36913F0030FFBD17047B2
S214000AC00368996270470368986AC0B27047036803
S214000AD0187E00F0010070470368187EC0F34000DF
S214000AE070470368187EC0F38000704708B5014B56
S214000AF0984708BD8D0B0000104B93F8C82002F0F5
S214000B00FE0242F0010283F8C82093F8B42002F0F7
S214000B10F00242F0030283F8B42093F8C92002F0F2
S214000B20FE0242F0010283F8C92093F8B42002F0D6
S214000B300F0242F0300283F8B42070470080004174
S214000B40064B4022C3F808214322C3F88C20044AEF
S214000B50136A43F001031362704700BF001C004095
S214000B600008004008B5054B984700224FF0864124
S214000B700348044B9847044B984708BD410B0000B8
S214000B809CB00120B5050000F90A000008B5124B1C
S214000B909847124B0222C3F89820C3F8882002F127
S214000BA08042C3F8A8204FF04042C3F8A82093F82C
S214000BB0C12002F0FE0283F8C120094A536943F4BB
S214000BC000735361074B9847024607490748084B8E
S214000BD09847084B984708BD2D0700000080004145
S214000BE000080040710900000024004080B0012089
S214000BF0A5040000650B000010B5044C044920460F
S214000C00044B98472046044B984710BD9CB00120E3
S214000C10F409002029060000FD05000010B5044672
S214000C20044B984782B22146034B1868034B9847FB
S214000C3010BD00BF41900100F40900206D030000C4
S214000C402DE9F047ADF5826D2F4B98472F4B98470F
S214000C502F48304B9847304B9847304E0025A946D2
S214000C604FF0010A0DF1060854462AE001332B2BFB
S214000C7008D010F9012F8A42F8DD8DF806301146AB
S214000C802746F3E7002F3BD1DDF8073002938DF8B7
S214000C900C508DF80D508DF80E5020238DF80F3027
S214000CA05246414630681E4FB847042202A93068B3
S214000CB0B847042203A93068B8470222194BC3F884
S214000CC09C204FF4806204A93068174B98470DF1BA
S214000CD00F0216490DF20F4012F8013F5B1001F8A3
S214000CE0013F8242F8D1124B98478DF80650802378
S214000CF08DF8073001384F466FF07F012B46B8E776
S214000D008DF80710C0E700BFED0A0000F90B0000E1
S214000D10E0A903001D0C0000390E0000F4090020B5
S214000D206D030000008000419D030000679B0120CA
S214000D30A9120000704708B503681B69984708BDEC
S214000D4008B503685B69984708BD202919D030B4F8
S214000D50D0F8A440BCB10D4683698B420CD0024645
S214000D6000230133A34209D020329169A942F8D169
S214000D7000EB4310043002E0043000E0002030BCFA
S214000D807047002070470020F9E7704738B5D0F864
S214000D90C450052D12D8BDB190F8A8308B420FD0A4
S214000DA000F1A902002301339D420BD012F8014B3B
S214000DB08C42F8D12C3350F8230038BD034B9847AB
S214000DC00023F7E7002038BD002038BD9D730100E2
S214000DD02DE9F843D0F8A460CEB189468046044693
S214000DE000250C4F03E001352034B5420CD0A36932
S214000DF0202BF8D14946E069B8470028F3D108EB24
S214000E0045100430BDE8F8830020BDE8F8830020D4
S214000E10BDE8F8836989010010B50446014B984780
S214000E20204610BDB9CC000010B50446014B9847CB
S214000E30204610BDB9CC0000F0B58DB0A24B1B7893
S214000E40BFF35B8F13F0010F00F099809E489F4B15
S214000E5043609F4B1968CA188260CB58D31A19880A
S214000E60042940F39B809B88002B00F09F80D2587B
S214000E70032A40F09480944B1B7BBFF35B8F13F0E8
S214000E80010F00F0958004A8924B98478E4803699E
S214000E901B69032110309847002800F0A4808A4B75
S214000EA0D3F8D80018B103228B498C4B984704A876
S214000EB08B4B9847844803691B6909211030984773
S214000EC0002800F0C080804BD3F8D80018B1092263
S214000ED08149824B984704A8824B98477A48036911
S214000EE01B69112110309847002800F0DC80764BF3
S214000EF0D3F8D80018B111227749784B984704A840
S214000F00794B9847704803691B691621103098473B
S214000F10002800F02B816C4BD3F8D80018B11622AD
S214000F206D496E4B984704A8704B9847664803690E
S214000F301B69192110309847002800F04781624B42
S214000F40D3F8D80018B119226349644B98475E4B12
S214000F5093F8DC30BFF35B8F13F0010F00F066816F
S214000F60634C04F69820C4F8180B624B984700218F
S214000F70D4F8180B604B9847C4F81C0B14E0524882
S214000F805E4B984700283FF461AF4F485C4B98474C
S214000F905C4A5D494D485D4B984757E7002203235E
S214000FA05B494A484D4CA0470DB0F0BD0022F6E71D
S214000FB05848524B984700283FF465AF424C564B72
S214000FC023610023C4F8B430C4F8D430C4F8D83051
S214000FD004F10C004A4B98474A4A504904F1100065
S214000FE04A4B98474FE7384BD3F8B460042E0AD9DB
S214000FF0D3F8D80000283FF45AAF05230322484907
S214001000364CA04753E7304F07EB461E0EF114044C
S21400101004AD0FCD0FC495E80F0084E80F0003223F
S214001020CEF828200136C7F8B460D7F8D430F918BF
S21400103081F8B82007EB83023A49C2F8C0100133A2
S214001040C7F8D43033E7204BD3F8B460042E0AD95F
S214001050D3F8D80000283FF43EAF052309223049D4
S2140010601E4CA04737E7184F07EB461E0EF1140438
S21400107004AD0FCD0FC495E80F0084E80F000922D9
S214001080CEF828200136C7F8B460D7F8D430F9185F
S21400109081F8B82007EB83022349C2F8C010013359
S2140010A0C7F8D43017E7084BD3F8B460042E3DD900
S2140010B0D3F8D80000283FF422AF052311221849A0
S2140010C0064CA0471BE700BF000A002004000020D3
S2140010D060EC01004537000068AA0300F912000022
S2140010E0114C0000F9600000C57700006D64000038
S2140010F04890012059910000AD930000C1CC00003B
S214001100F9CC000000000020350D0000ADCC00003A
S21400111020AA03000C0A002004AA03008B0D00007E
S214001120B8AA030091140000D1150000504F07EB39
S214001130461E0EF1140404AD0FCD0FC495E80F0043
S21400114084E80F001122CEF828200136C7F8B460D4
S214001150D7F8D430F91881F8B82007EB8302454950
S214001160C2F8C0100133C7F8D430C8E6404BD3F8F5
S214001170B460042E0AD9D3F8D80000283FF4D3AEC2
S214001180052316223C493D4CA047CCE6384F07EBDA
S214001190461E0EF1140404AD0FCD0FC495E80F00E3
S2140011A084E80F001622CEF828200136C7F8B4606F
S2140011B0D7F8D430F91881F8B82007EB8302304905
S2140011C0C2F8C0100133C7F8D430ACE6284BD3F8C9
S2140011D0B460042E0AD9D3F8D80000283FF4B7AE7E
S2140011E0052319222449254CA047B0E6204F07EBDB
S2140011F0461E0EF1140404AD0FCD0FC495E80F0083
S21400120084E80F001922CEF828200136C7F8B4600B
S214001210D7F8D430F91881F8B82007EB83021949BB
S214001220C2F8C0100133C7F8D43090E61648174B02
S214001230984700283FF494AE0D4C154D00230293BA
S214001240636801934FF4C833009304F1E00304F19C
S2140012501002A16828460F4EB04704F1DC000E4B82
S21400126098470E4A0E4928460E4B984778E600BF28
S214001270000A002005170000B8AA0300F9120000B3
S214001280451800000D190000DC0A0020C1CC000043
S214001290E09A012001910000F9CC00000000002037
S2140012A03F900000ADCC000008B50D4BD3F81C2BCA
S2140012B003F532615160D3F8180B0A4B984738B9DA
S2140012C00021074BD3F8180B074B9847406808BD1A
S2140012D000220649064B5868064B9847F0E700BFC1
S2140012E048900120A1920000F9930000FCAA030098
S2140012F0000A0020F91200000EB400B582B003AA5E
S21400130052F8041B019203689B68984702B05DF888
S21400131004EB03B070470CB400B583B004AA52F8CF
S214001320041B019203689B68984703B05DF804EBC2
S21400133002B07047013804280ED8DFE800F0030535
S21400134007090B00012070470220704703207047F2
S21400135004207047052070470020704720B1012800
S2140013600CBF0220002070470120704708B518B156
S21400137021B12AB133B108BD034B9847024B9847B9
S214001380014B9847004B98479D73010038B5C1B193
S2140013900D460C68B4EB900F1AD814B3043A002329
S2140013A051F8040F42F8040F01339C4217D0286806
S2140013B08342F5D30C4B0D4A40F201110C480D4CFC
S2140013C0A047049A0C4918460C4B9847012038BD94
S2140013D0049A0B491846094B9847012038BD00204F
S2140013E038BD002038BD00BF5CAC030018AB03005E
S2140013F068AC0300AD730100E8AB0300F91200000F
S21400140018AC030008B50A2833D8DFE800F00A064F
S214001410161A22262A122E1E0E000A230B700020F1
S21400142008BD01230B70002008BD0B230B700020A5
S21400143008BD07230B70002008BD02230B70002098
S21400144008BD03230B70002008BD09230B70002085
S21400145008BD04230B70002008BD05230B70002078
S21400146008BD06230B70002008BD08230B70002063
S21400147008BD134602460020087003491846034B71
S2140014809847012008BD00BFA8AC0300F912000071
S2140014902DE9F04182B004460F4615469846454E63
S2140014A0B0472B681B680422182128469847002856
S2140014B05AD006462368E31A1A880A2A4EDD598946
S2140014C000294BD0615C012948D10C2A46DD9B8956
S2140014D0E718002B42D0E5587C193FD07B59E31A19
S2140014E01A88042A4DDD9B88002B4CD0E056C0B2EB
S2140014F0314B984730707B59E31A1A88062A44DD28
S214001500DB88002B43D0E35873607B59E31A1A88B4
S214001510082A3EDD1B89002B3DD0E358B3607B597B
S214001520E31A1A880A2A38DD5B89002B37D0E05682
S214001530C0B2224B984730737B59E31A1A880C2A9C
S2140015402FDD9B897BB3E35833617B59E31A1A88F6
S2140015500E2A2ADDDB8953B3E3587361C8F80060AE
S214001560002002B0BDE8F081154B019340F2E9334C
S2140015700093144B144A39463846144CA0470120B1
S214001580EFE70020B3E70020B1E70023BCE7002325
S214001590BAE70023C2E70023C0E70020C8E7002020
S2140015A0C6E70123D0E70123CEE70123D5E70123D1
S2140015B0D3E700BF6D1300005D1300003513000075
S2140015C020AD0300CCAC030008AD030017130000E9
S2140015D02DE9F04782B00446894690469A46414D2A
S2140015E0A847D8F800301B680122042140469847D7
S2140015F0002854D005462368E31A1A880A2A69DDAB
S2140016005989002966D0615C082963D10C2A61DDFE
S2140016109B89E718002B5DD0E658BC195AD0BB59F9
S214001620E31A1A88042A47DD9B88002B46D0E0562A
S214001630C0B22D4B98472870BB59E31A1A88082A5F
S2140016403EDD1B89002B3DD0E35C003318BF012331
S214001650AB70BB59E31A1A880A2A35DD5B89002B62
S21400166034D0E35C003318BF0123EB70BB59E31A98
S2140016701A88062A2CDDDB8853B3E35643B3012BC6
S2140016802CD01A4948461A4B9847D8F800305B6861
S214001690294640469847012002B0BDE8F087154B22
S2140016A0019340F24F430093134B144A4946484671
S2140016B0134CA0470120EFE70020B9E70020B7E76A
S2140016C00023C2E70023C0E70023CBE70023C9E7D7
S2140016D000236B70CAF800500020DDE701236B7012
S2140016E0F8E700BF6D1300003513000034AD0300AB
S2140016F0F912000020AD0300CCAC030008AD0300D7
S214001700171300002DE9F04182B004460F46154637
S2140017109846454EB0472B681B6804222821284669
S214001720984700285BD006462368E31A1A880A2AD8
S2140017304FDD598900294CD0615C052949D10C2A16
S21400174047DD9B89E718002B43D0E5587C1940D02D
S2140017507B59E31A1A88042A4EDD9B88002B4DD04D
S214001760E056C0B2314B984730707B59E31A1A885E
S214001770062A45DDDB88002B44D0E35873607B598E
S214001780E31A1A88082A3FDD1B89002B3ED0E3584F
S214001790B3607B59E31A1A880A2A39DD5B89002B65
S2140017A038D0E358F3607B59E31A1A880C2A33DDE5
S2140017B09B89002B32D0E35833617B59E31A1A8891
S2140017C00E2A2DDDDB896BB3E056C0B2184B984766
S2140017D03075C8F80060002002B0BDE8F081154BF7
S2140017E0019340F246530093134B144A3946384649
S2140017F0134CA0470120EFE70020B2E70020B0E737
S2140018000023BBE70023B9E70023C1E70023BFE7B7
S2140018100023C7E70023C5E70023CDE70023CBE777
S2140018200020D2E70020D0E76D1300005D13000013
S2140018303513000020AD0300CCAC030008AD030058
S214001840171300002DE9F04782B005468846144677
S2140018501F46274EB04723681B68042224212046D3
S214001860984778B306462B68EB1A1A880A2A26DDAC
S214001870598921B3695C112921D10C2A1FDD9B8966
S214001880E918E3B1EB58CA1819D0CB58D31A1988FF
S214001890042914DD9B8802EB030A83B152F80390F7
S2140018A01AEB09010BD0134B009343460246202047
S2140018B0114DA847054690B95AF8093033623E6084
S2140018C0002012E00D4B01934FF4B46300930C4BD1
S2140018D00C4A414640460C4CA047012005E02368D0
S2140018E05B68314620469847284602B0BDE8F08738
S2140018F06D13000060AD03008D13000020AD0300E3
S214001900CCAC030008AD0300171300002DE9F0412E
S21400191082B00446884615461E461D4FB8472B68BB
S2140019201B68042211462846984700B302462368DF
S214001930E31A19880A2915DD588998B1205C092808
S21400194010D10C290EDD9B89E1185BB1E358C8184D
S21400195008D0CB58C31A1988042915DD9B88ABB16B
S214001960C35813603260002002B0BDE8F081094B16
S214001970019340F2FA530093074B084A414640460B
S214001980074CA0470120EFE70023EAE70023E8E73B
S2140019906D13000020AD0300CCAC030008AD0300BF
S2140019A0171300002DE9F0410E4617461D4600238A
S2140019B02B600368C31A1A88042A41DD9988002917
S2140019C03ED0445C082A1BDD1989E1B150F801803D
S2140019D07E2C1BDC202C3AD1062A2ADDDB88C11897
S2140019E03BB3C358C91824D033685B6842460431F9
S2140019F0304698472860B0FA80F04009BDE8F0818C
S214001A004FF00108E4E74FF00108E1E722461649E7
S214001A103846164B98470120BDE8F0814346144AE5
S214001A2052F8242013493846104CA0470120BDE840
S214001A30F081114938460D4B98470120BDE8F081EA
S214001A40082A01DD0024BFE74FF0010800243368B0
S214001A501B68424621463046984728600028DDD05D
S214001A600020BDE8F08100BFDCAF0300F9120000E3
S214001A70DCAD030030B0030068B0030090F82D30F2
S214001A8093B130B40378092B0CBF05690025446870
S214001A90836933B1234603F8015B1A1B81699142BF
S214001AA0F9D8002030BC7047002070470130800015
S214001AB0704700000B281DD8DFE800F01E060A0C51
S214001AC010161208140E181A0C4870470C48704767
S214001AD00C4870470C4870470C4870470C487047D5
S214001AE00C4870470C4870470C4870470C487047C5
S214001AF00C4870470C4870470C48704740B60300C7
S214001B0048B6030050B6030058B6030060B603009C
S214001B1068B6030070B6030078B6030084B6030008
S214001B208CB6030094B603009CB6030038B60300D8
S214001B302DE970438046894616461C46002200233F
S214001B401C4DA84720B1002333602360BDE8708396
S214001B50224640464946184B98470022174B184DD8
S214001B60A847184B9847184B98474FF00042002359
S214001B7082428B4113DB002908BFB0F1004F10D022
S214001B80B0F1004F71F1000311DA236813F11F0F53
S214001B9002DA0023236000203060BDE870830B4B20
S214001BA098472368013323604FF08040EDE7074BEA
S214001BB0984700BF91590100114D01000000E04117
S214001BC0C1540100754D0100496101009D7301007B
S214001BD02DE9F04106460F4690461C460022094B6A
S214001BE0094DA84750B12346424630463946074D70
S214001BF0A8472368002B03DBBDE8F081044B984719
S214001C00034B98470000F03FE1590100311B0000EC
S214001C109D730100000000002DE9F84F82468B46B8
S214001C2016461F460A98C0F11F00012303FA00F06B
S214001C30134B984780468946124C32463B465046E0
S214001C405946A04702460B4640464946A04704462A
S214001C500D4609A3D3E900230B4EB04738B92046FA
S214001C6029460C9B0B9A094CA047BDE8F88F02A1A9
S214001C70D1E90001F5E700BF0000C0FFFFFFDF412C
S214001C80F5530100C1540100E1590100D11B0000C9
S214001C902DE9F843814688461546012404FA00F0EB
S214001CA00138194B984706460F46A5EB0900A0F1E8
S214001CB02001C0F1200304FA01F124FA03F3134DC6
S214001CC004FA00F01943A84702460B463046394648
S214001CD00F4EB04706460F46A8F12001C8F1200374
S214001CE004FA01F124FA03F304FA08F01943A847AA
S214001CF002460B4630463946064CA047064B9847E8
S214001D00064B9847BDE8F883F5530100655401007B
S214001D10C154010015570100F94B0100F5590100A7
S214001D202DE9F04182B0804608461D46D168C0685D
S214001D30134B98470446134B984706460F46002118
S214001D402046114B984778B1E8680E4B98470246F4
S214001D500B46304639460D4CA047089BC3E90001A8
S214001D60002002B0BDE8F081094B0093D8F814407B
S214001D70A723084A08494046A0470120F1E700BFCC
S214001D80415D010019540100A560010015570100CE
S214001D90DCB60300ACB6030008AD0300000000008C
S214001DA02DE9F04782B082460D4617461C46224E65
S214001DB0C868B04780468946F868B04702460B4672
S214001DC0404649461D4EB047E4B1804689461A4E05
S214001DD0E068B04702460B4640464946184CA047C6
S214001DE0804621F000440A9BD868B04702460B465E
S214001DF040462146134CA0470DA3D3E90023124CBE
S214001E00A04750B10B9B00930A9B3A462946504682
S214001E100E4CA04702B0BDE8F0870D4B0093DAF8F1
S214001E2014409A230B4A0C495046A0470120F1E77C
S214001E307B14AE47E17A943F19540100C154010067
S214001E405951010015570100B9590100211D000024
S214001E50F8B60300ACB6030008AD03002DE9F04F5A
S214001E6083B01D461378032B1FD0092B20D0072BD9
S214001E7012D147F6FF76364FD2F80C801469012946
S214001E801AD0032929D0022944D02F600C9B1E604B
S214001E90002003B0BDE8F08F2E4B00934469DA2390
S214001EA02D4A2E49A0470120F3E7FF260027E3E747
S214001EB07F266FF07F07DFE741460020284B9847D4
S214001EC0284B9847284B98472044B842B8BF384616
S214001ED028600C9B1E600020DBE7DFF884B04146DC
S214001EE00020D847DFF87CA0D047DFF87C90C847B2
S214001EF02044B842B8BF3846286041461B48D847F9
S214001F00D047C8472044B042A8BF30460C9B186054
S214001F100020BEE7DFF848B041461548D847DFF84E
S214001F2044A0D047DFF84090C8472044B842B8BF26
S214001F303846286041464FF07E50D847D047C847BD
S214001F402044B042A8BF30460C9B18600020A0E793
S214001F500080FFFF1CB70300ACB6030008AD03000B
S214001F60A95E0100154E0100CD6001000000C040D2
S214001F70000080BF2DE9F04F91B00590099391F8CD
S214001F803030012B40F084808B46914692F83030FA
S214001F90012B40F08D80536B002B00F098801A6860
S214001FA00892002A00F09D80089AD2F800A0BAF1A4
S214001FB0010F18DD0A78092A02D0072A40F09B8014
S214001FC099F80020092A40F0A080229A924540F015
S214001FD0AB80D9F808209B6802EB83025368229AEC
S214001FE09A4240F0B080DBF80C3006931A9BDB6810
S214001FF00793089B04331A46229B002B3CDD209F48
S214002000043F219E043E00246B4D0497CDF828B073
S214002010CDF82C9091469B46BAF1010FCEBF59F8E9
S2140020202400089B5868A847074688460698A8478D
S21400203002460B4638464146604FB8470746884634
S2140020400798A84702460B46384641465C4FB847B5
S2140020500EAB0DAADFF8A881C0470D9B049A42F884
S214002060043F04920E9B46F8043F0134A345D3D1A7
S214002070DDF828B0DDF82C909BF80030032B70D0EC
S214002080092B00F08F80072B00F08C8000200CE0DE
S2140020900124039402934B4B01934B4B00934569E9
S2140020A036234A4A4A49A847204611B0BDE8F08F71
S2140020B0012403940293434B0193464B00930598E7
S2140020C045693823414A4249A8472046EDE7424B36
S2140020D000930598446942233C4A4049A0470120A2
S2140020E0E3E73F4B0093059844694323374A3B494F
S2140020F0A0470120D9E73B4B009305984469482345
S214002100324A3649A0470120CFE7092303930292BB
S214002110354B0193354B00930598446949232B4A68
S2140021202B49A0470120C0E70392CDF808A0304B0A
S2140021300193304B0093059844694A23234A244967
S214002140A0470120B1E7039302922B4B0193284B43
S2140021500093059844694D231C4A1D49A047012059
S214002160A3E710AB0020002163E9020101931A9B4C
S2140021700093099B4A4659460598204CA0470028DC
S21400218093D10DAB1C9ADDE90E011D4CA0470D9BAB
S2140021905B421D9A13609BF80030092B02D0032B7C
S2140021A07FF471AF1B9B19781F9B00931E9B1A9A96
S2140021B00598144CA04778E719540100C154010053
S2140021C01557010040B703005CB70300ACB6030028
S2140021D024B7030078B7030094B7030008AD0300E4
S2140021E0A8B70300C4B7030000B803000CB8030088
S2140021F01CB803002CB8030050B80300A11D000053
S214002200311B00005D1E000000B583B0836B01AA81
S21400221004219847019803B05DF804FB2DE9F047C8
S2140022208AB0189E0C682468023C012C13D84C68AF
S2140022302568012D18D00124039402955C4B019368
S2140022405C4B0093456952235B4A5C49A84720468D
S2140022500AB0BDE8F0875A4B009344695123564AAA
S2140022605849A0470120F3E792F800C0D2F808903A
S214002270D2F804E05469139F7D1E176907FB05F723
S21400228007F1010ABCF1010F11D0BCF1020F50D0CA
S214002290149D013D04FB05F404F10108BCF1010F97
S2140022A05CD0BCF1020F5BD000252C4610E00EEB94
S2140022B00305013D95FBFEF5149F07F1FF3804FB6F
S2140022C008F404F10108129C4C44013C94FBF9F418
S2140022D0013C09FB0484129FE41B24EAE474013DDC
S2140022E00EFB05A5EB1A23EAE37303EBD3756D101B
S2140022F0356004EBD4756D10756003F00103B360B0
S21400230004F00104F4609DF85C30012B4DD0856824
S2140023100B685C6805EB841E9C6805EB84141F68DC
S214002320022F21DDDB68B3F1FF3F1BD005EB8313E3
S2140023301BE00EEB0305A5EB0A0595FBFEF5149FC7
S21400234007F1FF3804FB08F404F10108129C09EBBE
S214002350040CACEB080C9CFBF9F4B9E70025B2E7DB
S2140023600025F3E7002300E00023A7687F680897AE
S21400237006F58367079706F11807069706F61C0703
S214002380059706F61807049706F114070397103604
S21400239002960C3201924A68526805EB8215009547
S2140023A022467146084CA04752E7002050E700BF7F
S2140023B008BF0300DCB9030080B9030024B703009C
S2140023C0B8B9030008AD0300751F00002DE9F04FF3
S2140023D0ADF6DC0D09900C464B690A9385680B68D0
S2140023E05A684FEA821BD3F808A04B685E6805EB74
S2140023F08613089315EB0B0900F09680D9F8088031
S214002400D8F800702897052F40F39180894B9F429B
S21400241094BFB8004FF0FF30874B98472990BA001A
S21400242008F10401854B9847089B002B00F081803B
S214002430089BD3F80880D8F800702297052F7ADD1D
S2140024407C4B9F4294BFB8004FF0FF307A4B9847C2
S2140024502390BA0008F10401784B9847289F002F74
S2140024606BDD052FC6BF299B1A68299ADDF8888080
S214002470B8F1000F63DDB8F1050F239BC8BF1B68DA
S21400248093425ED11E93D9F808108A681F92C968D5
S2140024900B912091032F56DD052FC6BF2999C968D9
S2140024A02C992191B8F1030F4FDD05EB8A1AB8F18C
S2140024B0050F4CDCDDF898E0CDF868E0DAF80800A7
S2140024C0D0F808C0CDF86CC0C0681C901D9116935B
S2140024D0089B9B6899681791DB681893CDF864E0B1
S2140024E0D4F810A00DF1B80ECDF818E015F80BE0F2
S2140024F0CDF814E004910393CDF808C00190009243
S2140025000B9B0A9A214609984D4EB04700284ED09C
S2140025100446052F03DD299808B14A4B9847204604
S2140025200DF6DC0DBDE8F08F002328937CE729A884
S21400253075E7229392E723A88BE7434B9847424BD5
S2140025409847414B9847404B98473F4B9847DDF894
S2140025508CE0DEF80C001A90DAF80800D0F808C014
S214002560CDF86CC0C0681C901D911693089B9B68A4
S21400257099681791DB681893DEF80C601996D4F802
S21400258010A00DF1B80ECDF818E015F80BE0CDF858
S21400259014E004910393CDF808C0019000920B9BC1
S2140025A00A9A21460998264EB04700283FD115F8CA
S2140025B00B30092B07D0C4F810A04FF0FF33CAF831
S2140025C00030002428E0D9F810305B420C93089BBA
S2140025D01B690D930A998B680F934B680E934B6992
S2140025E013930B6912932F9B11932E9B1093DDF878
S2140025F0D0381493DDF8D438159316AB1AAA1EA952
S2140026000CA8124DA847C4F810A0011ED5DD0998E5
S214002610036C524698470446B8F1050F7FF779AF2A
S214002620239800283FF475AF064B984771E7044699
S214002630F6E700BFFEFFFF1F6DCD00002181010001
S2140026401D220000BDCC00009D730100659E0000A9
S2140026502DE9F04FD7B0609DDDF88491DDF888A1B4
S214002660659C29690891D9F810100991216925916E
S2140026701968009159680191D2F804B091680291E6
S21400268011690391526904921A6913925F69D3F82B
S21400269018281792D3F81C381893002D00F05F8185
S2140026A0D5F8088058F8046B3896052E40F35B8101
S2140026B0B04B9E4294BFB0004FF0FF30AE4B9847F1
S2140026C03990B2004146AD4B98476B680C93B9F110
S2140026D0000F00F04A81D9F8086056F8045B3E9572
S2140026E0052D40F34D81A34B9D4294BFA8004FF0AB
S2140026F0FF30A14B98473F90AA0031469F4B984722
S214002700D9F804302693BAF1000F00F03B81DAF8CE
S214002710086056F8045B4495052D40F33781954BC9
S2140027209D4294BFA8004FF0FF30934B98474590CA
S214002730AA003146914B9847DAF804301A93002CD9
S21400274000F02681A66856F8045B4A95052D40F3EE
S2140027502381884B9D4294BFA8004FF0FF30864BE4
S21400276098474B90AA003146844B98476368069377
S214002770639B002B00F01281639B9D682C6850942D
S214002780052C40F30D817B4B9C4294BFA0004FF07C
S214002790FF30794B98475190A200291D774B9847F8
S2140027A00FFA8BF30D93BDF90850BDF90CE0BDF997
S2140027B01060BDF90040BDF90480179B189A93423B
S2140027C000F3F080389B042B40F0EE803E9B042BF9
S2140027D040F0EC804A9B042B40F0EA80399B0A9339
S2140027E04B9A1E929A4240F0E5803C9B0793DDF898
S2140027F00891994540F0E0803F9B0B934E9A1292C9
S2140028009A4240F0DB801A9BABB1449A052ACCBFB3
S214002810459945A9002A40F3D3800B4601EB820177
S214002820012253F8040B00FB02F29942F9D1129BE5
S2140028309A4240F0C780DDF8E8B0DDF8ECC0409B77
S2140028400593DDF804A14C9914914D9B1A462293EA
S2140028501E98002840F3F88179420029D4BF3846F4
S2140028600020249001238340581E3290401033905D
S21400287012982F9017461346149A03FB02F300FB98
S21400288003F03090069820900CFB0BF3079800FBA3
S21400289003F22E92C8F10008CDF8C48063422C9350
S2140028A008FB0CF31B1B0C9C00FB03441D94129BA3
S2140028B01A4602FB07F42B942A95024600FB0CF3FB
S2140028C003FB05F036900D9C2894104602FB04F49A
S2140028D02994CDF81090059A0AFB02F209FB02F241
S2140028E02D9209FB0AF21192109603FB06F30F9342
S2140028F0CDF808E000FB0EF3039300230693139B2A
S2140029001C46DD17CDE9344521EAE1733793149B65
S214002910002B40F38A81319B23931D9B1993209BA8
S2140029201F9300231C935B46D346E2469C46229B9D
S214002930002B40F363812C9B0E93199B16931F9BD1
S214002940159300231B93E046129B002B40F3428115
S214002950269B2193159B27934FF0000C06E100233E
S21400296038930C93B3E639A8ABE600233E93269340
S214002970C9E600BFFEFFFF1F6DCD000021810100EC
S2140029803FA8B9E6002344931A93D8E645A8CFE6B5
S21400299000234A930693EBE64BA8E3E65093FFE644
S2140029A051A8F9E6854B9847844B9847834B984740
S2140029B0824B9847814B9847804B98477F4B984768
S2140029C0012234E77D4B98477C4B98477B4B9847D2
S2140029D07A4B9847794B9847784B9847774B984768
S2140029E001334B4530D0002AFADB5245F8DA00298D
S2140029F0F6DB4145F4DA069C002CE5DB0A9DA54291
S214002A00E2DD002BE2DB079C9C42DFDDF45CBCF1E0
S214002A10000FDDDB0B9FBC45DADABEF1000FD9DB19
S214002A20059F7745D6DD0028D6DB8345D4DD99455E
S214002A30D4DD009FFD5C099FED1B089FE41B019FF2
S214002A4004FB05740194CBE7009F0130029B1A44F7
S214002A50049B1F44039B1E44584505D0B9F1000F44
S214002A60F3DD00230097BEE70EF1010E0D9B119AD1
S214002A7013440D930C9B0F9A13440C93109B19440C
S214002A80059B9E4509D0BBF1000FEDDD0C9E0D9F0A
S214002A900E9A0020E2E7002301931A9B23B153F815
S214002AA02C30019A1A440192019A379B9A40139B44
S214002AB0934267D0D517359B02FB03F1139800FBB2
S214002AC00511A2FB00230B44002A73F10001C0F29B
S214002AD0CD8012F1804243F1000310461946002AC9
S214002AE073F10004C0F2D780C30F43EA4103249A6F
S214002AF0002A4DDB249A1F2A51DC339A02EBD3714D
S214002B00329A1A40249803419142B8BF0133259A5D
S214002B101344179A9342B8BF1346189A9342A8BF15
S214002B201346069A002A41DB1E9991423EDD1C9A06
S214002B30002A3DDB14998A423ADA1B9A002A39DBCE
S214002B4022998A4236DABCF1000F35DB129A944598
S214002B5032DA279A02F8013B27920CF1010C219BEE
S214002B602D9A13442193129B9C4533D0059B002B32
S214002B7091DD2399169B0C93219B0D9300230193C3
S214002B809E4680E7B3F1004F94D16FF00043AEE766
S214002B900B4B0C4A4FF4B3710B480C4CA0470C4B34
S214002BA0084A40F267110848084CA047034B98476C
S214002BB0024B9847014B9847004B98479D7301007E
S214002BC0F0B9030004B9030000BA0300AD730100B6
S214002BD034BA03001B9B01331B93159A2F990A44A2
S214002BE01592169A29990A4416920E9A28990A441A
S214002BF00E92229A93427FF4A7AEC4461C9B0133E2
S214002C001C931F9A2B990A441F92199A36990A44C4
S214002C101992239A2A990A442392149A93427FF48B
S214002C2086AE6346D446DA469B46069B0133069339
S214002C30209A30990A4420921D9A2E990A441D9291
S214002C401E9A93427FF463AE509B052B03DD51988A
S214002C5008B1144B9847449B052B03DD459808B1F3
S214002C60104B9847002057B0BDE8F08F0E484FF045
S214002C70FF318018594102460B46002871F10004C6
S214002C8003DBC30F43EA410331E76FF00040002146
S214002C9080185941F5E76FF000400021801859412F
S214002CA022E700BFBDCC0000010000C02DE9F04FB8
S214002CB0BFB080468946489C499E4A9F4B9D2169E5
S214002CC04942349129693591916837915168369116
S214002CD051693B9112693A925A6839921A68389249
S214002CE0D3F818283C92D3F81C283D9203F118021A
S214002CF0329203F583633393002E00F00081D6F8FA
S214002D0008B0DBF800A0CDF8B0A0BAF1050F40F38C
S214002D10F980924B9A4594BF4FEA8A004FF0FF30F5
S214002D208F4B98472D904FEA8A020BF104018D4B8A
S214002D309847002C00F0E880D4F808B0DBF800A034
S214002D40CDF898A0BAF1050F40F3E180834B9A4581
S214002D5094BF4FEA8A004FF0FF30814B9847279088
S214002D604FEA8A020BF104017E4B9847002D00F0D3
S214002D70D080D5F808B0DBF800A0CDF880A0BAF176
S214002D80050F40F3C980754B9A4594BF4FEA8A00F9
S214002D904FF0FF30724B984721904FEA8A020BF1B2
S214002DA00401704B9847002F00F0B880D7F808B0A1
S214002DB0DBF800A0CDF868A0BAF1050F40F3B180AB
S214002DC0664B9A4594BF4FEA8A004FF0FF30644B3B
S214002DD098471B904FEA8A020BF10401614B984713
S214002DE03D9B3C9A9A4200F39E80269B042B40F023
S214002DF09C802C9B042B40F09A80209B042B40F058
S214002E009880DDF884C0279B9C4540F09480DDF8D0
S214002E10C0A02A9B9A4540F09080DDF890E02D9B5C
S214002E209E4540F08C80AFB17B689BB11A9A052A0C
S214002E30CCBF1B981BA8002A40F38380034600EBF8
S214002E408200012253F8041B01FB02F29842F9D1DA
S214002E50964578D1CDF858C0289B1793299B189390
S214002E60CDF864A0CDF848E02E9B13932F9B1493C7
S214002E70CDF854A001230E930F931093CDF844E0A1
S214002E80CDF828C0229B0B93239B0C93CDF834E0FF
S214002E90002308930993D9F810301968002904DB39
S214002EA0D8F84430404698470890002C4DD06268C9
S214002EB0002E4CD07168002F4BD07868002D4AD079
S214002EC06B6806930AAB059304900EAB03930291CE
S214002ED012AB0193009216AB32AA34A908A8224C72
S214002EE0A047041C18BF01241A9B052B03DD1B9862
S214002EF008B11E4B984720463FB0BDE8F08F002330
S214002F002C9316E72DA80EE7002326932EE727A876
S214002F1026E70023209346E721A83EE700231A93DE
S214002F205EE71BA856E7124B9847114B9847104B85
S214002F3098470F4B98470E4B98470D4B98470C4BAE
S214002F409847012284E70A4B98470022B0E7002101
S214002F50B1E70020B2E70023B3E700BFFEFFFF1F84
S214002F606DCD000021810100B19D0000BDCC0000A8
S214002F709D7301002DE9F04FD1B05A9C117B0129B9
S214002F8000F06A81032900F06C81022900F06E814E
S214002F90AD4916916FF400011591D3F800B05B6847
S214002FA00193D2F804809568D2F81090D2F814A055
S214002FB0002C00F06181A76857F8046B3296052E46
S214002FC040F35E81A14B9E4294BFB0004FF0FF30AD
S214002FD09F4B98473390B20039469E4B984763689C
S214002FE003935B9B002B00F04D815B9B9F6857F81B
S214002FF0046B3896052E40F34881944B9E4294BF4E
S214003000B0004FF0FF30924B98473990B2003946E7
S214003010904B98475B9B5B6825935C9B002B00F06E
S21400302036815C9B9F6857F8046B3E96052E40F3EE
S2140030303181864B9E4294BFB0004FF0FF30844BE8
S21400304098473F90B2003946824B98475C9B5B6836
S21400305017935F9B002B00F01F815F9B9F6857F8BC
S214003060046B4496052E40F31A81784B9E4294BF1B
S214003070B0004FF0FF30764B98474590B200394687
S214003080744B98475F9B5F685D9B002B00F009813F
S2140030905D9B9E6834684A94052C40F304816B4B14
S2140030A09C4294BFA0004FF0FF30694B98474B906E
S2140030B0A200311D674B98470FFA88F82DB20FFA19
S2140030C089F90FFA8AFE0FFA8BF6BDF90440329B97
S2140030D0042B40F0EA80389B042B40F0E880449BA9
S2140030E0042B40F0E680339B0C93459A1E929A423E
S2140030F040F0E180369B0B93DDF8F0B09B4540F046
S214003100DC80399B0D93489A14929A4240F0D780FF
S214003110179BABB13E9A052ACCBF3F993FA9002A20
S21400312040F3CF800B4601EB8201012253F8040BDB
S21400313000FB02F28B42F9D1149B9A4240F0C38006
S214003140349B0193DDF8D4A03A9A08923B9B19462B
S2140031500293469802462390479B21931E98002888
S21400316040F3B981184603FB02F39B00149A02FB56
S21400317003FCCDF8B8C01A97019B0AFB03F39B002B
S2140031800B9A174602FB03F32A9363421C462B93C3
S21400319073422893930004FB0AF2921B039E03FBE0
S2140031A0026620960246149C02FB04F290002C90C5
S2140031B0299507FB0AF2920002FB05F02D90A0006D
S2140031C02F90CDF8C08008FB03F031900846089C8D
S2140031D001FB04F189000BFB01F1279100FB0BF1C9
S2140031E089001391CDF844E002FB0EF212924FEAEA
S2140031F08B020692CDF8149009FB03F30493002388
S2140032000A93239B002B40F357812B9B1993209BFB
S2140032101D931A9B189300231C93219B002B40F3AD
S2140032203881289B10931D9B2493189B2293002380
S2140032301B93149B002B40F31981259B1F93229B05
S214003240269300230993EAE0FFFF7F7FFEFFFF1F20
S2140032506DCD0000218101007C4916910021159159
S2140032609BE67B4916910021159196E64FF07E511C
S21400327016917849159190E6002332930393B0E6B1
S21400328033A8A8E638932593C7E639A8BEE63E934A
S2140032901793DEE63FA8D5E600274497F4E645A850
S2140032A0ECE64A9308E74BA802E76B4B98476A4B55
S2140032B09847694B9847684B9847674B9847664BC3
S2140032C09847012238E7644B9847634B9847624B10
S2140032D09847614B9847604B98475F4B98475E4BC3
S2140032E0984701345C4532D0002DFADB5545F8DAB4
S2140032F0002EF6DB019B9E42F3DA0A9B002BE4DBF2
S2140033000C9A9342E1DA002CE1DB0B9BA342DEDD54
S21400331058F82400099A002ADBDB0D998A42D8DA8D
S214003320079A002AD7DB08998A42D4DA002FD4DB22
S214003330029ABA42D1DDA345D1DD59F82410474B95
S214003340984701460398464B98470390C9E70137CC
S214003350059B1D44069B9944049B9844029B9F42F0
S21400336004D0BBF1000FF2DD0024BDE7079B01335C
S21400337007930F9A13990A440F920E9A12990A44C9
S2140033800E92119A1644089A93420BD0029B002B79
S214003390ECDDDDF83880DDF83C90109D0027E0E796
S2140033A000230393179B002B46D0099A53F822005C
S2140033B00A9B002B42DB1E9A93423FDA1C9B002B93
S2140033C03EDB239A93423BDA1B9B002B3ADB219A87
S2140033D0934237DA099B002B36DB149A9A4233DD88
S2140033E003991F4B98470446159D29461D4B984741
S2140033F000B12C46169D294620461B4B984700B127
S2140034002C46269B43F8044B2693099B01330993CD
S2140034101F9A27990A441F92149A934226D0089B13
S214003420002BBDDD199E249B0E931F9B0F9300233C
S214003430079300230393A9E70020B9E7064B9847B4
S214003440054B9847044B9847034B9847FFFF7F7FF1
S2140034500000C040000080BF9D730100415D010078
S214003460315B01007D600100B96001001B9B0133E8
S2140034701B93229A2F990A442292249A31990A443D
S2140034802492109A30990A441092219A93427FF41B
S214003490D0AE1C9B01331C93189A2C990A441892A0
S2140034A01D9A2D990A441D92199A29990A4419922F
S2140034B0239A93427FF4B1AE0A9B01330A931A9A79
S2140034C02E990A441A92209A2A990A4420921E9A01
S2140034D093427FF496AE4A9B052B03DD4B9808B1CA
S2140034E0064B98473E9B052B03DD3F9808B1034BE0
S2140034F09847002051B0BDE8F08F00BFBDCC00005B
S2140035002DE9F04FADF64C0D80460F4684680B68EB
S2140035105D68AD0104EB050A9E6804EB861208920E
S2140035201A68022A09DDDB68B3F1FF3F02D004EB1C
S214003530831B04E04FF0000B01E04FF0000B0898EF
S2140035408168625D092A37D07B691E4609937B68CD
S2140035505B6804EB8319DAF80800D9F808E0C3685A
S2140035600DF1280CCDF818C00592DEF8082004925C
S214003570DEF80C2003928A680292CA68019282687A
S21400358000923246394640465D4EB04700284DD13F
S214003590605D032800F0A180092800F08D800128D6
S2140035A078D0D8F81460574B9847635D0246564962
S2140035B04046B047012039E090F83030012B25D145
S2140035C0089B5B6B002B35D0186800283ED0D3F8DC
S2140035D004E0BEF1000F45D00368012B02D0486816
S2140035E083424BD1DEF800008342ADD003900293B5
S2140035F0464B0193464B0093D8F8144040F297137D
S214003600444A45494046A04701200FE00124039460
S2140036100293424B0193424B0093D8F814504FF458
S214003620C5733C4A3C494046A84720460DF64C0D1B
S214003630BDE8F08F3B4B0093D8F8144040F28F1350
S214003640344A39494046A0470120EFE7374B0093FC
S214003650D8F814404FF4C8732E4A33494046A04762
S2140036600120E3E7324B0093D8F8144040F2911360
S214003670284A2D494046A0470120D7E72D4B009306
S214003680D8F8144040F29513224A27494046A047EE
S2140036900120CBE7CDF81490002304930393CDF8D4
S2140036A008B0089B0193CDF800A00AAB099A3946EA
S2140036B04046214CA047B9E700230493CDF80C9070
S2140036C0CDF808B0089B0193CDF800A00AAB099A84
S2140036D039464046194CA047A8E7CDF81490002379
S2140036E004930393CDF808B0089B0193CDF800A08F
S2140036F00AAB099A39464046114CA04796E700BFE8
S2140037001D220000B51A000008BB0300E0BA030043
S2140037102CB8030080B9030024B7030040B70300A9
S21400372078B7030094B7030008AD0300A8B70300FA
S21400373044BA030064BA0300752F0000AD2C0000E5
S2140037405126000070B406460446054D0FCD0FC442
S21400375095E80F0084E80F00304670BC704700BF45
S21400376060B9030000B583B0836B63B102AA002181
S21400377042F8041D18219847012814BF019800201C
S21400378003B05DF804FB014B984700BF9D73010032
S2140037902DE9F04F97B0D1F81080B8F1000F16D091
S2140037A00646D1F814C0BCF1000F12D084680B682E
S2140037B05D68AD0104EB050E1A68022A0EDDDF68AF
S2140037C0B7F1FF3F07D004EB8712059208E0744B71
S2140037D09847734B98470022059201E00022059215
S2140037E04A6852684FEA821A04EB0A09605D14F8C8
S2140037F00A2082420CD19B689B0104EB030AE35C1F
S21400380083421CD07369674930469847012013E00D
S2140038107769654DA847804614F80A00A8470390C4
S214003820CDF80880614B0193614B00936423614A95
S21400383061493046B847012017B0BDE8F08F9CF8C4
S21400384000B04FF0FF33C8F81430012826D016A970
S2140038500022002361E906230191CDF80090059B24
S214003860524671463046554FB8470028E4D10AAB59
S2140038704246DDE91001524FB8470A9B5B42C8F842
S214003880043008F10C03009308F108034A46594631
S2140038903046DFF844B1D8470028CDD1635D092B08
S2140038A001D00020C8E7059B002B74D05B68002B76
S2140038B073D0BAF1000F51D0DAF808502C680A9489
S2140038C0052C4EDD3F4B9C4294BFA0004FF0FF30CE
S2140038D03D4B98470B90A200291D3C4B9847B9F1E9
S2140038E0000F42D0D9F808502C681094052C3ADD09
S2140038F0344B9C4294BFA0004FF0FF30324B9847A9
S2140039001190A200291D314B9847109B022B2CD1F9
S2140039100A9D6B1E2BD4AB422BDA052D2BDC16AA88
S21400392002EB830353F82C3C06930123079308937A
S214003930129B099306A8264B9847011E1FDD336C81
S21400394008F11402304698470446E0B1052D03DD21
S2140039500B9808B11F4B984720466DE700230A9343
S214003960BDE70BA8B7E711A8CBE70D4B98470C4B64
S21400397098470B4B98470B9A52F82330D4E74FF0F2
S214003980FF33C8F81430052D03DD0B9808B1114B32
S2140039909847002050E700204EE700204CE700BF85
S2140039A09D73010018BC0300B51A0000FCBB0300A1
S2140039B00CBC0300A0BB0300E0BB0300A11D00007D
S2140039C0311B0000FEFFFF1F6DCD000021810100AE
S2140039D06DA60000BDCC00005D1E00002DE9F04F76
S2140039E0DFB0089014461D46DDF8A491DDF8A8B1B6
S2140039F0B9F1000F00F02081D9F80430002B00F058
S214003A001B81BBF1000F00F0E780DBF808703E6812
S214003A103496052E40F3DE807D4B9E4294BFB00068
S214003A204FF0FF307B4B98473590B200391D7A4BEC
S214003A309847349B022B40F0CF80689B002B00F009
S214003A40CF80359FDDF8D880D3F808A0DAF800607C
S214003A503A96052E40F3C2806D4B9E4294BFB0004E
S214003A604FF0FF306B4B98473B90B2000AF10401D1
S214003A70694B98473A9E731E00F1B280B34280F2BB
S214003A80B180052E00F3B0805EAA02EB830353F8E4
S214003A908C3C0993002D00F0AE80AB680A93D3F8F7
S214003AA000A0CDF800A1BAF1050F40F3A280584B54
S214003AB09A4594BF4FEA8A004FF0FF30554B98471F
S214003AC041904FEA8A020A990431534B9847409B2B
S214003AD0022B40F09080419B9F4240F08E802B69E5
S214003AE05B422F93689B1B695B423093DBF8103078
S214003AF03193A3683293E368339323681B93636818
S214003B005B421C931F97012320932193429A229293
S214003B10099A239224932593CDF898802793289387
S214003B202993CDF8A8802B972C932D93CDF8B880A9
S214003B3000231D931E936169994203DB0898436C2A
S214003B4098471D90DBF8043006932BAB0593D9F805
S214003B500430049327AB0393689B5B68029323AB04
S214003B6001936B6800931FAB1BAA2FA91DA82B4CB3
S214003B70A047002843D0089F7C69DBF804300693F2
S214003B802BAB0593D9F80430049327AB0393689BBB
S214003B905B68029323AB01936B6800931FAB1BAA71
S214003BA02FA91DA81D4DA8470023039302901C4B68
S214003BB001931C4B0093C9231B4A1C493846A04757
S214003BC0052E03DD3B9808B1194B984701205FB0DE
S214003BD0BDE8F08F35A828E7164B98473BA844E782
S214003BE0144B9847134B98473B9A52F82330099347
S214003BF050E741A865E70F4B98470E4B9847052EB0
S214003C0003DD3B9808B10A4B98470020DFE700BF6A
S214003C10FEFFFF1F6DCD000021810100FDA5000005
S214003C208CBC0300A0BC0300A0BB030024B70300A9
S214003C30BDCC00009D7301002F69689B1E69DBF8F0
S214003C4010300E93D4F800A063680893A3680C9312
S214003C50E3680D93002D00F0BD80D5F8088058F875
S214003C60044B4694052C40F3B9809E4B9C4294BF6F
S214003C70A0004FF0FF309C4B98474790A20041466B
S214003C809A4B9847D5F80480689B002B00F0A880D4
S214003C90689B9D6855F8044B4C94052C40F3A38014
S214003CA0904B9C4294BFA0004FF0FF308E4B98473D
S214003CB04D90A20029468D4B9847689B5B681793EA
S214003CC0B9F1000F00F09180D9F8085055F8044B70
S214003CD05294052C40F38D80824B9C4294BFA000EA
S214003CE04FF0FF30804B98475390A20029467F4BF9
S214003CF09847D9F804300A93BBF1000F7BD0DBF865
S214003D00085055F8044B5894052C7BDD754B9C42A7
S214003D1094BFA0004FF0FF30734B98475990A20015
S214003D202946724B9847DBF804104C9B1993012BDD
S214003D3066DD589B022B67D10C9B0D9A934265DC7F
S214003D40599B18935A9B1693199B9A1E60D4199BDD
S214003D5093425FDD199B052B5EDC5EAB03EB8202B4
S214003D6052F8443C169A93425ADB199B5A1E59D471
S214003D70199B934258DD199B052B57DC5EAB03EB72
S214003D80820252F8443C0B93189B002B40F383802E
S214003D90089A5342002BD4BF96464FF0000E0122DD
S214003DA002FA0EF2013A109252101192169A1492DA
S214003DB001EB020C0B9A0992CDF820800022159296
S214003DC023EAE3730F935346DC17CDE91234E1463A
S214003DD0F44653E000234693984655E747A84DE738
S214003DE04C9317936CE74DA863E7002352930A930E
S214003DF082E753A879E7002358934C9B012B03DCFA
S214003E003B4B984759A88AE7394B9847384B984711
S214003E10374B9847364B98474D9B53F82230A1E7CF
S214003E20334B9847324B9847314B98474D9B53F846
S214003E3022300B93A8E70022A6E0BAF1004F40F02C
S214003E40AC806FF000436CE02A4B2B4A4FF4B37102
S214003E502A482B4CA0472B4B274A40F2671127488D
S214003E60274CA047159B01331593149A9144089A42
S214003E7009990A440892189A93420CD0169B002B74
S214003E80F0DD149BA9EB030E0A98DDF85C80089B16
S214003E90099A991867E0529B052B03DD539808B1E1
S214003EA0194B9847199B052B03DD4D9808B1164B07
S214003EB09847469B052B03DD479808B1124B984759
S214003EC0002084E6114C4FF0FF35A4185D412246D1
S214003ED02B46002C75F1000B1ADBE30F43EA450373
S214003EE01FE000BFFEFFFF1F6DCD00002181010017
S214003EF09D730100F0B9030024BB030000BA030061
S214003F00AD73010034BA0300BDCC0000010000C050
S214003F106FF000440025A4185D41DEE7E30F43EA96
S214003F204503BCF1000F8FDBBCF11F0F93DC119A29
S214003F3002EBD374109A1A4043FA0CF39442B8BFBB
S214003F4001330E9A13440C9A9342B8BF13460D9A47
S214003F509342A8BF13460EF8013B0430099B9844D1
S214003F60F1453FF47FAF0B9B002B7FF764AFC34652
S214003F70089D002215F9014B1BF9013B9B1BE41B16
S214003F8004FB03228D42F5D10A9B0BB103681A4449
S214003F900F9B9A4092453FF450AFD517139B02FBF8
S214003FA003F40AFB0544A2FB0A232344002A73F108
S214003FB0000487DB12F1804243F1000314461D46DD
S214003FC0002A73F1000BA9DA6FF000440025A4184C
S214003FD05D41A3E72DE9F04FA9B01C46329D339F03
S214003FE0349E012A00F0D580032A00F0D780022AEA
S214003FF000F0D980884B05936FF400030493002CDF
S21400400000F0D780D4F8089059F8048BCDF840809B
S214004010B8F1050F40F3CF80804B984594BF4FEA28
S21400402088004FF0FF307E4B984711904FEA880289
S21400403049467C4B98476468002D00F0BE80D5F852
S214004040089059F8048BCDF85880B8F1050F40F366
S214004050B880724B984594BF4FEA88004FF0FF3007
S2140040606F4B984717904FEA880249466D4B984722
S2140040706B680C93002F00F0A680D7F8088058F8DD
S214004080045B1C95052D40F3A280644B9D4294BFB3
S214004090A8004FF0FF30624B98471D90AA0041469B
S2140040A0604B98477B680393002E00F09480B768B7
S2140040B057F8045B2295052D40F38B80574B9D42A5
S2140040C094BFA8004FF0FF30554B98472390AA00A6
S2140040D03946544B98477568229B0F93169A0E9252
S2140040E0591E78D48B4276DD0F9B052BCCBF2398C8
S2140040F023A80F9A002A70DD01231F4600233E46A0
S2140041009646994214BF50F82320324602FB07F722
S21400411001339E45F5D10B970E9B023B60D40E9A59
S2140041209A425FDD0E9A052A5EDC28AA02EB83031C
S21400413053F8443C0F9A052A5ADC28AA02EB810160
S21400414051F8142C0A920A9A9A4256D10E9B013BB9
S21400415055D40E9A9A4254DD0E9A052A53DC28AAA4
S21400416002EB830353F8443C06930B9B002B40F36F
S214004170B4800A9B9B000D930895069A92000192C4
S2140041800294039AD318079300230993264D274FCA
S21400419095E0214B05930023049330E7244B0593C9
S2140041A0002304932BE74FF07E530593214B049393
S2140041B025E7109440E711A838E7002316930C93E0
S2140041C058E717A84FE700231C9303936CE71DA836
S2140041D064E723A87BE7184B984701230B939BE7DC
S2140041E0154B9847144B9847179A52F82330A1E777
S2140041F0239A52F821200A92A5E70F4B98470E4BB8
S21400420098470D4B9847179A52F823300693ACE719
S21400421000262FE0002132E0FFFF7F7FFEFFFF1F1A
S2140042206DCD000021810100415D0100315B010080
S2140042300000C040000080BF9D730100009B43F853
S214004240044B00930AF1040A019B9B44079B5345C9
S21400425027D0069B002BDBDDD846029C002658F8AC
S214004260041B54F8040BA84701463046B8470646D8
S2140042704C45F4D1039B002BCCD0DAF80010304626
S214004280B8470446049E3146244B984700B134464E
S214004290059E31462046224B98470028CED034460D
S2140042A0CCE7099B01330993089A0D990A440892B2
S2140042B0029A01990A4402920B9A93420DD00A9BE5
S2140042C0002BEEDDDDF80CA0DDF830B0029B019A85
S2140042D003EB0209089B0093BBE70F9B052B03DD4E
S2140042E0239808B10F4B98471C9B052B03DD1D98A0
S2140042F008B10C4B98470E9B052B03DD179808B1A9
S214004300084B9847109B052B03DD119808B1054B09
S2140043109847002029B0BDE8F08F00BF7D600100FF
S214004320B9600100BDCC00002DE9F04FCBB0D1F84C
S21400433014E0BEF1000F14D0074684680B685A6874
S2140043404FEA821A04EB0A089E6804EB86161A687F
S214004350022A0BDDDB68B3F1FF3F04D004EB831BBE
S21400436006E0AF4B98474FF0000B01E04FF0000B14
S2140043704B685D68AB01069304EB03090A6992B1CA
S21400438014F80A00032828D009281CD001280CD0CD
S2140043907D69A44B984714F80A300246A24938466D
S2140043A0A84701200CE09E4B98479EF80020CDF8C9
S2140043B00890CDF804B00096434638469B4CA0477C
S2140043C04BB0BDE8F08FCDF80890CDF804B000965D
S2140043D043463846964CA047F2E7D8F81050D6F831
S2140043E010A0D9F8103009931368079353680B93FD
S2140043F05B420C9393680493D3680593069BE05C3A
S21400440003280DD0072800F097817E69854B9847D2
S214004410069BE35C024684493846B0470120CFE756
S214004420B8F1000F00F0E480D8F8087057F8044B95
S2140044304494052C40F3DF807E4B9C4294BFA00042
S2140044404FF0FF307C4B98474590A20039467B4B97
S2140044509847D8F80470002E00F0CF80D6F8088071
S21400446058F8044B3E94052C40F3CB80714B9C428D
S21400447094BFA0004FF0FF306F4B98473F90A200CC
S21400448041466E4B984773681593BBF1000F00F0DA
S214004490BA80DBF8086056F8044B3894052C40F3D5
S2140044A0B680644B9C4294BFA0004FF0FF30624B36
S2140044B098473990A2003146604B9847DBF80430A5
S2140044C00893B9F1000F00F0A480D9F8086056F8F8
S2140044D0044B3294052C40F3B380564B9C4294BF59
S2140044E0A0004FF0FF30544B98473390A20031465F
S2140044F0524B9847D9F804603E9B1693012B40F325
S2140045008D803299002940F39D80049B059A934242
S21400451000F39A804A1E00F19980914240F39680FB
S2140045200529CCBF339833A80123149300242346CF
S21400453001249446A646634514BF50F8232022461D
S21400454002FB0EFE01339942F5D117936246CDF871
S21400455050E0169B991E7BD4169B8B427ADD169BE9
S214004560052B79DC4AAB03EB810151F82C1C179B19
S214004570052B75DC4AAB03EB820252F85C3C1393C6
S214004580139B8B4271D1169B5A1E70D4169B934276
S2140045906FDD169B052B6EDC4AAB03EB820252F8EE
S2140045A02C3C0A93149B002B40F39A800C9A002A0A
S2140045B00B9CC8BF00240123A340013B0C935B1057
S2140045C01093139B129306EB030CDDF828900697C6
S2140045D00023119322EAE2730B93079A1046D11731
S2140045E0CDE90E01A646CDF81C90E14694466AE059
S2140045F0002744972FE745A827E700233E93159307
S21400460043E73FA83BE700233893089359E739A8C8
S21400461050E7002332933E9B012B13DC004B984758
S2140046209D730100B51A000008BB0300D53F0000CB
S214004630DD390000FEFFFF1F6DCD00002181010067
S21400464033A853E7354B9847344B9847334B984736
S214004650324B9847314B98473F9B53F8211086E7DB
S214004660339B53F8223013938AE72C4B98472B4BF7
S21400467098472A4B98473F9B53F822300A9391E776
S21400468000221AE2B2F1004F40F020826FF00043A1
S214004690DDE1234B234A4FF4B3712348234CA04754
S2140046A0234B204A40F267111F48204CA047119B1D
S2140046B001331193129A9144069A07990A44069276
S2140046C0149A93420CD0139B002BF0DD129BA9EB9F
S2140046D00300089CDDF85480069B079A9918DAE1D7
S2140046E0179B052B03DD339808B1124B9847389B70
S2140046F0052B03DD399808B10E4B9847169B052B02
S21400470003DD3F9808B10B4B9847449B052B03DD10
S214004710459808B1074B9847002051E69D73010065
S214004720F0B9030024BB030000BA0300AD73010018
S21400473034BA0300BDCC0000B8F1000F00F0E680EC
S214004740D8F8087057F8044B2C94052C40F3E180F9
S214004750A54B9C4294BFA0004FF0FF30A34B984758
S2140047602D90A2003946A24B9847D8F80470002E28
S21400477000F0D180D6F8088058F8044B2694052C13
S21400478040F3CD80984B9C4294BFA0004FF0FF3082
S214004790964B98472790A2004146954B98477368DA
S2140047A01493BBF1000F00F0BC80DBF8086056F8ED
S2140047B0044B2094052C40F3B8808B4B9C4294BF4E
S2140047C0A0004FF0FF30894B98472190A200314659
S2140047D0874B9847DBF804301593B9F1000F00F0CB
S2140047E0A680D9F8086056F8044B1A94052C40F3B6
S2140047F0A1807D4B9C4294BFA0004FF0FF307B4BC6
S21400480098471B90A2003146794B9847D9F8044048
S214004810049B059A934200F38F80099B002B40F07F
S2140048208D801A9B1993269A1892591E00F188803B
S2140048308B4240F38580199B052BCCBF1B981BA889
S214004840199A002A7EDD012312930023012694463E
S214004850B6468B4214BF50F82320324602FB0EFEAB
S21400486001339C45F5D1CDF848E0189B9A1E6CD4D0
S214004870189B93426BDD189B052B6ADC4AAB03EB57
S214004880820252F88C2C199B052B66DC4AAB03EB94
S214004890810151F8BC3C1393139B934262D1189B41
S2140048A05A1E61D4189B934260DD189B052B5FDC73
S2140048B04AAB03EB820252F88C3C0893129B002B07
S2140048C040F3A4800C9A002A0B9BC8BF00239C468A
S2140048D0012303FA0CF3013B0A935B100B93139B23
S2140048E05B0011931094089B1946069700230E93BD
S2140048F022EAE2730993079A1646D717CDE90C67A2
S2140049001695CDF85CA015468A4658E000272C97E9
S2140049102DE72DA825E700232693149341E727A823
S21400492039E700232093159357E721A84EE7002484
S2140049301A946DE71BA865E72E4B98472D4B9847B2
S2140049402C4B9847012312938FE72A4B9847294B05
S2140049509847279B53F8222095E71B9B53F8213056
S214004960139399E7234B9847224B9847214B984738
S214004970279B53F822300893A0E7B5F1004F40F08C
S21400498026816FF00043EBE01B4B1C4A4FF4B371DB
S2140049901B481C4CA0471C4B184A40F2671118488D
S2140049A0184CA0470E9B01330E93109A11990A4497
S2140049B01092069A52440692129A9A4226D0139B56
S2140049C0002BEFDD159BA3F10408DDF85090119A3B
S2140049D0109B1A4407929E46069B03EB0A04179BFD
S2140049E05842169B5942DCE0FEFFFF1F6DCD0000CB
S2140049F0218101009D730100F0B9030024BB030070
S214004A0000BA0300AD73010034BA0300199B052BEE
S214004A1003DD1B9808B17C4B9847209B052B03DDD4
S214004A20219808B1784B9847189B052B03DD2798EB
S214004A3008B1754B98472C9B052B03DD2D9808B1C4
S214004A40714B98470020BBE4F30F43EA4703BEF1DF
S214004A50000FFFF61EAEBEF11F0F3FF721AE109AF5
S214004A6002EBD3760C9A1A4043FA0EF39642B8BF7E
S214004A700133099A1344049A9342B8BF1346059A21
S214004A809342A8BF134600F8013B0434079B9844A2
S214004A9048453FF40CAE0A9B002B7FF7F1ADC346AA
S214004AA0069F002217F8016B1BF8013BA3EB0A03D5
S214004AB0761B06FB0322B942F4D1089B0BB1236890
S214004AC01A440B9B9A4094453FF4DCADD7170F9BD6
S214004AD002FB03F60CFB0766A2FB0C233344002AFA
S214004AE073F1000624DB12F1804243F10003164600
S214004AF01F46002A73F1000BA6DA6FF00046002767
S214004B00B6185F41A0E7414E4FF0FF37B6185F4139
S214004B1032463B46002E77F1000B03DBF30F43EAE9
S214004B2047031DE06FF000460027B6185F41F5E723
S214004B30364E4FF0FF37B6185F4132463B46002EE2
S214004B4077F1000B03DBF30F43EA47037FE76FF0D1
S214004B5000460027B6185F41F5E7F30F43EA470320
S214004B60BCF1000FFFF610AFBCF11F0F3FF713AFFD
S214004B700B9A02EBD3760A9A1A4043FA0CF3964243
S214004B80B8BF0133049A9342B8BF1346059A9342BE
S214004B90A8BF13462EF8023BD144079B73453FF44B
S214004BA001AF58F8042F089B002B0BDDCB46069F61
S214004BB017F8016B1BF8013B03440E4416FB032257
S214004BC0BC42F5D1099B9A4095423FF4D6AED71722
S214004BD00D9B02FB03F605FB0766A2FB0523334489
S214004BE0002A73F100068EDB12F1804243F10003C7
S214004BF016461F46002A73F1000BAEDA6FF0004629
S214004C000027B6185F41A8E7BDCC0000010000C031
S214004C1070B406460446054D0FCD0FC495E80F0048
S214004C2084E80F00304670BC704700BF80BB0300AE
S214004C3000B583B0836B63B102AA002142F8041D5D
S214004C401C219847012814BF0198002003B05DF886
S214004C5004FB014B984700BF9D7301002DE9F04708
S214004C6082B00A9F9468D4F80890D4F80CE0D1F883
S214004C7008804C68D1F810A0D1F80CC00D78012D32
S214004C8008D0022D44D0012D4FD0022D4FD0002544
S214004C902E4609E00EEB0405013D95FBF4F508EB06
S214004CA00906013E96FBF8F6013E08FB06A6A6EBB3
S214004CB0090626EAE676013D04FB05C4A4EB0E04CD
S214004CC024EAE47404EBD4756D103D6006EBD675EB
S214004CD06D107D6004F00104BC6006F00106FE6005
S214004CE01278012A0DD01A46097D07F118030093A1
S214004CF007F11403104CA04738B97A69BB699A4289
S214004D0017DC4FF0FF333B61002002B0BDE8F087B0
S214004D100EEB0405A5EB0C0595FBF4F508EB090670
S214004D20A6EB0A0696FBF8F6BEE70025B7E70025D1
S214004D30F4E7024B984700BF5D1E00009D7301001C
S214004D4030B583B00C6984B14D6985B182684B6813
S214004D505B6809684968009402EB831302EB8112D2
S214004D602946044CA04703B030BD034B9847024B7E
S214004D70984700BF5D4C00009D7301002DE9F04789
S214004D808EB0D1F81080B8F1000F1DD007464869E4
S214004D90E0B1BE680B685C68A40106EB04094B68CA
S214004DA05D6806EB8515CDF800802B464A46014621
S214004DB03846DFF8D0A0D04718B9335D092B07D0A6
S214004DC000200EB0BDE8F087294B9847284B98473F
S214004DD0B9F1000F3ED0D9F8086034680294052C6B
S214004DE036DD244B9C4294BFA0004FF0FF30224B90
S214004DF098470390A200311D204B9847029B042B36
S214004E0028D1002D2AD0AD682C680894052C23DD07
S214004E10184B9C4294BFA0004FF0FF30164B9847AB
S214004E200990A200291D154B9847089B042B15D105
S214004E300C99069B994213D10B98114B9847011E6B
S214004E4010DD3B6C08F110023846984770B1B8E7A1
S214004E5003A8CFE7064B984709A8E2E7044B984714
S214004E60034B98474FF0FF33C8F810300020A8E7F0
S214004E709D730100FEFFFF1F6DCD00002181010024
S214004E8019BA00005D4C00002DE9F04FF1B08046E5
S214004E904F690E6982680B685B689B01D518496884
S214004EA04C6802EB8414D05C032800F017820928B3
S214004EB000F0148201280BD0D8F81440954B984780
S214004EC0024695494046A047012071B0BDE8F08FE4
S214004ED03B7D012B00F0F180032B00F0F380022BCA
S214004EE000F0F5808D4B1E936FF400031D93BB6896
S214004EF026937B6827933B692893FB682393736804
S214004F00299333682A93002D00F0E780AF6857F89E
S214004F10046B5E96052E40F3E480814B9E4294BF60
S214004F20B0004FF0FF307F4B98475F90B200394695
S214004F307D4B98476B682B93002C00F0D480A668B6
S214004F4056F8045B5895052D40F3D480744B9D426B
S214004F5094BFA8004FF0FF30724B98475990AA00B4
S214004F603146714B984762685E9B042B40F0C080C8
S214004F70589B042B40F0C0805F9B129359991A915E
S214004F80994240F0BB80DDF888A15C9B14935345A2
S214004F9040F0B680609B1D461193DDF884915A9BC5
S214004FA0184619935B9B18931A99002940F394812D
S214004FB0194603FB00F39B00149C04FB03F3369393
S214004FC0309225950B4603FB04F39B003493A30015
S214004FD03793CDF890900AFB09F39B000F934FEAA6
S214004FE08A0B00232F930D9300231F934F465B4697
S214004FF0D3469A46199B002B40F35F81269B33933A
S214005000BDF9A430259A9A182E925B421793309BCE
S214005010319300232193DFF82091D046DA46BB4631
S214005020189B002B40F334812E99259A8B1A23EA7D
S214005030E3731A461C93289B18468842A8BF084666
S2140050400C90279B3593BDF9A8302499C8182C904E
S2140050505B4216932292179B2F980344134401FB3E
S21400506003F33293319B2D93002320935E46D34661
S214005070C246149B002B40F3F680169B19461B93E2
S2140050802C9C2498221A22EAE27210460B92239A4B
S2140050901546A542A8BF25460A95329CE318024647
S2140050A003442B980AFB030313932D9B15934FF091
S2140050B00008531C0B441093B6E0184B1E930023B5
S2140050C01D9314E7194B1E9300231D930FE74FF013
S2140050D07E531E93164B1D9309E700235E932B9376
S2140050E02AE75FA822E7002358935E9B042B03D091
S2140050F0104B984759A832E70E4B98470D4B9847E8
S2140051000C4B98470B4B98470A4B9847094B9847C8
S214005110084B9847B51A0000C8BD0300FFFF7F7F05
S214005120FEFFFF1F6DCD0000218101000000C04082
S214005130000080BF9D730100315B0100099B0133B5
S2140051400993079A0F990A440792089A013208921F
S2140051500C9A934232DA0A9B0B9A9342EEDD0D9B31
S214005160002BCFDB129A9A42CCDD089B002BCBDBC0
S214005170119A9A42C8DD0E9B002BC7DB9E42C5DD06
S214005180109C079DB8F1000FC2DBC345C0DD29683F
S2140051900598C84705904FF07E510698C847069078
S2140051A0A742CBD0002CB1DB631C5544A642ADDD34
S2140051B01C46E7E7002306931F9B05930699059870
S2140051C08B4B984704460D9B002B44DB1A9A9A4259
S2140051D041DD219B002B40DB199A9A423DDD209B46
S2140051E0002B3CDB189A9A4239DDB8F1000F38DB09
S2140051F0149B434535DD1D9D29467E4B984700B1DF
S2140052002C461E9D294620467B4B984700B12C46CF
S214005210159B43F8044B159308F10108139B0433C0
S2140052201393149B98451ED01C9A0C998A42C1DA97
S214005230179B22990B440893139B0793099200230C
S21400524006931F9B05931B9B0B9A13440E930A9B76
S214005250169A9F187FE7694B9847684B9847674BA5
S2140052609847664B9847209B013320932D9A379991
S2140052700A442D922C99359A891A2C911699114424
S2140052801691189A93427FF4F4AED046DA46B346A7
S214005290219B01332193319A34990A4431922E99F5
S2140052A0339A891A2E91179911441791199A934295
S2140052B07FF4B6AE5F46D346C2460D9B01330D93D0
S2140052C0309A36990A4430922F9A25990A442F929A
S2140052D01A9A93427FF48EAE0020F6E5032800F07B
S2140052E09780092840F08280002D00F04282D5F891
S2140052F008A0DAF80090CDF81891B9F1050F40F340
S21400530036823F4B994594BF4FEA89004FF0FF30F5
S2140053103C4B984747904FEA89020AF104013A4B02
S2140053209847469B042B40F02482002C00F02582F0
S214005330D4F808A0DAF80090CDF83091B9F1050F4E
S21400534040F319822E4B994594BF4FEA89004FF0DF
S214005350FF302C4B98474D904FEA89020AF1040122
S214005360294B98474C9B042B40F00782509A4A9B47
S2140053709A4240F0048201233A9348993B91499916
S2140053803C913D923E934E993F914F994091419268
S214005390BA6853927A6852927268559232685492FA
S2140053A072695692B269579242933A694392FA6882
S2140053B0449245930023389339933169994204DB2C
S2140053C0D8F844304046984738906B686268029236
S2140053D03EAA019242AA00923AAA52A938A80B4CB9
S2140053E0A047002840F0CD8100206EE5034B98478B
S2140053F0A95E01007D600100B96001009D73010097
S214005400FEFFFF1F6DCD0000218101004DB800009A
S214005410BB6805937B6806933B692593FB682693D8
S2140054207368079333680B9373691A93B3691B9376
S214005430002D00F0CD80AF6857F8046B6A96052EF5
S21400544040F3CA80A84B9E4294BFB0004FF0FF3096
S214005450A64B98476B90B2003946A54B98476B68A9
S2140054601193002C00F0BA80A66856F8045B649589
S214005470052D40F3B6809C4B9D4294BFA8004FF08C
S214005480FF309A4B98476590AA003146984B98474C
S21400549062681A9B1B998B4200F3A5806A9B042BBB
S2140054A040F0A380649B042B40F0A1806B9B0A9382
S2140054B065991491994240F09C80DDF8B891689BFC
S2140054C00D934B4540F097806C9B1D460993DDF885
S2140054D0B4A1669B1C461393679B129314990029EC
S2140054E082DD0D982790194603FB04F300FB03F3B7
S2140054F0299320921F950B4603FB00F32493C8467E
S214005500CDF88CA009FB0AF3089300231C939B4656
S214005510059B2A93BDF91C302B93069B2C93BDF953
S2140055202C302D93139B002B40F312811F9A2B9B3C
S2140055301A441E925B420E93209B199300231093ED
S214005540129B002B40F3F2801E9A1F99531A23EAEF
S214005550E373169325999142A8BF114605912D9A9B
S214005560239950182290524218921A4617930E9B6F
S2140055701C980344134401FB03F32893199B1D93C3
S21400558000230F930D9B002B40F3BE80189E3346DE
S21400559022982399411A21EAE17211460692269A28
S2140055A014468442A8BF04462546079432462898E7
S2140055B002440A4408FB02F221921D9A1592002426
S2140055C00A4671180B910132AE19D3180C937AE083
S2140055D000236A93119344E76BA83CE70022649289
S2140055E057E765A850E7434B9847424B9847414BCF
S2140055F09847404B98473F4B98473E4B98473D4B04
S21400560098473C4B98473B4B98470CF1010C089B3E
S2140056109E440137059B634528DD069B079A934207
S214005620F3DABBF1000FE8DB0A9B9B45E5DA002FB7
S214005630E5DB099BBB42E2DD0B9B002BE1DB9A45D9
S214005640DFDD0C9B7246002CDDDB4C45DBDA157883
S21400565029440130B342D8D0002BD2DB5D1C424433
S2140056609A45CEDD2B46EEE70021084600EBD073C8
S21400567001EB630393FBF0F31A9A9342B8BF134609
S2140056801B9A9342A8BF1346BBF1000F34DB149A53
S214005690934531DA109A002A30DB13998A422DDAC4
S2140056A00F9A002A2CDB12998A4229DA002C29DB71
S2140056B00D9A944226DA159A02F8013B15920134A7
S2140056C00D9B9C4220D0169A05998A42CCDA219BE3
S2140056D004EB030E119B9E44179B0E995F1894468D
S2140056E00021084699E700BFFEFFFF1F6DCD0000B2
S2140056F0218101009D730100234B9847224B984758
S214005700214B9847204B98470F9B01330F931D9AC8
S21400571027990A441D9222992C9A891A229118993F
S21400572011441891129A93427FF42CAF109B0133C8
S2140057301093199A24990A4419921E992A9A891A3A
S2140057401E910E9911440E91139A93427FF4F8AE6F
S2140057500BF1010B209B299A134420931C9B1F9A44
S21400576013441C93149B9B457FF4DCAE3CE647A891
S214005770D1E5054B98474DA8EEE5034B9847024BFD
S2140057809847014B984700BF9D7301002DE9F04FE5
S214005790E9B005464C69D1F8108082680B685B68F2
S2140057A09B01D71849684E6802EB8616D05C032822
S2140057B000F0EB81092800F0A58301280AD06C6967
S2140057C0A34B98470246A3492846A047012069B044
S2140057D0BDE8F08F237D012B00F0CF80032B00F077
S2140057E0D180022B00F0D3809B4B1D936FF40003F7
S2140057F01C93A36824936368259323692693E36820
S2140058002293D8F804302793D8F800302893002F36
S21400581000F0C380BD6855F8044B5694052C40F341
S214005820C0808E4B9C4294BFA0004FF0FF308C4B44
S21400583098475790A20029468A4B98477B6817934B
S214005840002E00F0B080B56855F8044B5094052C37
S21400585040F3B080814B9C4294BFA0004FF0FF30D5
S2140058607F4B98475190A20029467E4B9847736815
S2140058702093569B042B40F09B80509B042B40F0BB
S2140058809B80579B1093519A19929A4240F09680AB
S214005890DDF868A1549B1193534540F09180589BC6
S2140058A00F93DDF864B1529B1493539B1893199B86
S2140058B0002B40F3688100230B93CDF88CB00BFBD4
S2140058C00AF31F93149B002B40F35681249B2E93C0
