S015000054464C6974655F53414D4435312E73726563FD
S214000000D0AC0220D5020000D1020000D1020000D0
S214000010D1020000D1020000D10200000000000062
S214000020000000000000000000000000D1020000F8
S214000030D102000000000000D1020000D102000042
S214000040D1020000D1020000D1020000D10200005F
S214000050D1020000D1020000D1020000D10200004F
S214000060D1020000D1020000D1020000B909000050
S214000070D1020000D1020000D1020000D10200002F
S214000080D1020000D1020000D1020000D10200001F
S214000090D1020000D1020000D1020000D10200000F
S2140000A0D1020000D1020000D1020000D1020000FF
S2140000B0D1020000D1020000D1020000D1020000EF
S2140000C0D1020000D1020000D1020000D1020000DF
S2140000D0D1020000D1020000D1020000D1020000CF
S2140000E0D1020000D1020000000000000000000065
S2140000F00000000009090000D1020000D102000043
S214000100D1020000D1020000D1020000D10200009E
S214000110D1020000D1020000D1020000D10200008E
S214000120D1020000D1020000D1020000D10200007E
S214000130D1020000D1020000D1020000D10200006E
S214000140D1020000D1020000D1020000D10200005E
S214000150D1020000D1020000D1020000D10200004E
S214000160D1020000D1020000D1020000D10200003E
S214000170D1020000D10200000000000000000000D4
S214000180D1020000D1020000D1020000D10200001E
S21400019000000000D1020000D1020000D1020000E1
S2140001A0D1020000D1020000D1020000D1020000FE
S2140001B0D1020000D1020000D1020000D1020000EE
S2140001C0D1020000D1020000D1020000D1020000DE
S2140001D0D1020000D1020000D1020000D1020000CE
S2140001E0D1020000D1020000D1020000D1020000BE
S2140001F0D1020000D1020000D1020000D1020000AE
S214000200D1020000D1020000D1020000D10200009D
S214000210D1020000D1020000D1020000D10200008D
S214000220D1020000D1020000D1020000D10200007D
S214000230D1020000D1020000D1020000D10200006D
S214000240D1020000D1020000D1020000D10200005D
S214000250D1020000D1020000D1020000D10200004D
S214000260D102000010B5054C237833B9044B13B106
S2140002700448AFF300800123237010BDD00900208E
S21400028000000000D84C08000C4B43B10C480D4948
S21400029010B5AFF300800C48036823B910BD0A48B8
S2140002A0036833B97047094B002BF7D0BDE8104000
S2140002B01847064B002BF5D0184700BF000000007B
S2140002C0D84C0800D4090020D84C080000000000D4
S2140002D0FEE7000008B51C4B1C4A9A4210D01C4B87
S2140002E0194A9A420CD2013B9B1A23F003030433AB
S2140002F01344164951F8040B42F8040B9A42F9D1FC
S214000300144B154A9A420AD2013B9B1A23F0030368
S21400031004331344002142F8041B9342FBD10F4BD5
S2140003200F4A22F07F029A60D3F8882042F47002C7
S214000330C3F88820BFF34F8FBFF36F8F094B9847E2
S214000340094B9847FEE700BF00000020D84C080085
S214000350D0090020D0AC0120D009002000ED00E03C
S21400036000000000D53D0100610C000010B5044BF4
S2140003701C68044B984701462046034B984710BD1F
S214000380EC0900204D0700006907000070B50D4617
S2140003901646044660B1081C18BF012034220549E1
S2140003A0054B98472368324629462046984770BD35
S2140003B00020F3E730B001007106000070B50D466E
S2140003C01646044660B1081C18BF01203D220549A8
S2140003D0054B98476368324629462046984770BDC5
S2140003E00020F3E730B0010071060000F8B584463F
S2140003F007682FB18D683C460026C2F1010E0BE05F
S2140004000E4B9847F8BD7344A0680344AB420AD22B
S2140004102368264653B11C4663689342F3D8A06807
S21400042003449B1AF2E7A74204D034462046044B06
S2140004309847F8BD6046014B9847F8BD99060000FE
S214000440C50600002DE9F0474469076901370761D2
S214000450037E13F0010F13D1037E13F0020F0FD1AA
S21400046054B36368FB1AA268934207D3064600F1AA
S2140004701408DFF84890DFF848A012E0BDE8F087DF
S214000480037E43F002030376BDE8F0877569E368F0
S2140004902046984785B12C466B68FB1AAA6893429B
S2140004A00AD34046C847237C012BEFD167603A4603
S2140004B021464046D047E9E7BDE8F087CD06000074
S2140004C0ED03000038B50D46044678B1081C18BF89
S2140004D001203B220649074B984729462046064BF3
S2140004E0984700202061054B236038BD0020F0E7C8
S2140004F044B00100710600004D09000045040000EC
S2140005002DE9F8430F469046044628B331B3101C35
S21400051018BF0120F1221249124B98470834124D99
S2140005202046A8470028FBD0013F0026DFF8409071
S2140005300D4D17F8011F2046C8472046A84700283B
S214000540FBD001364645F4D3084D2046A847002880
S214000550FBD03046BDE8F8830020DBE70020D9E773
S2140005605CB0010071060000130B00001D0B0000BC
S214000570050B00002DE9F8430F4690460446E0B10F
S214000580E9B1101C18BF01204FF486720D490E4BBE
S2140005909847013F002608340C4DDFF8349020467B
S2140005A0A8470028FBD02046C84707F8010F0136A9
S2140005B04645F4D33046BDE8F8830020E4E7002043
S2140005C0E2E700BF5CB0010071060000270B0000E8
S2140005D00B0B000038B50D46044698B1081C18BF32
S2140005E0012034220849094B9847294604F108009F
S2140005F0074B9847034618B9064A6260064A2260C7
S214000600184638BD0020ECE75CB00100710600001B
S214000610C50A0000750500000105000010B5044677
S21400062053220649003018BF0120054B984704F1B5
S2140006300800044B9847002010BD00BF5CB00100C6
S21400064071060000F10A000038B50C46054648B1B0
S214000650081C18BF012069220349044B98472560EF
S214000660002038BD0020F6E75CB0010071060000EF
S21400067000B900BE704703684BB18B4209D01B68B7
S2140006801BB19942FBD10120704700207047002023
S214000690704701207047000038B504460D46064BEB
S2140006A0984780F0010039220449C0B2044B9847AD
S2140006B023682B60256038BD7706000078B00100FF
S2140006C07106000003680B600160704703680BB199
S2140006D01A6802601846704708B5034B1868034B43
S2140006E09847002008BD00BFF80900208D030000D1
S2140006F0002070470346064A126822B1044A106872
S2140007000344136070470349014A1160F6E700BFCF
S214000710F0090020D0AC02204FF0FF3070474FF4B5
S21400072000534B6000207047012070470020704740
S21400073008B501460148024B9847FEE798B001000D
S214000740A148010070474FF0FF307047C0EB001023
S214000750430102330348A0FB03235B08642000FB2D
S21400076003F07047ABAAAAAA0139FDD8704700BFAC
S21400077010B5094A13889BB21380084B9847084B5C
S2140007809847084B98470820074CA047074B9847C0
S21400079040F6F770A04710BD00400041FD0700007E
S2140007A01D080000F1070000B10700002108000046
S2140007B010F0010F08D00B4A0B4B1A62194643F68D
S2140007C0FD724B681342FCD110F0080F08D0074AA0
S2140007D0054BDA62194643F6FD724B681342FCD1AC
S2140007E0704700BF06090100001C00400509010013
S2140007F00122014B5A71704700080040064B42F236
S2140008008E029A8200229A75DA75DA6902F47C52B0
S214000810DA6101221A747047001400407047000025
S214000820364A136A23F00F0343F00403136211469B
S21400083043F6FD724B681342FCD1304A536813F0FE
S214000840040FFBD12E4B00221A772E4A9A621A46C4
S21400085092F82C3013F0100FFAD10022284B83F8B0
S21400086020201A4692F82C3013F0040FFAD10222F8
S214000870234B1A771A4692F82C3013F0020FFAD14F
S2140008801F4B5A6A5A621A4692F82C3013F0080F19
S214000890FAD180221A4B83F820201A4692F82C3080
S2140008A013F0040FFAD1164B93F8203013F0010F13
S2140008B01DD0134A136903F41063B3F5106FF9D112
S2140008C00E4A5368002BFCD10C4A136A23F00F0320
S2140008D043F006031362114643F6FD724B6813425B
S2140008E0FCD1064A536813F0040FFBD17047044A44
S2140008F0136913F4807FFBD0E2E700BF001C0040C2
S214000900001000400000010400B583B00D4B9B783A
S214000910DBB20193019B13F0020F06D00A4B1B6853
S2140009201BB1084A5068984709E0019B13F0010F75
S21400093005D0054B5B6813B1024A5068984703B070
S2140009405DF804FB0000024170AC012038B50C468F
S214000950054630221449003018BF0120134B984733
S214000960EC600123238048F2030223691342FCD182
S214000970EB681A6912F0010FFBD148F280021A8068
S21400098048F203011A690A42FCD1EA68202313627E
S214000990136913F0600FFBD1EB684FF480725A8135
S2140009A0034B1D60002038BDB4B001007106000086
S2140009B0F40900200020704710B5084B1C68E36857
S2140009C09B8913F4807F07D023680BB12046984795
S2140009D0E3684FF480729A8110BD00BFF4090020CE
S2140009E070B489B006466C460D4D0FCD0FC495E821
S2140009F00F0084E80F00009BB3420DD0314601ABD8
S214000A00012053F8042B8A4207D001300828F8D179
S214000A10002009B070BC70470020C0B2F9E700BFE4
S214000A20CCB0010010B50446214B9847042805D0E9
S214000A3040F247221F4900201F4B9847E36913F0F6
S214000A40010F19D1E36913F0030FFBD1236813F0EC
S214000A50020F0BD0236823F002032360E36913F030
S214000A60030FFBD1E36913F0020FFBD105232360CC
S214000A70E36913F0030FFBD1E36913F0010FFBD119
S214000A800E4B2360E36913F0030FFBD14FF44033A2
S214000A906360E36913F01F0FFBD1094BA3604FF2AD
S214000AA02B63A3810020A07384F8300010BD00BF24
S214000AB0E109000004B101007106000004001040C6
S214000AC00200700038B50C460546BB2205490030CA
S214000AD018BF0120044B98472C602046034B9847CC
S214000AE038BD00BF04B1010071060000250A0000F1
S214000AF00268136843F002031360D36913F0030F10
S214000B00FBD170470368996270470368986AC0B261
S214000B1070470368187E00F0010070470368187E6F
S214000B20C0F3400070470368187EC0F3800070472B
S214000B3008B5014B984708BDD10B0000104B93F841
S214000B40C82002F0FE0242F0010283F8C82093F8A3
S214000B50B42002F0F00242F0030283F8B42093F8C7
S214000B60C92002F0FE0242F0010283F8C92093F881
S214000B70B42002F00F0242F0300283F8B42070472F
S214000B8000800041064B4022C3F808214322C3F8E8
S214000B908C20044A136A43F001031362704700BFB7
S214000BA0001C00400008004008B5054B984700228E
S214000BB04FF086410348044B9847044B984708BDBE
S214000BC0850B00009CAC0120D50500003D0B000005
S214000BD008B5124B9847124B0222C3F89820C3F868
S214000BE0882002F18042C3F8A8204FF04042C3F8A4
S214000BF0A82093F8C12002F0FE0283F8C120094A1B
S214000C00536943F400735361074B984702460749FC
S214000C100748084B9847084B984708BD71070000DF
S214000C200080004100080040B50900000024004094
S214000C3080AC0120C5040000A90B000010B5044CD0
S214000C4004492046044B98472046044B984710BD5D
S214000C509CAC0120F8090020490600001D06000093
S214000C602DE9F04FADF2144D274B9847274B984788
S214000C70274B9847DFF8C080DFF8C0900DF10F03D0
S214000C8001931FE001342B2C0AD056F8045F51461E
S214000C902846D8470028F5D08DF80F40AA46F1E739
S214000CA001220199D8F800001A4CA0470C221A49D4
S214000CB0D8F80000A0470222184BC3F89C206420F6
S214000CC0174B98474FF4806204A9D8F80000C8472D
S214000CD00DF10F04134D0DF20F4B134F134E14F876
S214000CE0010FB8471249B04745F8040F5C45F6D1E6
S214000CF0104B984700248DF80F40061F4FF0000A4F
S214000D00DFF83CB0C1E700BF310B00003D0C00002F
S214000D10490E00008D030000E80608000080004130
S214000D206D030000649B01206921010081230100FE
S214000D3000007F43B9120000F8090020BD03000040
S214000D4091250100704708B503681B69984708BDE0
S214000D5008B503685B69984708BD202919D030B4E8
S214000D60D0F8A440BCB10D4683698B420CD0024635
S214000D7000230133A34209D020329169A942F8D159
S214000D8000EB4310043002E0043000E0002030BCEA
S214000D907047002070470020F9E7704738B5D0F854
S214000DA0C450052D12D8BDB190F8A8308B420FD094
S214000DB000F1A902002301339D420BD012F8014B2B
S214000DC08C42F8D12C3350F8230038BD034B98479B
S214000DD00023F7E7002038BD002038BD7538010035
S214000DE02DE9F843D0F8A460CEB189468046044683
S214000DF000250C4F03E001352034B5420CD0A36922
S214000E00202BF8D14946E069B8470028F3D108EB13
S214000E1045100430BDE8F8830020BDE8F8830020C4
S214000E20BDE8F883494E010010B50446014B9847CB
S214000E30204610BD9591000010B50446014B98471A
S214000E40204610BD95910000F0B58DB0A24B1B78E2
S214000E50BFF35B8F13F0010F00F099809E489F4B05
S214000E6043609F4B1968CA188260CB58D31A1988FA
S214000E70042940F39B809B88002B00F09F80D2586B
S214000E80032A40F09480944B1B7BBFF35B8F13F0D8
S214000E90010F00F0958004A8924B98478E4803698E
S214000EA01B69032110309847002800F0A4808A4B65
S214000EB0D3F8D80018B103228B498C4B984704A866
S214000EC08B4B9847844803691B6909211030984763
S214000ED0002800F0C080804BD3F8D80018B1092253
S214000EE08149824B984704A8824B98477A48036901
S214000EF01B69112110309847002800F0DC80764BE3
S214000F00D3F8D80018B111227749784B984704A82F
S214000F10794B9847704803691B691621103098472B
S214000F20002800F02B816C4BD3F8D80018B116229D
S214000F306D496E4B984704A8704B984766480369FE
S214000F401B69192110309847002800F04781624B32
S214000F50D3F8D80018B119226349644B98475E4B02
S214000F6093F8DC30BFF35B8F13F0010F00F066815F
S214000F70634C04F69820C4F8180B624B984700217F
S214000F80D4F8180B604B9847C4F81C0B14E0524872
S214000F905E4B984700283FF461AF4F485C4B98473C
S214000FA05C4A5D494D485D4B984757E7002203234E
S214000FB05B494A484D4CA0470DB0F0BD0022F6E70D
S214000FC05848524B984700283FF465AF424C564B62
S214000FD023610023C4F8B430C4F8D430C4F8D83041
S214000FE004F10C004A4B98474A4A504904F1100055
S214000FF04A4B98474FE7384BD3F8B460042E0AD9CB
S214001000D3F8D80000283FF45AAF052303224849F6
S214001010364CA04753E7304F07EB461E0EF114043C
S21400102004AD0FCD0FC495E80F0084E80F0003222F
S214001030CEF828200136C7F8B460D7F8D430F918AF
S21400104081F8B82007EB83023A49C2F8C010013392
S214001050C7F8D43033E7204BD3F8B460042E0AD94F
S214001060D3F8D80000283FF43EAF052309223049C4
S2140010701E4CA04737E7184F07EB461E0EF1140428
S21400108004AD0FCD0FC495E80F0084E80F000922C9
S214001090CEF828200136C7F8B460D7F8D430F9184F
S2140010A081F8B82007EB83022349C2F8C010013349
S2140010B0C7F8D43017E7084BD3F8B460042E3DD9F0
S2140010C0D3F8D80000283FF422AF05231122184990
S2140010D0064CA0471BE700BF000A002004000020C3
S2140010E020B10100E9370000780708000913000066
S2140010F005490000D9570000455A0000F95F000076
S2140011004890012011890000658B00009D91000029
S214001110D591000000000020450D000089910000D8
S214001120300708000C0A0020140708009B0D00007A
S214001130C8070800A9140000E9150000504F07EB87
S214001140461E0EF1140404AD0FCD0FC495E80F0033
S21400115084E80F001122CEF828200136C7F8B460C4
S214001160D7F8D430F91881F8B82007EB8302454940
S214001170C2F8C0100133C7F8D430C8E6404BD3F8E5
S214001180B460042E0AD9D3F8D80000283FF4D3AEB2
S214001190052316223C493D4CA047CCE6384F07EBCA
S2140011A0461E0EF1140404AD0FCD0FC495E80F00D3
S2140011B084E80F001622CEF828200136C7F8B4605F
S2140011C0D7F8D430F91881F8B82007EB83023049F5
S2140011D0C2F8C0100133C7F8D430ACE6284BD3F8B9
S2140011E0B460042E0AD9D3F8D80000283FF4B7AE6E
S2140011F0052319222449254CA047B0E6204F07EBCB
S214001200461E0EF1140404AD0FCD0FC495E80F0072
S21400121084E80F001922CEF828200136C7F8B460FB
S214001220D7F8D430F91881F8B82007EB83021949AB
S214001230C2F8C0100133C7F8D43090E61648174BF2
S214001240984700283FF494AE0D4C154D00230293AA
S214001250636801934FF4C833009304F1E00304F18C
S2140012601002A16828460F4EB04704F1DC000E4B72
S21400127098470E4A0E4928460E4B984778E600BF18
S214001280000A00201D170000C80708000913000008
S2140012905D18000025190000DC0A00209D91000062
S2140012A0E09A0120B9880000D591000000000020D7
S2140012B0F78700008991000008B50D4BD3F81C2B6A
S2140012C003F532615160D3F8180B0A4B984738B9CA
S2140012D00021074BD3F8180B074B9847406808BD0A
S2140012E000220649064B5868064B9847F0E700BFB1
S2140012F048900120598A0000B18B00000C080800B5
S214001300000A0020091300000EB400B582B003AA3C
S21400131052F8041B019203689B68984702B05DF878
S21400132004EB03B070470CB400B583B004AA52F8BF
S214001330041B019203689B68984703B05DF804EBB2
S21400134002B07047013804280ED8DFE800F0030525
S21400135007090B00012070470220704703207047E2
S21400136004207047052070470020704720B10128F0
S2140013700CBF0220002070470120704708B518B146
S21400138021B12AB133B108BD034B9847024B9847A9
S214001390014B9847004B98477538010038B5C1B1E6
S2140013A00D460C68B4EB900F1AD814B3043A002319
S2140013B051F8040F42F8040F01339C4217D02868F6
S2140013C08342F5D30C4B0D4A40F201110C480D4CEC
S2140013D0A047049A0C4918460C4B9847012038BD84
S2140013E0049A0B491846094B9847012038BD00203F
S2140013F038BD002038BD00BF6C090800280808006A
S2140014007809080085380100F8080800091300006C
S2140014102809080008B50B2837D8DFE800F00A06C8
S214001420161A22262A122E1E0E320A230B700020AF
S21400143008BD01230B70002008BD0B230B70002095
S21400144008BD07230B70002008BD02230B70002088
S21400145008BD03230B70002008BD09230B70002075
S21400146008BD04230B70002008BD05230B70002068
S21400147008BD06230B70002008BD08230B70002053
S21400148008BD0C230B70002008BD13460246002042
S214001490087003491846034B9847012008BD00BF53
S2140014A0B8090800091300002DE9F04182B004468F
S2140014B00F4615469846454EB0472B681B680422D3
S2140014C018212846984700285AD006462368E31A6B
S2140014D01A880A2A4EDD598900294BD0615C0129F9
S2140014E048D10C2A46DD9B89E718002B42D0E558E8
S2140014F07C193FD07B59E31A1A88042A4DDD9B8855
S214001500002B4CD0E056C0B2314B984730707B5918
S214001510E31A1A88062A44DDDB88002B43D0E358FA
S21400152073607B59E31A1A88082A3EDD1B89002B54
S2140015303DD0E358B3607B59E31A1A880A2A38DD8F
S2140015405B89002B37D0E056C0B2224B98473073E9
S2140015507B59E31A1A880C2A2FDD9B897BB3E35844
S21400156033617B59E31A1A880E2A2ADDDB8953B3C6
S214001570E3587361C8F80060002002B0BDE8F0814F
S214001580154B01934FF47B730093144B144A394662
S2140015903846144CA0470120EFE70020B3E70020B0
S2140015A0B1E70023BCE70023BAE70023C2E7002325
S2140015B0C0E70020C8E70020C6E70123D0E70123E4
S2140015C0CEE70123D5E70123D3E700BF7D13000054
S2140015D06D130000451300002C0A0800DC09080003
S2140015E0140A0800271300002DE9F04782B00446CD
S2140015F0894690469A46414DA847D8F800301B6861
S2140016000122042140469847002854D00546236806
S214001610E31A1A880A2A69DD5989002966D0615CAE
S214001620082963D10C2A61DD9B89E718002B5DD061
S214001630E658BC195AD0BB59E31A1A88042A47DD63
S2140016409B88002B46D0E056C0B22D4B984728709A
S214001650BB59E31A1A88082A3EDD1B89002B3DD0A9
S214001660E35C003318BF0123AB70BB59E31A1A883A
S2140016700A2A35DD5B89002B34D0E35C003318BFC3
S2140016800123EB70BB59E31A1A88062A2CDDDB8887
S21400169053B3E35643B3012B2CD01A4948461A4B92
S2140016A09847D8F800305B6829464046984701209E
S2140016B002B0BDE8F087154B019340F25243009309
S2140016C0134B144A49464846134CA0470120EFE7FF
S2140016D00020B9E70020B7E70023C2E70023C0E7F1
S2140016E00023CBE70023C9E700236B70CAF800503D
S2140016F00020DDE701236B70F8E700BF7D130000D4
S21400170045130000400A0800091300002C0A0800D0
S214001710DC090800140A0800271300002DE9F04130
S21400172082B004460F4615469846454EB0472B688D
S2140017301B68042228212846984700285BD00646C6
S2140017402368E31A1A880A2A4FDD598900294CD0E3
S214001750615C052949D10C2A47DD9B89E718002BD7
S21400176043D0E5587C1940D07B59E31A1A88042ADE
S2140017704EDD9B88002B4DD0E056C0B2314B9847CB
S21400178030707B59E31A1A88062A45DDDB88002B61
S21400179044D0E35873607B59E31A1A88082A3FDD61
S2140017A01B89002B3ED0E358B3607B59E31A1A8896
S2140017B00A2A39DD5B89002B38D0E358F3607B5961
S2140017C0E31A1A880C2A33DD9B89002B32D0E358A3
S2140017D033617B59E31A1A880E2A2DDDDB896BB339
S2140017E0E056C0B2184B98473075C8F80060002025
S2140017F002B0BDE8F081154B019340F249530093C7
S214001800134B144A39463846134CA0470120EFE7DD
S2140018100020B2E70020B0E70023BBE70023B9E7CB
S2140018200023C1E70023BFE70023C7E70023C5E77F
S2140018300023CDE70023CBE70020D2E70020D0E747
S2140018407D1300006D130000451300002C0A0800ED
S214001850DC090800140A0800271300002DE9F047E9
S21400186082B00546884614461F46274EB047236872
S2140018701B68042224212046984778B306462B6826
S214001880EB1A1A880A2A26DD598921B3695C1129C0
S21400189021D10C2A1FDD9B89E918E3B1EB58CA1841
S2140018A019D0CB58D31A1988042914DD9B8802EB6B
S2140018B0030A83B152F803901AEB09010BD0134BBD
S2140018C00093434602462020114DA847054690B98E
S2140018D05AF8093033623E60002012E00D4B019347
S2140018E040F2A35300930C4B0C4A414640460C4C26
S2140018F0A047012005E023685B68314620469847EC
S214001900284602B0BDE8F0877D1300006C0A080088
S2140019109D1300002C0A0800DC090800140A0800C1
S214001920271300002DE9F04182B00446884615468C
S2140019301E461D4FB8472B681B68042211462846D2
S214001940984700B302462368E31A19880A2915DD6A
S214001950588998B1205C092810D10C290EDD9B8986
S214001960E1185BB1E358C81808D0CB58C31A1988D9
S214001970042915DD9B88ABB1C35813603260002084
S21400198002B0BDE8F081094B019340F2FD5300938D
S214001990074B084A41464046074CA0470120EFE760
S2140019A00023EAE70023E8E77D1300002C0A08007E
S2140019B0DC090800140A0800271300002DE9F0418E
S2140019C00E4617461D4600232B600368C31A1A8866
S2140019D0042A41DD998800293ED0445C082A1BDD94
S2140019E01989E1B150F801807E2C1BDC202C3AD1FD
S2140019F0062A2ADDDB88C1183BB3C358C91824D091
S214001A0033685B6842460431304698472860B0FA2F
S214001A1080F04009BDE8F0814FF00108E4E74FF0A0
S214001A200108E1E7224616493846164B984701203A
S214001A30BDE8F0814346144A52F82420134938463C
S214001A40104CA0470120BDE8F081114938460D4BE7
S214001A5098470120BDE8F081082A01DD0024BFE791
S214001A604FF00108002433681B6842462146304682
S214001A70984728600028DDD00020BDE8F08100BF30
S214001A80E80C080009130000E80A08003C0D0800EE
S214001A90740D080090F82D3093B130B40378092BFC
S214001AA00CBF056900254468836933B1234603F8F3
S214001AB0015B1A1B81699142F9D8002030BC70473F
S214001AC0002070472DE970438046894616461C461E
S214001AD0002200231C4DA84720B10023336023605A
S214001AE0BDE87083224640464946184B9847002278
S214001AF0174B184DA847184B9847184B98474FF068
S214001B000042002382428B4113DB002908BFB0F15C
S214001B10004F10D0B0F1004F71F1000311DA2368C6
S214001B2013F11F0F02DA0023236000203060BDE8A7
S214001B3070830B4B98472368013323604FF0804037
S214001B40EDE7074B984700BF691E0100E911010049
S214001B500000E041991901004D1201002126010004
S214001B60753801002DE9F04106460F4690461C46A2
S214001B700022094B094DA84750B12346424630463D
S214001B803946074DA8472368002B03DBBDE8F081E4
S214001B90044B9847034B98470000F03FB91E0100DE
S214001BA0C51A0000753801002DE9F84F82468B46AD
S214001BB016461F460A98C0F11F00012303FA00F0DC
S214001BC0134B984780468946124C32463B46504651
S214001BD05946A04702460B4640464946A04704469B
S214001BE00D4609A3D3E900230B4EB04738B920466B
S214001BF029460C9B0B9A094CA047BDE8F88F02A11A
S214001C00D1E90001F5E700BF0000C0FFFFFFDF419C
S214001C10CD18010099190100B91E0100651B0000CE
S214001C202DE9F843814688461546012404FA00F05B
S214001C300138194B984706460F46A5EB0900A0F158
S214001C402001C0F1200304FA01F124FA03F3134D36
S214001C5004FA00F01943A84702460B4630463946B8
S214001C600F4EB04706460F46A8F12001C8F12003E4
S214001C7004FA01F124FA03F304FA08F01943A8471A
S214001C8002460B4630463946064CA047064B984758
S214001C90064B9847BDE8F883CD1801003D190100B2
S214001CA099190100ED1B0100D1100100CD1E0100A5
S214001CB02DE9F04182B0804608461D46D168C068CE
S214001CC0134B98470446134B984706460F46002189
S214001CD02046114B984778B1E8680E4B9847024665
S214001CE00B46304639460D4CA047089BC3E9000119
S214001CF0002002B0BDE8F081094B0093D8F81440EC
S214001D00A723084A08494046A0470120F1E700BF3C
S214001D1019220100F11801007D250100ED1B0100CC
S214001D207013080044130800140A0800000000009E
S214001D302DE9F04782B082460D4617461C46224ED5
S214001D40C868B04780468946F868B04702460B46E2
S214001D50404649461D4EB047E4B1804689461A4E75
S214001D60E068B04702460B4640464946184CA04736
S214001D70804621F000440A9BD868B04702460B46CE
S214001D8040462146134CA0470DA3D3E90023124C2E
S214001D90A04750B10B9B00930A9B3A4629465046F3
S214001DA00E4CA04702B0BDE8F0870D4B0093DAF862
S214001DB014409A230B4A0C495046A0470120F1E7ED
S214001DC07B14AE47E17A943FF1180100991901009F
S214001DD031160100ED1B0100911E0100B11C000030
S214001DE08C13080044130800140A08002DE9F04F6D
S214001DF083B01D461378032B1FD0092B20D0072B4A
S214001E0012D147F6FF76364FD2F80C8014690129B6
S214001E101AD0032929D0022944D02F600C9B1E60BB
S214001E20002003B0BDE8F08F2E4B00934469DA2300
S214001E302D4A2E49A0470120F3E7FF260027E3E7B7
S214001E407F266FF07F07DFE741460020284B984744
S214001E50284B9847284B98472044B842B8BF384686
S214001E6028600C9B1E600020DBE7DFF884B041464C
S214001E700020D847DFF87CA0D047DFF87C90C84722
S214001E802044B842B8BF3846286041461B48D84769
S214001E90D047C8472044B042A8BF30460C9B1860C5
S214001EA00020BEE7DFF848B041461548D847DFF8BF
S214001EB044A0D047DFF84090C8472044B842B8BF97
S214001EC03846286041464FF07E50D847D047C8472E
S214001ED02044B042A8BF30460C9B18600020A0E704
S214001EE00080FFFFB013080044130800140A08001F
S214001EF081230100ED120100A52501000000C0406D
S214001F00000080BF2DE9F04F91B00590099391F83D
S214001F103030012B40F084808B46914692F830306A
S214001F20012B40F08D80536B002B00F098801A68D0
S214001F300892002A00F09D80089AD2F800A0BAF114
S214001F40010F18DD0A78092A02D0072A40F09B8084
S214001F5099F80020092A40F0A080229A924540F085
S214001F60AB80D9F808209B6802EB83025368229A5C
S214001F709A4240F0B080DBF80C3006931A9BDB6880
S214001F800793089B04331A46229B002B3CDD209FB8
S214001F90043F219E043E00246B4D0497CDF828B0E4
S214001FA0CDF82C9091469B46BAF1010FCEBF59F85A
S214001FB02400089B5868A847074688460698A847FE
S214001FC002460B4638464146604FB84707468846A5
S214001FD00798A84702460B46384641465C4FB84726
S214001FE00EAB0DAADFF8A881C0470D9B049A42F8F5
S214001FF0043F04920E9B46F8043F0134A345D3D118
S214002000DDF828B0DDF82C909BF80030032B70D05C
S214002010092B00F08F80072B00F08C8000200CE04E
S2140020200124039402934B4B01934B4B0093456959
S21400203036234A4A4A49A847204611B0BDE8F08FE1
S214002040012403940293434B0193464B0093059857
S21400205045693823414A4249A8472046EDE7424BA6
S21400206000930598446942233C4A4049A047012012
S214002070E3E73F4B0093059844694323374A3B49BF
S214002080A0470120D9E73B4B0093059844694823B5
S214002090324A3649A0470120CFE70923039302922C
S2140020A0354B0193354B00930598446949232B4AD9
S2140020B02B49A0470120C0E70392CDF808A0304B7B
S2140020C00193304B0093059844694A23234A2449D8
S2140020D0A0470120B1E7039302922B4B0193284BB4
S2140020E00093059844694D231C4A1D49A0470120CA
S2140020F0A3E710AB0020002163E9020101931A9BBD
S2140021000093099B4A4659460598204CA04700284C
S21400211093D10DAB1C9ADDE90E011D4CA0470D9B1B
S2140021205B421D9A13609BF80030092B02D0032BEC
S2140021307FF471AF1B9B19781F9B00931E9B1A9A06
S2140021400598144CA04778E7F1180100991901008A
S214002150ED1B0100D4130800F01308004413080018
S214002160B81308000C14080028140800140A080005
S2140021703C1408005814080094140800A014080022
S214002180B0140800C0140800E4140800311D000054
S214002190C51A0000ED1D000008B5034B1B68D96882
S2140021A0024B984708BD00BF20000020E13901001F
S2140021B000B583B0836B63B102AA002142F8041D08
S2140021C028219847012814BF0198002003B05DF825
S2140021D004FB014B984700BF753801002DE9F04716
S2140021E08AB0189E0C682468023C012C13D84C68F0
S2140021F02568012D18D00124039402955B4B0193AA
S2140022005B4B0093456950235A4A5B49A8472046D2
S2140022100AB0BDE8F087594B009344694F23554AEE
S2140022205749A0470120F3E792F800C0D2F808907B
S214002230D2F804E05469139F7D1E176907FB05F763
S21400224007F1010ABCF1010F11D0BCF1020F50D00A
S214002250149D013D04FB05F404F10108BCF1010FD7
S2140022605CD0BCF1020F5BD000252C4610E00EEBD4
S2140022700305013D95FBFEF5149F07F1FF3804FBAF
S21400228008F404F10108129C4C44013C94FBF9F458
S214002290013C09FB0484129FE41B24EAE474013D1C
S2140022A00EFB05A5EB1A23EAE37303EBD3756D105B
S2140022B0356004EBD4756D10756003F00103B360F0
S2140022C004F00104F4609DF85C30012B4BD0856867
S2140022D00B685C6805EB841E9C6805EB84141F681D
S2140022E0022F21DDDB68B3F1FF3F1BD005EB831324
S2140022F01BE00EEB0305A5EB0A0595FBFEF5149F08
S21400230007F1FF3804FB08F404F10108129C09EBFE
S214002310040CACEB080C9CFBF9F4B9E70025B2E71B
S2140023200025F3E7002300E00023A7687F680897EE
S214002330F7690797B769069706F12407059706F128
S2140023402007049706F114070397103602960C32FE
S21400235001924A68526805EB82150095224671463E
S214002360084CA04754E7002052E700BF181B08009F
S2140023706416080014160800B81308004016080073
S214002380140A0800051F00002DE9F04F8FB0D1F8A1
S21400239010A0BAF1000F2FD005460C46D1F814B0A5
S2140023A0BBF1000F2AD0D0F808800B685F68BF0129
S2140023B008EB07029B6808EB83199368DA680892B3
S2140023C09B680993D9F80830DA680A929A680B92E3
S2140023D04A68526808EB82129268D1680C9192683B
S2140023E00D925E68B600836B0AF118023146984774
S2140023F030B10FB0BDE8F08F404B98473F4B984741
S214002400AB6B0AF11C023146284698470028F0D1EB
S21400241018F80730092B13D0CDF818A005930D9B9C
S21400242004930C9B03930B9B02930A9B0193099BBB
S2140024300093089B5A4621462846314CA047D8E7C9
S21400244099F83020012A22D1D9F83420002A2DD03C
S2140024501168002934D0506800283BD00A68012A49
S21400246004D0D9F8081049688A423DD101688A42EA
S214002470D2D003910292234B0193234B00936C69B5
S214002480A323224A22492846A0470120B1E7012477
S214002490039402921F4B01931F4B00936E69962381
S2140024A01A4A1B492846B0472046A2E71B4B009312
S2140024B06C699A23154A1A492846A047012098E7CE
S2140024C0184B00936C699B23104A15492846A04771
S2140024D001208EE7144B00936C699C230B4A10492D
S2140024E02846A047012084E7104B00936C69A1237F
S2140024F0064A0B492846A04701207AE775380100AE
S214002500DD21000014170800C01408001416080087
S214002510B8130800D41308000C1408002814080088
S214002520140A08003C1408007816080098160800DC
S2140025302DE9F04FD7B0609DDDF88491DDF888A1D5
S214002540659C29690891D9F810100991216925918F
S2140025501968009159680191D2F804B09168029107
S21400256011690391526904921A6913925F691A6A93
S21400257017925B6A1893002D00F05F81D5F80880EB
S21400258058F8046B3896052E40F35B81B04B9E429C
S21400259094BFB0004FF0FF30AE4B98473990B20072
S2140025A04146AD4B98476B680C93B9F1000F00F0AD
S2140025B04A81D9F8086056F8045B3E95052D40F32D
S2140025C04D81A34B9D4294BFA8004FF0FF30A14B16
S2140025D098473F90AA0031469F4B9847D9F8043059
S2140025E02693BAF1000F00F03B81DAF8086056F83F
S2140025F0045B4495052D40F33781954B9D4294BF6F
S214002600A8004FF0FF30934B98474590AA003146FC
S214002610914B9847DAF804301A93002C00F0268184
S214002620A66856F8045B4A95052D40F32381884B2F
S2140026309D4294BFA8004FF0FF30864B98474B90C2
S214002640AA003146844B984763680693639B002B29
S21400265000F01281639B9D682C685094052C40F313
S2140026600D817B4B9C4294BFA0004FF0FF30794B0E
S21400267098475190A200291D774B98470FFA8BF385
S2140026800D93BDF90850BDF90CE0BDF91060BDF919
S2140026900040BDF90480179B189A934200F3F0801F
S2140026A0389B042B40F0EE803E9B042B40F0EC80E1
S2140026B04A9B042B40F0EA80399B0A934B9A1E9261
S2140026C09A4240F0E5803C9B0793DDF808919945D7
S2140026D040F0E0803F9B0B934E9A12929A4240F055
S2140026E0DB801A9BABB1449A052ACCBF459945A915
S2140026F0002A40F3D3800B4601EB8201012253F8F7
S214002700040B00FB02F29942F9D1129B9A4240F068
S214002710C780DDF8E8B0DDF8ECC0409B0593DDF837
S21400272004A14C9914914D9B1A4622931E9800289A
S21400273040F3F88179420029D4BF3846002024901F
S21400274001238340581E32904010339012982F90E9
S21400275017461346149A03FB02F300FB03F030906F
S214002760069820900CFB0BF3079800FB03F22E92C2
S214002770C8F10008CDF8C48063422C9308FB0CF324
S2140027801B1B0C9C00FB03441D94129B1A4602FB69
S21400279007F42B942A95024600FB0CF303FB05F086
S2140027A036900D9C2894104602FB04F42994CDF82C
S2140027B01090059A0AFB02F209FB02F22D9209FB21
S2140027C00AF21192109603FB06F30F93CDF808E079
S2140027D000FB0EF3039300230693139B1C46DD17A2
S2140027E0CDE9344521EAE1733793149B002B40F37F
S2140027F08A81319B23931D9B1993209B1F93002353
S2140028001C935B46D346E2469C46229B002B40F335
S21400281063812C9B0E93199B16931F9B1593002385
S2140028201B93E046129B002B40F34281269B21938C
S214002830159B27934FF0000C06E1002338930C936A
S214002840B3E639A8ABE600233E932693C9E600BF5D
S214002850FEFFFF1F49920000F14501003FA8B9E6C0
S214002860002344931A93D8E645A8CFE600234A935C
S2140028700693EBE64BA8E3E65093FFE651A8F9E68D
S214002880854B9847844B9847834B9847824B98478D
S214002890814B9847804B98477F4B9847012234E7F7
S2140028A07D4B98477C4B98477B4B98477A4B98478D
S2140028B0794B9847784B9847774B984701334B4569
S2140028C030D0002AFADB5245F8DA0029F6DB41451B
S2140028D0F4DA069C002CE5DB0A9DA542E2DD002B1F
S2140028E0E2DB079C9C42DFDDF45CBCF1000FDDDB25
S2140028F00B9FBC45DADABEF1000FD9DB059F7745A2
S214002900D6DD0028D6DB8345D4DD9945D4DD009F8F
S214002910FD5C099FED1B089FE41B019F04FB0574EB
S2140029200194CBE7009F0130029B1A44049B1F448E
S214002930039B1E44584505D0B9F1000FF3DD002374
S2140029400097BEE70EF1010E0D9B119A13440D93EE
S2140029500C9B0F9A13440C93109B1944059B9E45A1
S21400296009D0BBF1000FEDDD0C9E0D9F0E9A0020E6
S214002970E2E7002301931A9B23B153F82C30019A07
S2140029801A440192019A379B9A40139B934267D050
S214002990D517359B02FB03F1139800FB0511A2FB2C
S2140029A000230B44002A73F10001C0F2CC8012F120
S2140029B0804243F1000310461946002A73F10004D2
S2140029C0C0F2D680C30F43EA4103249A002A4DDBA7
S2140029D0249A1F2A51DC339A02EBD371329A1A409A
S2140029E0249803419142B8BF0133259A1344179A9D
S2140029F09342B8BF1346189A9342A8BF1346069A46
S214002A00002A41DB1E9991423EDD1C9A002A3DDBDE
S214002A1014998A423ADA1B9A002A39DB22998A42AA
S214002A2036DABCF1000F35DB129A944532DA279A73
S214002A3002F8013B27920CF1010C219B2D9A1344BE
S214002A402193129B9C4533D0059B002B91DD239947
S214002A50169B0C93219B0D93002301939E4680E7C3
S214002A60B3F1004F94D16FF00043AEE70B4B0C4A26
S214002A704FF4B3710B480C4CA0470C4B084A40F27D
S214002A8067110848084CA047034B9847024B9847E5
S214002A90014B9847004B9847753801003C170800D3
S214002AA0981508004C170800853801007C170800A8
S214002AB01B9B01331B93159A2F990A441592169A5D
S214002AC029990A4416920E9A28990A440E92229A36
S214002AD093427FF4A7AEC4461C9B01331C931F9AF7
S214002AE02B990A441F92199A36990A441992239AE6
S214002AF02A990A442392149A93427FF486AE634638
S214002B00D446DA469B46069B01330693209A3099B4
S214002B100A4420921D9A2E990A441D921E9A9342A8
S214002B207FF463AE509B052B03DD519808B1134B21
S214002B309847449B052B03DD459808B10F4B9847F3
S214002B4057B0BDE8F08F0E484FF0FF31801859415E
S214002B5002460B46002871F1000403DBC30F43EA6C
S214002B60410332E76FF00040002180185941F5E735
S214002B706FF0004000218018594123E7999100002A
S214002B80010000C02DE9F04FCDB0569D579C296935
S214002B900391599909691691D2F80890D2F80480E1
S214002BA0D2F814B0D2F810A05A6800921A680192AF
S214002BB01A6A12925A6A13929A691492DB691593EA
S214002BC0002D00F03981AF6857F8046B3496052E57
S214002BD040F33581A84B9E4294BFB0004FF0FF30C3
S214002BE0A64B98473590B2003946A54B98476F6874
S214002BF0002C00F02681A66856F8045B3A95052D51
S214002C0040F323819C4B9D4294BFA8004FF0FF30B9
S214002C109A4B98473B90AA003146994B9847636871
S214002C201A93589B002B00F01281589B9E6856F80A
S214002C30045B4095052D40F30D818F4B9D4294BF5C
S214002C40A8004FF0FF308D4B98474190AA003146C0
S214002C508B4B9847589B5B681993599B002B00F049
S214002C60FB80599B9D6855F8044B4694052C40F311
S214002C70F680814B9C4294BFA0004FF0FF307F4B04
S214002C8098474790A20029467D4B9847599B5E6817
S214002C900FFA88F80FFA89FE0FFA8AFC0FFA8BFBF8
S214002CA0BDF90440BDF90050129B139A934200F3FD
S214002CB0D880349B042B40F0D6803A9B042B40F0FF
S214002CC0D480469B042B40F0D280359B0593479AD0
S214002CD01B929A4240F0CD80389B0493DDF8F89022
S214002CE0994540F0D1803B9B06934A9A0E929A42B1
S214002CF040F0CC80199BABB1409A052ACCBF4198D6
S214002D0041A8002A40F3C480034600EB820001225B
S214002D1053F8041B01FB02F29842F9D10E9B934232
S214002D2040F0B880369B0793DDF8DCA03C9B02930E
S214002D303D9B1A46019348991791499B1C931B99F2
S214002D40002940F38A810E9832901946179B01FBA2
S214002D5003F300FB03F029902696079B0AFB03F378
S214002D60049E06FB03F32A936D422B956342309331
S214002D700AFB05F31B1B06FB037525950E9800FB47
S214002D8001F13391CDF8B0E006FB0AF30EFB03F138
S214002D902E91CDF8BC8006FB08F12D91CDF824903D
S214002DA01146029C02FB04F209FB02F2319209FB77
S214002DB001F21092CDF844B00BFB03F30F93CDF85D
S214002DC020C006FB0CF30A934FF0000B4B46D94687
S214002DD09B46179B002B40F332812B9B1D93259B14
S214002DE02893269B2793002324931C9B002B40F3B9
S214002DF01381309B0D93289B1F93279B1E930023C4
S214002E0023930E9B002B40F3F480149B043B2093EB
S214002E10159B043B21931A9B18931E9B22934FF0FD
S214002E200008029B002B6CDD1D9C1F9B0B93189BC0
S214002E300C93002635465AE000273497D8E635A886
S214002E40D1E600233A931A93EBE63BA8E3E64093D9
S214002E50199302E741A8F9E60026469618E747A820
S214002E6010E7084B9847074B9847064B9847054B83
S214002E709847044B984700BFFEFFFF1F499200008B
S214002E80F145010075380100AF4B9847AE4B9847A7
S214002E90012243E7AC4B9847AB4B9847AA4B984761
S214002EA0A94B9847A84B9847A74B9847A64B9847D7
S214002EB0009E0130089B1A44099B9C440A9B9E4432
S214002EC0019B984205D0BBF1000FF2DD002300966F
S214002ED020E101350C9B109A13440C930B9B0F9A20
S214002EE013440B93119B1C44029B9D420AD0019BEA
S214002EF0002BEEDDDDF82CE0DDF830C00D9A00206A
S214002F00E1E70026199B13B153F828301E44209B96
S214002F1053F8040F2093219B53F8047F219327EA4C
S214002F20E772002FD4BF7F4200279640B04200F0E1
S214002F309E80F517C31706FB03F100FB0511A6FBE1
S214002F4000230B44002A73F10001C0F2ED8012F159
S214002F50804243F1000310461946002A73F100042C
S214002F60C0F20881C30F43EA41031846002FC0F29F
S214002F7085801F2F00F389800123BB40013B5A1038
S214002F8002EBD07100EA030240FA07F39142B8BFA1
S214002F900133169A1344129A9342B8BF1346139AF3
S214002FA09342A8BF1346B9F1000F75DB1B9A4A453A
S214002FB072DD249A002A71DB17998A426EDA239A08
S214002FC0002A6DDB1C998A426ADAB8F1000F69DBC9
S214002FD00E9A424566DD229A02F8013B229208F1DB
S214002FE00108189B319A134418930E9B98457FF45A
S214002FF018AF239B013323931E9A32990A441E92DC
S2140030001F9A2D990A441F920D9A2F990A440D92E1
S2140030101C9A93427FF4F5AE249B01332493279A9F
S21400302033990A442792289A2E990A4428921D9A80
S2140030302C990A441D92179A93427FF4D6AE09F152
S2140030400109269B299A13442693259B2A9A134402
S21400305025931B9B99457FF4BCAE409B052B03DD57
S214003060419808B1394B98474DB0BDE8F08FB6F19E
S214003070004F7FF45EAF6FF0004376E7344B354A7F
S2140030804FF4B3713448354CA047354B314A40F2C3
S21400309067113148314CA0472B4B98472A4B98472D
S2140030A0294B9847284B9847B9F1000FFFF6F4AE26
S2140030B0059949457FF7F0AE002BFFF6EFAE049971
S2140030C099427FF7EBAE1EF90310B8F1000FFFF63A
S2140030D0E7AE069E46457FF7E3AE002DFFF6E2AE6E
S2140030E0029EAE427FF7DEAE0028FFF6DDAE019E02
S2140030F086427FF7D9AE9B457FF7D8AE1CF90370A2
S214003100039E891B009E01FB0761009101335B450E
S2140031103FF4CEAE002AF9DB5245F7DA002CF5DB99
S21400312007998C42C0DBF1E70E484FF0FF3180185C
S214003130594102460B46002871F1000414DBC30F08
S21400314043EA410311E700BF75380100999100007A
S2140031503C170800981508004C1708008538010031
S2140031607C170800010000C06FF0004000218018A6
S2140031705941E4E76FF00040002180185941F1E61C
S2140031802DE9F04FD1B05A9C117B012900F06A81DD
S214003190032900F06C81022900F06E81AD4916917A
S2140031A06FF400011591D3F800B05B680193D2F874
S2140031B004809568D2F81090D2F814A0002C00F085
S2140031C06181A76857F8046B3296052E40F35E813E
S2140031D0A14B9E4294BFB0004FF0FF309F4B9847E4
S2140031E03390B20039469E4B9847636803935B9BC7
S2140031F0002B00F04D815B9B9F6857F8046B389658
S214003200052E40F34881944B9E4294BFB0004FF089
S214003210FF30924B98473990B2003946904B98470A
S2140032205B9B5B6825935C9B002B00F036815C9B68
S2140032309F6857F8046B3E96052E40F33181864B07
S2140032409E4294BFB0004FF0FF30844B98473F90AB
S214003250B2003946824B98475C9B5B6817935F9B2E
S214003260002B00F01F815F9B9F6857F8046B449605
S214003270052E40F31A81784B9E4294BFB0004FF063
S214003280FF30764B98474590B2003946744B9847C6
S2140032905F9B5F685D9B002B00F009815D9B9E68CD
S2140032A034684A94052C40F304816B4B9C4294BFCF
S2140032B0A0004FF0FF30694B98474B90A200311D9D
S2140032C0674B98470FFA88F82DB20FFA89F90FFA6C
S2140032D08AFE0FFA8BF6BDF90440329B042B40F0B1
S2140032E0EA80389B042B40F0E880449B042B40F097
S2140032F0E680339B0C93459A1E929A4240F0E180FA
S214003300369B0B93DDF8F0B09B4540F0DC80399B94
S2140033100D93489A14929A4240F0D780179BABB10F
S2140033203E9A052ACCBF3F993FA9002A40F3CF809A
S2140033300B4601EB8201012253F8040B00FB02F25C
S2140033408B42F9D1149B9A4240F0C380349B019380
S214003350DDF8D4A03A9A08923B9B19460293469809
S21400336002462390479B21931E98002840F3B9817C
S214003370184603FB02F39B00149A02FB03FCCDF8ED
S214003380B8C01A97019B0AFB03F39B000B9A1746DB
S21400339002FB03F32A9363421C462B937342289343
S2140033A0930004FB0AF2921B039E03FB0266209620
S2140033B00246149C02FB04F290002C90299507FB11
S2140033C00AF2920002FB05F02D90A0002F90CDF897
S2140033D0C08008FB03F031900846089C01FB04F10E
S2140033E089000BFB01F1279100FB0BF1890013917B
S2140033F0CDF844E002FB0EF212924FEA8B020692E0
S214003400CDF8149009FB03F3049300230A93239B3F
S214003410002B40F357812B9B1993209B1D931A9BDF
S214003420189300231C93219B002B40F33881289B84
S21400343010931D9B2493189B229300231B93149B8D
S214003440002B40F31981259B1F93229B2693002374
S2140034500993EAE0FFFF7F7FFEFFFF1F499200000F
S214003460F14501007C491691002115919BE67B49A8
S21400347016910021159196E64FF07E5116917849E7
S214003480159190E6002332930393B0E633A8A8E69E
S21400349038932593C7E639A8BEE63E931793DEE633
S2140034A03FA8D5E600274497F4E645A8ECE64A93FD
S2140034B008E74BA802E76B4B98476A4B9847694B5F
S2140034C09847684B9847674B9847664B9847012242
S2140034D038E7644B9847634B9847624B9847614B75
S2140034E09847604B98475F4B98475E4B9847013428
S2140034F05C4532D0002DFADB5545F8DA002EF6DBB7
S214003500019B9E42F3DA0A9B002BE4DB0C9A934263
S214003510E1DA002CE1DB0B9BA342DEDD58F8240049
S214003520099A002ADBDB0D998A42D8DA079A002A24
S214003530D7DB08998A42D4DA002FD4DB029ABA4243
S214003540D1DDA345D1DD59F82410474B98470146F5
S2140035500398464B98470390C9E70137059B1D44DF
S214003560069B9944049B9844029B9F4204D0BBF15F
S214003570000FF2DD0024BDE7079B013307930F9A87
S21400358013990A440F920E9A12990A440E92119AAF
S2140035901644089A93420BD0029B002BECDDDDF814
S2140035A03880DDF83C90109D0027E0E70023039369
S2140035B0179B002B46D0099A53F822000A9B002B33
S2140035C042DB1E9A93423FDA1C9B002B3EDB239A7B
S2140035D093423BDA1B9B002B3ADB219A934237DA65
S2140035E0099B002B36DB149A9A4233DD03991F4B56
S2140035F098470446159D29461D4B984700B12C4612
S214003600169D294620461B4B984700B12C46269B04
S21400361043F8044B2693099B013309931F9A279975
S2140036200A441F92149A934226D0089B002BBDDDB5
S214003630199E249B0E931F9B0F9300230793002332
S2140036400393A9E70020B9E7064B9847054B984730
S214003650044B9847034B9847FFFF7F7F0000C0400E
S214003660000080BF75380100192201000920010002
S21400367055250100912501001B9B01331B93229ABF
S2140036802F990A442292249A31990A442492109A35
S21400369030990A441092219A93427FF4D0AE1C9B34
S2140036A001331C93189A2C990A4418921D9A2D9946
S2140036B00A441D92199A29990A441992239A934208
S2140036C07FF4B1AE0A9B01330A931A9A2E990A44E4
S2140036D01A92209A2A990A4420921E9A93427FF4BC
S2140036E096AE4A9B052B03DD4B9808B1054B9847D1
S2140036F03E9B052B03DD3F9808B1024B984751B01F
S214003700BDE8F08F999100002DE9F04186B006469D
S2140037104A6984684B685F6804EB87170B685D68C6
S214003720AD0104EB050E986804EB801C18680228AF
S21400373009DDDB68B3F1FF3F02D004EB831804E039
S2140037404FF0000801E04FF000080B6983B1605DA0
S21400375003282ED009281ED001280BD077691C4BD1
S2140037609847635D02461B493046B84701200FE084
S214003770194B98470597002404940394CDF80880C5
S214003780CDF804C0CDF800E03046144DA8472046DA
S21400379006B0BDE8F081002404940397CDF80880B5
S2140037A0CDF804C0CDF800E030460D4DA8472046C1
S2140037B0EEE70597002404940394CDF80880CDF82E
S2140037C004C0CDF800E03046064DA8472046DFE7A7
S2140037D0019100008C170800753801008131000047
S2140037E0852B00003125000070B406460446054DC2
S2140037F00FCD0FC495E80F0084E80F00304670BC6C
S214003800704700BFF415080000B583B0836B63B142
S21400381002AA002142F8041D14219847012814BF6B
S2140038200198002003B05DF804FB014B984700BFE9
S214003830753801002DE9F04389B0D1F81080B8F151
S214003840000F15D00746D1F814C0BCF1000F11D0F8
S21400385084680E687268920104EB020E3368022BCD
S2140038600CDDF368B3F1FF3F06D004EB831306E0EC
S2140038702D4B98472C4B9847002300E000234968BF
S2140038804D68AD0104EB0509A05C625D82420BD178
S214003890B568AD016219615D81421CD07B69234920
S2140038A038469847012013E0D7F81480204EB047DA
S2140038B08146605DB0470390CDF808901D4B01939C
S2140038C01D4B009360231D4A1D493846C047012002
S2140038D009B0BDE8F083012824D09CF8004008AD6C
S2140038E00020002165E902010195CDF8009071469F
S2140038F03846144DA8470028EAD105AB4246DDE914
S2140039000601114DA847059B5B42C8F8043008F134
S2140039100C03009308F108034A46214638460B4C30
S214003920A047D5E70020D3E77538010094180800B3
S214003930019100007818080088180800241808006C
S2140039405C180800311D0000C51A0000ED1D0000BF
S2140039502DE9F04FA9B01C46329D339F349E012AB4
S21400396000F0D580032A00F0D780022A00F0D98024
S214003970884B05936FF400030493002C00F0D78067
S214003980D4F8089059F8048BCDF84080B8F1050FAC
S21400399040F3CF80804B984594BF4FEA88004FF0A5
S2140039A0FF307E4B984711904FEA880249467C4B81
S2140039B098476468002D00F0BE80D5F8089059F846
S2140039C0048BCDF85880B8F1050F40F3B880724BE1
S2140039D0984594BF4FEA88004FF0FF306F4B9847EA
S2140039E017904FEA880249466D4B98476B680C93D0
S2140039F0002F00F0A680D7F8088058F8045B1C95C6
S214003A00052D40F3A280644B9D4294BFA8004FF062
S214003A10FF30624B98471D90AA004146604B98477E
S214003A207B680393002E00F09480B76857F8045B19
S214003A302295052D40F38B80574B9D4294BFA800DE
S214003A404FF0FF30554B98472390AA003946544B09
S214003A5098477568229B0F93169A0E92591E78D433
S214003A608B4276DD0F9B052BCCBF239823A80F9A9D
S214003A70002A70DD01231F4600233E4696469942E3
S214003A8014BF50F82320324602FB07F701339E4549
S214003A90F5D10B970E9B023B60D40E9A9A425FDDDF
S214003AA00E9A052A5EDC28AA02EB830353F8443CF0
S214003AB00F9A052A5ADC28AA02EB810151F8142C29
S214003AC00A920A9A9A4256D10E9B013B55D40E9AF8
S214003AD09A4254DD0E9A052A53DC28AA02EB830389
S214003AE053F8443C06930B9B002B40F3B4800A9B90
S214003AF09B000D930895069A920001920294039AF1
S214003B00D318079300230993264D274F95E0214BA2
S214003B1005930023049330E7244B05930023049376
S214003B202BE74FF07E530593214B049325E7109423
S214003B3040E711A838E7002316930C9358E717A818
S214003B404FE700231C9303936CE71DA864E723A8A4
S214003B507BE7184B984701230B939BE7154B984739
S214003B60144B9847179A52F82330A1E7239A52F835
S214003B7021200A92A5E70F4B98470E4B98470D4B0E
S214003B809847179A52F823300693ACE700262FE0A2
S214003B90002132E0FFFF7F7FFEFFFF1F49920000FB
S214003BA0F145010019220100092001000000C04073
S214003BB0000080BF75380100009B43F8044B00935B
S214003BC00AF1040A019B9B44079B534527D0069B9A
S214003BD0002BDBDDD846029C002658F8041B54F860
S214003BE0040BA84701463046B84706464C45F4D174
S214003BF0039B002BCCD0DAF800103046B8470446BA
S214003C00049E3146244B984700B13446059E314603
S214003C102046224B98470028CED03446CCE7099B56
S214003C2001330993089A0D990A440892029A019959
S214003C300A4402920B9A93420DD00A9B002BEEDDAB
S214003C40DDF80CA0DDF830B0029B019A03EB020908
S214003C50089B0093BBE70F9B052B03DD239808B159
S214003C600F4B98471C9B052B03DD1D9808B10C4B8A
S214003C7098470E9B052B03DD179808B1084B98470D
S214003C80109B052B03DD119808B1054B98470020C3
S214003C9029B0BDE8F08F00BF552501009125010031
S214003CA0999100002DE9F04FE3B04A69AAB10646A3
S214003CB084680B6858684FEA801804EB0807986811
S214003CC004EB801B186802280CDDDB68B3F1FF3FAD
S214003CD005D004EB8313069306E09D4B984700231C
S214003CE0069301E0002306934B685D68AB010893DA
S214003CF0E31807930B699BB114F80800032800F03B
S214003D00748109281CD001280CD07569914B9847FE
S214003D1014F80830024690493046A84701200CE0C7
S214003D208B4B98471278079B0293069B0193CDF81E
S214003D3000B03B463046894CA04763B0BDE8F08FE4
S214003D40D7F81080DBF81040079A12690A92D3F869
S214003D500090D3F804A09A680892DB680993002FB5
S214003D6000F0B880BE6856F8045B2C95052D40F32D
S214003D70B3807B4B9D4294BFA8004FF0FF30794B39
S214003D8098472D90AA003146774B98477F68BBF13D
S214003D90000F00F0A380DBF8086056F8045B269559
S214003DA0052D40F39F806E4B9D4294BFA8004FF0B8
S214003DB0FF306C4B98472790AA0031466A4B9847CD
S214003DC0DBF804301493069B002B00F08D80069BD6
S214003DD09E6856F8045B2095052D40F38880604B5E
S214003DE09D4294BFA8004FF0FF305E4B984721904D
S214003DF0AA0031465C4B9847069B5B680693079B78
S214003E00002B76D0079B9E6856F8045B1A95052D06
S214003E1075DD534B9D4294BFA8004FF0FF30514BC9
S214003E2098471B90AA0031464F4B9847079B596806
S214003E30269B1693012B60DD1A9B022B61D1089BF3
S214003E40099A93425FDC1B9B15931C9B1393169B4E
S214003E509A1E5AD4169B934259DD169B052B58DCA6
S214003E6062AB03EB820252F8EC3C139A934254DBAB
S214003E70169B5A1E53D4169B934252DD169B052B57
S214003E8051DC62AB03EB820252F8EC3C0793159BC5
S214003E90002B40F39380CAF10003002BD4BFD44616
S214003EA04FF0000C012202FA0CF2013A0C9252106A
S214003EB01092139A129201EB020A079A049205973F
S214003EC00022119223EAE3730B934A46D317CDE9F7
S214003ED00E2366E02C975AE72DA853E70023269377
S214003EE0149370E727A867E72093069387E721A82F
S214003EF07EE71A93269B012B03DC154B98471BA8DD
S214003F0090E7134B9847124B9847114B9847104B26
S214003F109847279B53F82230A7E70D4B98470C4B42
S214003F2098470B4B9847279B53F822300793AEE7EA
S214003F300022C9E3B9F1004F40F0CF836FF0004391
S214003F408CE30A4B0A4A4FF4B3710A480A4CA0475E
S214003F5075380100019100008C17080051390000E7
S214003F60FEFFFF1F49920000F14501003C170800C4
S214003F70A81708004C17080085380100A44BA54A6E
S214003F8040F26711A448A54CA047119B013311933A
S214003F90129A9244059A04990A440592159A9342F5
S214003FA00CD0139B002BF0DD129BAAEB03050698A2
S214003FB0DDF850E0049B059A991873E3209B052BC7
S214003FC003DD219808B1964B9847169B052B03DD19
S214003FD0279808B1924B98472C9B052B03DD2D980C
S214003FE008B18F4B98470020A7E63D69DBF810A084
S214003FF0079A12690A921A681692D3F80490C9F1C1
S21400400000089A680492DB680593089BE05C032826
S2140040100DD0072800F098817769824B9847089B57
S214004020E35C024680493046B847012085E6002F0B
S21400403000F0E380BE6856F8044B5C94052C40F311
S214004040DF807A4B9C4294BFA0004FF0FF30784B45
S21400405098475D90A2003146764B98477E68BBF144
S214004060000F00F0CF80DBF8087057F8044B56942A
S214004070052C40F3CB806D4B9C4294BFA0004FF0C4
S214004080FF306B4B98475790A2003946694B9847CC
S214004090DBF804301793069B002B00F0CD80069BC0
S2140040A09F6857F8044B5094052C40F3C8805F4B2C
S2140040B09C4294BFA0004FF0FF305D4B9847519054
S2140040C0A20039465B4B9847069B5B680893079BA4
S2140040D0002B00F0B680079B9F6857F8044B4A9465
S2140040E0052C40F3B480514B9C4294BFA0004FF087
S2140040F0FF304F4B98474B90A20039464D4B9847A0
S214004100079B5C68569B1193012B40F39E804A9A4E
S214004110002A40F39E80049B05998B4200F39B8007
S214004120531E00F19A809A4240F39780052ACCBF2E
S2140041304B984BA8012113910027394601279C462E
S214004140BE46614514BF50F821303B4603FB0EFEC9
S21400415001318A42F5D118916346CDF84CE0119AA8
S214004160911E7CD4119A8A427BDD119A052A7ADC4C
S21400417062AA02EB810151F82C1C189A052A76DCFB
S21400418062AA02EB830353F85C3C1493149B8B42A5
S21400419072D1119B5A1E71D4119B934270DD119BF4
S2140041A0052B6FDC62AB03EB820252F82C3C0993C2
S2140041B0139B002B40F39B80B8F1000FD4BF4846FA
S2140041C0002001238340013B0C935B101093149B4B
S2140041D0159304EB030CDDF8249006960023129347
S2140041E028EAE8730B93169A1646D717CDE90E679A
S2140041F0CDF81C90E14694466CE000265C962EE7CF
S2140042005DA827E700235693179344E757A83BE794
S2140042107C170800A81708004C170800853801000E
S21400422099910000019100008C170800FEFFFF1F07
S21400423049920000F14501005093089347E751A8C2
S2140042403EE74A93569B012B03DC384B98474BA816
S21400425052E7364B9847354B9847344B9847334B85
S2140042609847324B9847579A52F8211085E74B9A51
S21400427052F82330149389E72C4B98472B4B9847DA
S2140042802A4B9847579B53F82230099390E7002211
S21400429077E2B2F1004F40F07D826FF000433DE2DE
S2140042A0234B244A4FF4B3712348244CA047244B95
S2140042B0204A40F267112048204CA047129B013349
S2140042C01293159A9144069A07990A440692139AED
S2140042D093420CD0149B002BF0DD159BA9EB030E2C
S2140042E0089CDDF85C80069B079A991837E2189BB5
S2140042F0052B03DD4B9808B1124B9847509B052BB6
S21400430003DD519808B10F4B9847119B052B03DD31
S214004310579808B10B4B98475C9B052B03DD5D98BF
S21400432008B1084B9847002007E500BF7538010024
S2140043303C170800A81708004C170800853801002D
S2140043407C17080099910000002F00F0E680BE68F8
S21400435056F8044B4494052C40F3E280944B9C4260
S21400436094BFA0004FF0FF30924B98474590A200B4
S2140043703146914B98477E68BBF1000F00F0D28023
S214004380DBF8087057F8044B3E94052C40F3CE80BB
S214004390874B9C4294BFA0004FF0FF30854B984758
S2140043A03F90A2003946844B9847DBF804301793B9
S2140043B0069B002B00F0BC80069B9F6857F8044BBA
S2140043C03894052C40F3B780794B9C4294BFA000EC
S2140043D04FF0FF30774B98473990A2003946764B1E
S2140043E09847069B5B681893079B002B00F0A580F8
S2140043F0079B9F6857F8044B3294052C40F3A08027
S2140044006B4B9C4294BFA0004FF0FF30694B98471F
S2140044103390A2003946684B9847079B5C68049B1C
S214004420059A934200F38E800A9B002B40F08C8006
S214004430329B15933E9A11925A1E00F18780934242
S21400444040F38480159B052BCCBF339833A8159971
S21400445000297DDD01230E9300230127BE468C46EE
S214004460934214BF50F82310394601FB0EFE013369
S2140044709C45F5D1CDF838E0119B991E6BD4119B65
S2140044808B426ADD119B052B69DC62AB03EB810175
S21400449051F88C1C159B052B65DC62AB03EB820286
S2140044A052F8BC3C1393139B8B4261D1119B5A1E4E
S2140044B060D4119B93425FDD119B052B5EDC62ABE3
S2140044C003EB820252F88C3C07930E9B002B40F3C2
S2140044D0A380B8F1000FD4BFCC464FF0000C0123E8
S2140044E003FA0CF3013B09935B100A93139B5B00E2
S2140044F014931094079B194606960023129328EAF5
S214004500E8730B93169A1646D717CDE90C671695DF
S214004510CDF864A08A46964669E0002644962BE7C6
S21400452045A824E700233E93179341E73FA838E7C2
S2140045303893189358E739A84FE7002432946EE76B
S21400454033A866E71D4B98471C4B98471B4B98476C
S21400455001230E9390E7194B9847184B98473F9BBB
S21400456053F8211096E7339B53F8223013939AE7BB
S214004570124B9847114B9847104B98473F9B53F860
S21400458022300793A1E7BEF1004F40F099816FF00B
S21400459000435EE10A4B0B4A4FF4B3710A480B4CDA
S2140045A0A0470B4B074A40F267110748074CA04745
S2140045B0FEFFFF1F49920000F1450100753801001B
S2140045C03C170800A81708004C170800853801009B
S2140045D07C170800129B01331293109A14990A4410
S2140045E01092069A524406920E9A9A4214D0139B40
S2140045F0002BEFDD189BA3F10409DDF85C80149A0C
S214004600109B1A4408921D46069B0AEB0304199B4E
S2140046105842169B59423DE1159B052B03DD339806
S21400462008B1B64B9847389B052B03DD399808B17F
S214004630B24B9847119B052B03DD3F9808B1AF4B53
S2140046409847449B052B03DD459808B1AB4B98472C
S2140046500020FFF772BBF30F43EA4703BCF1000FDD
S214004660FFF66FACBCF11F0F3FF788AC109A02EB59
S214004670D3760C9A1A4043FA0CF39642B8BF01332D
S2140046800A9A1344089A9342B8BF1346099A93426B
S214004690A8BF134605F8013B0430049B9E44AA4578
S2140046A03FF473AC079B002B7FF742ACF346059FA5
S2140046B0002217F9016B1BF9013B1B1BA6EB080632
S2140046C006FB03228F42F4D1069B0BB103681A4403
S2140046D00B9B9A4091453FF42DACD71709FB07F684
S2140046E00F9B02FB0366A9FB02233344002A73F1E7
S2140046F00006C0F2818012F1804243F100031646A4
S2140047001F46002A73F1000BA5DA6FF0004600275B
S214004710B6185F419FE7F30F43EA47030028FFF60A
S214004720BFAD1F283FF7C3AD109A02EBD3760C9AA5
S2140047301A4003419642B8BF01330A9A1344049ABA
S2140047409342B8BF1346059A9342A8BF13460EF885
S214004750013B0434079B9844CE453FF4AFAD099B1C
S214004760002B7FF794ADC346069F002217F8016B17
S2140047701BF8013BA3EB0A03761B06FB03228F42C2
S214004780F4D1089B0BB123681A440B9B9A409445BE
S2140047903FF47FADD7170F9B02FB03F60CFB0766B3
S2140047A0A2FB0C233344002A73F1000639DB12F116
S2140047B0804243F1000316461F46002A73F1000BA1
S2140047C0A9DA6FF000460027B6185F41A3E74C4E03
S2140047D04FF0FF37B6185F4132463B46002E77F162
S2140047E0000B03DBF30F43EA470332E06FF00046AB
S2140047F00027B6185F41F5E7414E4FF0FF37B61871
S2140048005F4132463B46002E77F1000B03DBF30F89
S21400481043EA470322E76FF000460027B6185F41D9
S214004820F5E7374E4FF0FF37B6185F4132463B4646
S214004830002E77F1000B03DBF30F43EA47036DE727
S2140048406FF000460027B6185F41F5E7F30F43EA1E
S2140048504703BCF1000FFFF69DAEBCF11F0F3FF7FC
S214004860A0AE0A9A02EBD376099A1A4043FA0CF3E2
S2140048709642B8BF0133049A9342B8BF1346059ACE
S2140048809342A8BF134625F8023BD044089B9D429E
S2140048903FF4A0AE59F8042F079B002B0BDDC34650
S2140048A0069F17F8016B1BF8013B03440E4416FBEA
S2140048B00322A742F5D10B9B9A4096453FF463AE80
S2140048C0D7170D9B02FB03F60EFB0766A2FB0E2313
S2140048D03344002A73F10006FFF679AF12F18042E6
S2140048E043F1000316461F46002A73F1000BADDAAB
S2140048F06FF000460027B6185F41A7E799910000C1
S214004900010000C070B406460446054D0FCD0FC426
S21400491095E80F0084E80F00304670BC704700BF73
S2140049200418080088421CD030B4C517CB1700FB0B
S21400493003F301FB0533A0FB01011944002871F1C4
S214004940000314DB10F1804041F1000102460B46E3
S214004950002871F100041FDBD00F40EA430030BC92
S2140049607047B0F1004FDFD16FF0004070470D4A3E
S2140049704FF0FF338018594102460B46002871F16C
S214004980000403DBD00F40EA4300E8E76FF0004284
S214004990002312184B41F5E76FF00042002312186F
S2140049A04B41D9E7010000C02DE9F84F6FF00042F7
S2140049B00023141843EBE075002C75F10003B9BF13
S2140049C04FF0FF324FF0FF3301220023A01845EBD3
S2140049D00301CB0FC01841F1000149104FEA300027
S2140049E083465649564B984700F15A340325DFF85C
S2140049F050A16FF000484FF0000968E0B4F1004F96
S214004A006CD14FF0FF3E00206FF0004250E04FF0B8
S214004A1000424DE0B4F1804FB4BF0023012358425A
S214004A20B4F1404FCCBF002201225142E5172419B1
S214004A306D41B4F1004F75F1FF3614DB6FF00046A0
S214004A400027A64277EB0506B8BF6FF00044013B8F
S214004A501C4020F000406040013A104001F0004346
S214004A605840BDE8F88F4FF00044F0E7D10F41EA18
S214004A704301B1F1005F4FF0FF3EB8BF4FF0000EAC
S214004A80B1F1604F4FF0FF30C8BF00200A46CB1789
S214004A909F0047EA91778E00B6F1004F77F1FF331B
S214004AA0B5DBB04579EB0703ACBF32466FF000428A
S214004AB06FEA0E0313402EF0004E83EA0E03C24345
S214004AC0134000F0004043401C44013DA2D0214664
S214004AD05846D047C0F1005E74458FD07246D31753
S214004AE0E1170EFB01F204FB0323AEFB040119449D
S214004AF0002871F100030EDB10F1804041F1000147
S214004B0002460B46002871F1000EAFDA10EB0802E1
S214004B1041EB0903AAE70B4A4FF0FF3312184B414B
S214004B2010461946002A73F1000E03DA12EB08004D
S214004B3043EB0901C30F43EA41019AE7C4C3C3C369
S214004B4025490000010000C088421CD030B4C517BB
S214004B50CB1700FB03F301FB0533A0FB010119444F
S214004B60002871F1000314DB10F1804041F10001D0
S214004B7002460B46002871F100041FDBD00F40EA06
S214004B80430030BC7047B0F1004FDFD16FF00040FB
S214004B9070470D4A4FF0FF338018594102460B46C6
S214004BA0002871F1000403DBD00F40EA4300E8E779
S214004BB06FF00042002312184B41F5E76FF00042F9
S214004BC0002312184B41D9E7010000C02DE9F0413F
S214004BD0144F00F1805631463046134DA847044620
S214004BE03146A847804621462046A847C30F0133D2
S214004BF000F0030280109342B8BF01300B494044D6
S214004C00A847204400F00103B3EBD07FCCBF0124BB
S214004C10002404EB600081193846A8473844BDE8F4
S214004C20F08100BF94A8F570494B0000ABAAAA2AF1
S214004C30F0B5059C9368D3F808E0DD688F684A688D
S214004C40D1F810C0CE680B78012B08D0022B2CD0E0
S214004C50012B35D0022B35D000210B4608E0A918D1
S214004C60013991FBF2F107EB0E00013890FBF7F3E8
S214004C70013B07FB03C3A3EB0E0323EAE3730139EF
S214004C8002FB0162521B22EAE27202EBD271491069
S214004C90216003EBD3714910616002F00102A2604B
S214004CA003F00103E3600020F0BDA918891B91FB07
S214004CB0F2F107EB0E00A0EB0C0090FBF7F3D7E742
S214004CC00021D0E70021F4E72DE9F04FDBB00446E1
S214004CD0D1F8149087680B685E68B60107EB060883
S214004CE04B685D6807EB851532AB00932B46424652
S214004CF04946DFF8DCA2D04780B9B85D032800F04B
S214004D00F381092800F0F08101280AD06569A64BD6
S214004D1098470246A5492046A84701205BB0BDE853
S214004D20F08F99F81430012B00F0D480032B00F09C
S214004D30D680022B00F0D8809D4B1B936FF40003A7
S214004D401A93D9F808302293D9F804302393D9F867
S214004D5010302493D9F80C302093339B2593329B44
S214004D602693B8F1000F00F0C580D8F8086056F812
S214004D70044B3C94052C40F3C1808E4B9C4294BF60
S214004D80A0004FF0FF308C4B98473D90A200314674
S214004D908A4B9847D8F804301593002D00F0B08061
S214004DA0AE6856F8044B3694052C40F3B080814B21
S214004DB09C4294BFA0004FF0FF307F4B984737903F
S214004DC0A20031467D4B98476B681E933C9B042B94
S214004DD040F09B80369B042B40F09B803D9B0E93BF
S214004DE0379A17929A4240F09680DDF800A13A9BD7
S214004DF00F93534540F091803E9B0D93DDF8FCB039
S214004E00389B1293399B1693179B002B40F36A81AD
S214004E1000230993CDF884B00AFB0BF31D93129B75
S214004E20002B40F35881229B2C93BDF994300D9AA9
S214004E302A92D11828915B42139300231493099B5E
S214004E4003FB02F32B93169A002A40F33681289B25
S214004E502A99591A21EAE171199124989842A8BF13
S214004E6018460890239B2D93BDF9983003EB0B0052
S214004E7027905B421193002310932B9B13980344B7
S214004E800B44219901FB03F32993129B099914986B
S214004E9001FB030302FB03F31F935346DA469B46CC
S214004EA00F9B002B40F3F880119B1893279A2199AB
S214004EB0511A21EAE171069120989042A8BF104647
S214004EC007904FF00009299AD3180B440BFB03F305
S214004ED01C93B4E0364B1B9300231A9331E7384BF0
S214004EE01B9300231A932CE74FF07E531B93354BEE
S214004EF01A9326E700233C9315934EE73DA845E713
S214004F00002336933C9B042B03D02F4B984737A89F
S214004F1056E72D4B98472C4B98472B4B98472A4BD8
S214004F209847294B9847284B9847274B9847059B07
S214004F3001330593039A0A990A440392049A0132AC
S214004F400492089A934245DA069B079A9342EEDA51
S214004F50099B002BE3DB0E9A9A42E0DD049B002BB4
S214004F60DFDB0D9A9A42DCDD0B9B002BDBDB534527
S214004F70D9DA0C9C039DB9F1000FD6DBCB45D4DD06
S214004F8029683198114B984700280CBF33462B46AA
S214004F901B683193A742CAD0002CC4DB631C45446F
S214004FA0A245C0DD1C46E6E701910000281908006E
S214004FB0FFFF7F7FFEFFFF1F49920000F1450100C3
S214004FC00000C040000080BF753801005525010074
S214004FD0314C0000099B002B56DB179A9A4253DD92
S214004FE0149B002B52DB129A9A424FDD109B002B2B
S214004FF04EDB169A9A424BDDB9F1000F4ADB0F9B47
S2140050004B4547DD1F9B109A9D180F9B03FB05958C
S214005010319C1A9E31462046A94B984700B134462B
S2140050201B9E31462046A74B984700B134461E9B30
S21400503043F8254009F101090F9B99452CD06FF4E0
S21400504000033193089B1946199A9142C2DD1D9BB5
S2140050509B000A931C9B4B44159901EB8303039317
S2140050601346139A9A1804924FEA8B080593189AD7
S214005070134606990B440B934B1C13440C93079B47
S214005080119A9F1831AE5FE78F4B98478E4B984723
S2140050908D4B98478C4B9847109B0133109327995C
S2140050A02D9A891A2791119911441191169A9342B3
S2140050B07FF4F6AE5B46D3469A46149B01331493B0
S2140050C028992C9A891A2891139911441391129AA7
S2140050D093427FF4B8AE099B01330993179A934223
S2140050E07FF49DAE002019E6032802D0092840F080
S2140050F0F58099F8141031AB009330AB2A46204661
S214005100724CA047D9F80840D9F804301A93D9F859
S21400511010301B93D9F80C301993BDF9CC301C9382
S214005120BDF9C8301D93309B0B93319B0C93BB5D30
S214005130032B00F0D580B8F1000F00F07182D8F88C
S214005140087057F8046B4896052E40F36D82604B46
S2140051509E4294BFB0004FF0FF305E4B9847499098
S214005160B20039465C4B9847D8F804301193002DAE
S21400517000F05C82AF6857F8046B4296052E40F349
S2140051805982534B9E4294BFB0004FF0FF30514BB4
S21400519098474390B20039464F4B98476B681E932A
S2140051A00B9B0C9A934200F347820B9B13F1800FE4
S2140051B0C0F244820C9B7F2B00F34282489B042B58
S2140051C040F04082429B042B40F03E82499B0A936B
S2140051D0439A17929A4240F03982DDF830A1469BF6
S2140051E00D93534540F034824A9B0993DDF82C9189
S2140051F0449A1692459A1592179A002A40F30D8201
S2140052004FF0000828942693CDF884900AFB09F303
S21400521008930DF1BF0B5346C2469846169B002BCB
S21400522040F3C782099A1C9950182290494210915F
S2140052300021129102FB0AF2249203FB0AF3259343
S214005240159A002A40F3A782229B2699591A21EA2A
S214005250E17113911B989842A8BF184605901A9BB7
S21400526027931D9809EB0003209343420F930023D6
S2140052700E93249B109803440B44219901FB03F3DF
S2140052802393259B12990B4402FB03F31F930D9B5C
S214005290002B40F372820F9B1493209A2199511A87
S2140052A021EAE171039119989042A8BF1046049034
S2140052B00024239AD3180B4408FB03F3189339E20F
S2140052C0552501009125010075380100ED1D0000EF
S2140052D0FEFFFF1F49920000F14501008E4B9847E4
S2140052E0B8F1000F00F0C080D8F8087057F8046BCB
S2140052F05496052E40F3BC80884B9E4294BFB00067
S2140053004FF0FF30864B98475590B2003946854B94
S2140053109847D8F804301293002D00F0AB80AF68A1
S21400532057F8046B4E96052E40F3A8807B4B9E42A2
S21400533094BFB0004FF0FF30794B98474F90B200C3
S2140053403946784B98476B6817930B9B0C9A934299
S21400535000F396800B9B002BC0F294800C9BFF2BD7
S21400536000F39280549B042B40F090804E9B042BBD
S21400537040F08E80559B0A934F9A15929A4240F0C1
S2140053808980DDF860A1529B1193534540F08480DC
S214005390569B0993DDF85C91509A1492519A139299
S2140053A0159A002A40F339814FF000082794289375
S2140053B0CDF888900AFB09F308930DF1BF0B53460E
S2140053C0C2469846149B002B40F321811C9A0999EB
S2140053D050181E9052420D920022109201FB0AF2C3
S2140053E0259203FB0AF32693139A002A40F30181C1
S2140053F01E9B2899591A21EAE17116911B9898422A
S214005400A8BF184605901A9B23931D9809EB000326
S2140054101F9343420F9300230E93259B0D9803443E
S2140054200B44229901FB03F32493269B10990B440B
S21400543002FB03F32193119B002B40F3CC800F9BC0
S21400544018931F9A2299511A21EAE171049119982A
S2140054509042A8BF104603900024249AD3180B4409
S21400546008FB03F3209390E000235493129353E732
S21400547055A84AE700234E93179366E74FA85EE7C2
S214005480254B9847244B9847234B9847224B9847E1
S214005490214B9847204B98471F4B98471E4B9847E1
S2140054A01D4B98471C4B98471B4B98470CF1010C1B
S2140054B0089B9E440137059B634535DD039B049A94
S2140054C09342F3DDBAF1000FE8DB0A9B9A45E5DA72
S2140054D0002FE5DB099B9F42E2DA069B002BE1DB0F
S2140054E09945DFDD079B7246002CDDDBA045DBDD42
S2140054F09DF8BF0011788842ACBF5946114609781E
S2140055008DF8BF10AB42D1D0002BCBDB591C3244F8
S2140055104B45C7DA0B46E7E775380100FEFFFF1F6D
S21400552049920000F14501009DF8BF309DF82C20FF
S2140055309A4201DD9DF82C308DF8BF300C99CAB226
S2140055409342C8BF1346BAF1000F3CDB159A92454A
S21400555039DA109A002A38DB1499914235DD0E9A12
S214005560002A34DB1399914231DD002C31DB119A8D
S214005570A2422EDD219A0E990A441198179D00FB2F
S214005580025213550134844225D000238DF8BF30D3
S214005590169A05998A4280F213814646209B03EBB1
S2140055A0040E129B9E4413460D9A9F189C46189A0A
S2140055B0134604990B4406934B1C13440793039B12
S2140055C00F9A9D187AE7834B9847824B9847814BF2
S2140055D09847804B98470E9B01330E931F99239A4A
S2140055E0891A1F910F9911440F91139A93427FF4D1
S2140055F022AF109B013310931E99279A891A1E9189
S2140056000D9911440D91149A93427FF4EDAE0AF170
S214005610010A159B9A457FF4D5AE0020FFF77EBBA6
S214005620002348931193A2E549A899E500234293E5
S2140056301E93B5E543A8ADE5664B9847654B98477E
S214005640644B9847634B9847624B9847614B984723
S214005650604B98475F4B98475E4B98475D4B984723
S2140056605C4B98470CF1010C089B9E440137059B48
S21400567063452FDD039B049A9342F3DABAF1000FD9
S214005680E8DB0A9B9A45E5DA002FE5DB099B9F429B
S214005690E2DA069B002BE1DB4B45DFDA079B72461E
S2140056A0002CDDDB4445DBDA9DF9BF0092F90010E3
S2140056B08842ACBF5946114691F900108DF8BF10CC
S2140056C0AB42CFD0002BC9DB591C32449945C5DD0F
S2140056D00B46E5E79DF9BF209DF92C309342B8BFF5
S2140056E013468DF8BF309DF930209342A8BF13466D
S2140056F0BAF1000F39DB179A924536DA129A002A69
S21400570035DB16998A4232DA0E9A002A31DB159971
S21400571091422EDD002C2EDB0D9A94422BDA1F9A36
S2140057200E990A440D981E9D00FB02521355013433
S214005730844222D080238DF8BF30139A05998A427E
S214005740C8DA4646189B03EB040E119B9E4410993C
S2140057508F189446039B149A9918069101331344A4
S2140057600793049B0F9A9D1884E71A4B9847194B8A
S2140057709847184B9847174B98470E9B01330E9344
S2140057802099279A891A20910F9911440F91159AFA
S21400579093427FF47CAD129B013312932299289A90
S2140057A0891A2291109911441091169A93427FF407
S2140057B047AD0AF1010A179B9A457FF42FAD2CE7F7
S2140057C09DF8BF309DF82C209A423FF7B3AE8DF877
S2140057D0BF30B8E67538010010B504462022002117
S2140057E0024B9847024BE360204610BDED47010090
S2140057F0C94C000010B484680B685A6804EB821227
S2140058004B685B6804EB83145168636899420AD05E
S214005810936943B100235168C85C6168C85401337A
S21400582091699942F7D8002010BC70472DE9F04FD7
S21400583085B006468568D1F800A0DAF804304FEA4D
S214005840831C05EB0C034A685468A40105EB040BA3
S2140058509F68D7F800E0BEF1000F23DD0437012271
S2140058600023002057F8041B4FEAE17902FB09F8F1
S21400587001FB0388A2FB0123434401307045F1D1AC
S214005880DBF80890DAF80030012B0DD0D9F800E0EC
S214005890BEF1000F53DD09F1040000234FF0FF387E
S2140058A0012713E00122EBE7D9F80070012FEDD1B4
S2140058B0D9F80430002B5DD0D9F800E0EBE7B8F15A
S2140058C0FF3F0BD198460133734518D050F8041BA0
