:10000000C8FC0120D5020000D1020000D10200008E
:10001000D1020000D1020000D10200000000000067
:10002000000000000000000000000000D1020000FD
:10003000D102000000000000D1020000D102000047
:10004000D1020000D1020000D1020000D102000064
:10005000D1020000D1020000D1020000D102000054
:10006000D1020000D1020000D10200008909000085
:10007000D1020000D1020000D1020000D102000034
:10008000D1020000D1020000D1020000D102000024
:10009000D1020000D1020000D1020000D102000014
:1000A000D1020000D1020000D1020000D102000004
:1000B000D1020000D1020000D1020000D1020000F4
:1000C000D1020000D1020000D1020000D1020000E4
:1000D000D1020000D1020000D1020000D1020000D4
:1000E000D1020000D102000000000000000000006A
:1000F00000000000D9080000D1020000D102000079
:10010000D1020000D1020000D1020000D1020000A3
:10011000D1020000D1020000D1020000D102000093
:10012000D1020000D1020000D1020000D102000083
:10013000D1020000D1020000D1020000D102000073
:10014000D1020000D1020000D1020000D102000063
:10015000D1020000D1020000D1020000D102000053
:10016000D1020000D1020000D1020000D102000043
:10017000D1020000D10200000000000000000000D9
:10018000D1020000D1020000D1020000D102000023
:1001900000000000D1020000D1020000D1020000E6
:1001A000D1020000D1020000D1020000D102000003
:1001B000D1020000D1020000D1020000D1020000F3
:1001C000D1020000D1020000D1020000D1020000E3
:1001D000D1020000D1020000D1020000D1020000D3
:1001E000D1020000D1020000D1020000D1020000C3
:1001F000D1020000D1020000D1020000D1020000B3
:10020000D1020000D1020000D1020000D1020000A2
:10021000D1020000D1020000D1020000D102000092
:10022000D1020000D1020000D1020000D102000082
:10023000D1020000D1020000D1020000D102000072
:10024000D1020000D1020000D1020000D102000062
:10025000D1020000D1020000D1020000D102000052
:10026000D102000010B5054C237833B9044B13B10B
:100270000448AFF300800123237010BDD009002093
:1002800000000000185602000C4B43B10C480D4909
:1002900010B5AFF300800C48036823B910BD0A48BD
:1002A000036833B97047094B002BF7D0BDE8104005
:1002B0001847064B002BF5D0184700BF0000000080
:1002C00018560200D4090020185602000000000051
:1002D000FEE7000008B51C4B1C4A9A4210D01C4B8C
:1002E000194A9A420CD2013B9B1A23F003030433B0
:1002F0001344164951F8040B42F8040B9A42F9D101
:10030000144B154A9A420AD2013B9B1A23F003036D
:1003100004331344002142F8041B9342FBD10F4BDA
:100320000F4A22F07F029A60D3F8882042F47002CC
:10033000C3F88820BFF34F8FBFF36F8F094B9847E7
:10034000094B9847FEE700BF000000201856020046
:10035000D0090020C8FC0020D009002000ED00E0FA
:10036000000000009D500100310C000010B5044B4E
:100370001C68044B984701462046034B984710BD24
:10038000EC0900201D0700003907000070B50D467C
:100390001646044660B1081C18BF012034220549E6
:1003A000054B98472368324629462046984770BD3A
:1003B0000020F3E7F0C2010041060000F8B58446D2
:1003C00007682FB18D683C460026C2F1010E0BE094
:1003D0000E4B9847F8BD7344A0680344AB420AD261
:1003E0002368264653B11C4663689342F3D8A0683D
:1003F00003449B1AF2E7A74204D034462046044B3C
:100400009847F8BD6046014B9847F8BD6906000063
:10041000950600002DE9F047446907690137076137
:10042000037E13F0010F13D1037E13F0020F0FD1DF
:1004300054B36368FB1AA268934207D3064600F1DF
:100440001408DFF84890DFF848A012E0BDE8F08714
:10045000037E43F002030376BDE8F0877569E36825
:100460002046984785B12C466B68FB1AAA689342D0
:100470000AD34046C847237C012BEFD167603A4638
:1004800021464046D047E9E7BDE8F0879D060000D9
:10049000BD03000038B50D46044678B1081C18BFEE
:1004A00001203B220649074B984729462046064B28
:1004B000984700202061054B236038BD0020F0E7FD
:1004C00004C30100410600001D09000015040000DE
:1004D0002DE9F8430F469046044628B331B3101C6B
:1004E00018BF0120F1221249124B98470834124DCF
:1004F0002046A8470028FBD0013F0026DFF84090A7
:100500000D4D17F8011F2046C8472046A847002870
:10051000FBD001364645F4D3084D2046A8470028B5
:10052000FBD03046BDE8F8830020DBE70020D9E7A8
:100530001CC3010041060000E30A0000ED0A0000B0
:10054000D50A00002DE9F8430F4690460446E0B175
:10055000E9B1101C18BF01204FF486720D490E4BF3
:100560009847013F002608340C4DDFF834902046B0
:10057000A8470028FBD02046C84707F8010F0136DE
:100580004645F4D33046BDE8F8830020E4E7002078
:10059000E2E700BF1CC3010041060000F70A0000AB
:1005A000DB0A000038B50D46044698B1081C18BF98
:1005B000012034220849094B9847294604F10800D4
:1005C000074B9847034618B9064A6260064A2260FC
:1005D000184638BD0020ECE71CC3010041060000AE
:1005E000950A000045050000D104000010B504463E
:1005F00053220649003018BF0120054B984704F1EB
:100600000800044B9847002010BD00BF1CC3010028
:1006100041060000C10A000038B50C46054648B145
:10062000081C18BF012069220349044B9847256024
:10063000002038BD0020F6E71CC301004106000081
:1006400000B900BE704703684BB18B4209D01B68EC
:100650001BB19942FBD10120704700207047002058
:10066000704701207047000038B504460D46064B20
:10067000984780F0010039220449C0B2044B9847E2
:1006800023682B60256038BD4706000038C3010091
:100690004106000003680B600160704703680BB1FE
:1006A0001A6802601846704708B5034B1868034B78
:1006B0009847002008BD00BFF80900208D03000006
:1006C000002070470346064A126822B1044A1068A7
:1006D0000344136070470349014A1160F6E700BF05
:1006E000F0090020C8FC01204FF0FF3070474FF4A4
:1006F00000534B6000207047012070470020704776
:1007000008B501460148024B9847FEE758C301006F
:10071000715B010070474FF0FF307047C0EB001075
:10072000430102330348A0FB03235B08642000FB62
:1007300003F07047ABAAAAAA0139FDD8704700BFE1
:1007400010B5094A13889BB21380084B9847084B91
:100750009847084B98470820074CA047074B9847F5
:1007600040F6F770A04710BD00400041CD070000E3
:10077000ED070000C107000081070000F10700003D
:1007800010F0010F08D00B4A0B4B1A62194643F6C2
:10079000FD724B681342FCD110F0080F08D0074AD5
:1007A000054BDA62194643F6FD724B681342FCD1E1
:1007B000704700BF06090100001C00400509010048
:1007C0000122014B5A71704700080040064B42F26B
:1007D0008E029A8200229A75DA75DA6902F47C52E6
:1007E000DA6101221A74704700140040704700005B
:1007F000364A136A23F00F0343F0040313621146D1
:1008000043F6FD724B681342FCD1304A536813F033
:10081000040FFBD12E4B00221A772E4A9A621A46F9
:1008200092F82C3013F0100FFAD10022284B83F8E5
:1008300020201A4692F82C3013F0040FFAD102222D
:10084000234B1A771A4692F82C3013F0020FFAD184
:100850001F4B5A6A5A621A4692F82C3013F0080F4E
:10086000FAD180221A4B83F820201A4692F82C30B5
:1008700013F0040FFAD1164B93F8203013F0010F48
:100880001DD0134A136903F41063B3F5106FF9D147
:100890000E4A5368002BFCD10C4A136A23F00F0355
:1008A00043F006031362114643F6FD724B68134290
:1008B000FCD1064A536813F0040FFBD17047044A79
:1008C000136913F4807FFBD0E2E700BF001C0040F7
:1008D000001000400000010400B583B00D4B9B7870
:1008E000DBB20193019B13F0020F06D00A4B1B6889
:1008F0001BB1084A5068984709E0019B13F0010FAB
:1009000005D0054B5B6813B1024A5068984703B0A5
:100910005DF804FB0000024168FC002038B50C467D
:10092000054630221449003018BF0120134B984768
:10093000EC600123238048F2030223691342FCD1B7
:10094000EB681A6912F0010FFBD148F280021A809D
:1009500048F203011A690A42FCD1EA6820231362B3
:10096000136913F0600FFBD1EB684FF480725A816A
:10097000034B1D60002038BD74C301004106000018
:10098000F40900200020704710B5084B1C68E3688C
:100990009B8913F4807F07D023680BB120469847CA
:1009A000E3684FF480729A8110BD00BFF409002003
:1009B00070B489B006466C460D4D0FCD0FC495E856
:1009C0000F0084E80F00009BB3420DD0314601AB0D
:1009D000012053F8042B8A4207D001300828F8D1AF
:1009E000002009B070BC70470020C0B2F9E700BF1A
:1009F0008CC3010010B50446214B9847042805D04C
:100A000040F247221F4900201F4B9847E36913F02B
:100A1000010F19D1E36913F0030FFBD1236813F021
:100A2000020F0BD0236823F002032360E36913F065
:100A3000030FFBD1E36913F0020FFBD10523236001
:100A4000E36913F0030FFBD1E36913F0010FFBD14E
:100A50000E4B2360E36913F0030FFBD14FF44033D7
:100A60006360E36913F01F0FFBD1094BA3604FF2E2
:100A70002B63A3810020A07384F8300010BD00BF59
:100A8000B1090000C4C30100410600000400104089
:100A90000200700038B50C460546BB2205490030FF
:100AA00018BF0120044B98472C602046034B984701
:100AB00038BD00BFC4C3010041060000F5090000B5
:100AC0000268136843F002031360D36913F0030F45
:100AD000FBD170470368996270470368986AC0B297
:100AE00070470368187E00F0010070470368187EA5
:100AF000C0F3400070470368187EC0F38000704761
:100B000008B5014B984708BDA10B0000104B93F8A6
:100B1000C82002F0FE0242F0010283F8C82093F8D8
:100B2000B42002F0F00242F0030283F8B42093F8FC
:100B3000C92002F0FE0242F0010283F8C92093F8B6
:100B4000B42002F00F0242F0300283F8B420704764
:100B500000800041064B4022C3F808214322C3F81D
:100B60008C20044A136A43F001031362704700BFEC
:100B7000001C00400008004008B5054B98470022C3
:100B80004FF086410348044B9847044B984708BDF3
:100B9000550B000094FC0020A50500000D0B000083
:100BA00008B5124B9847124B0222C3F89820C3F89D
:100BB000882002F18042C3F8A8204FF04042C3F8D9
:100BC000A82093F8C12002F0FE0283F8C120094A50
:100BD000536943F400735361074B98470246074932
:100BE0000748084B9847084B984708BD4107000045
:100BF00000800041000800408509000000240040FA
:100C000078FC002095040000790B000010B5044C1E
:100C100004492046044B98472046044B984710BD92
:100C200094FC0020F809002019060000ED050000E2
:100C300008B50B4B98470B4B98470B4B98470B4EFF
:100C40000B4D0C4CB0470C22294620680A4B9847A4
:100C500002220A4BC3F89C206420094B9847F1E715
:100C6000010B00000D0C0000910D0000311200007E
:100C700080100200F80900208D0300000080004170
:100C80006D030000704708B503681B69984708BDED
:100C900008B503685B69984708BD202919D030B4AE
:100CA000D0F8A440BCB10D4683698B420CD00246FB
:100CB00000230133A34209D020329169A942F8D11F
:100CC00000EB4310043002E0043000E0002030BCB0
:100CD0007047002070470020F9E7704738B5D0F81A
:100CE000C450052D12D8BDB190F8A8308B420FD05A
:100CF00000F1A902002301339D420BD012F8014BF1
:100D00008C42F8D12C3350F8230038BD034B984760
:100D10000023F7E7002038BD002038BD3D4B01001F
:100D20002DE9F843D0F8A460CEB189468046044648
:100D300000250C4F03E001352034B5420CD0A369E7
:100D4000202BF8D14946E069B8470028F3D108EBD9
:100D500045100430BDE8F8830020BDE8F88300208A
:100D6000BDE8F8830961010010B50446CC21024BAF
:100D70009847204610BD00BF5DA4000010B5044692
:100D80000421024B9847204610BD00BF5DA400001F
:100D9000F0B58DB0A74B1B78BFF35B8F13F0010F3D
:100DA00000F0A480A348A44B4360A44B1968CA1860
:100DB0008260CB58D31A1988042940F3A6809B88F7
:100DC000002B00F0AA80D258032A40F09F80994B54
:100DD0001B7BBFF35B8F13F0010F00F0A08004A812
:100DE000974B9847934803691B6903211030984734
:100DF000002800F0AF808F4BD3F8D80018B1032241
:100E00009049914B984704A8904B984789480369AB
:100E10001B69042110309847002800F0CB80854BD7
:100E2000D3F8D80018B104228649874B984704A804
:100E3000874B98477F4803691B6909211030984701
:100E4000002800F0E7807B4BD3F8D80018B10922C6
:100E50007C497D4B984704A87E4B984775480369A9
:100E60001B69112110309847002800F03781714B21
:100E7000D3F8D80018B111227249734B984704A8CF
:100E8000754B98476B4803691B69192110309847C7
:100E9000002800F05381674BD3F8D80018B119220D
:100EA0006849694B9847634B93F8DC30BFF35B8F1D
:100EB00013F0010F00F07281684C04F55470C4F80F
:100EC000D003674B98470021D4F8D003654B98476F
:100ED00083681A68042A03D15A68012A00F07F81C6
:100EE0006149544B5868584B984714E051485F4B40
:100EF000984700283FF456AF4E485D4B98475D4AEF
:100F00005D494D485D4B98474CE7002203235C49FF
:100F100049484D4CA0470DB0F0BD0022F6E75948B6
:100F2000524B984700283FF45AAF424C564B23612E
:100F30000023C4F8B430C4F8D430C4F8D83004F175
:100F40000C004B4B98474B4A504904F110004B4B57
:100F5000984744E7374BD3F8B460042E0AD9D3F846
:100F6000D80000283FF44FAF052303224849364CF0
:100F7000A04748E72F4F07EB461E0EF1140404ADBF
:100F80000FCD0FC495E80F0084E80F000322CEF8C0
:100F900028200136C7F8B460D7F8D430F91881F8A2
:100FA000B82007EB83023B49C2F8C0100133C7F8F1
:100FB000D43028E71F4BD3F8B460042E0AD9D3F8F5
:100FC000D80000283FF433AF0523042230491E4CDB
:100FD000A0472CE7174F07EB461E0EF1140404AD93
:100FE0000FCD0FC495E80F0084E80F000422CEF85F
:100FF00028200136C7F8B460D7F8D430F91881F842
:10100000B82007EB83022449C2F8C0100133C7F8A7
:10101000D4300CE7074BD3F8B460042E3ED9D3F894
:10102000D80000283FF417AF052309221849064CC1
:10103000A04710E7FC09002004000020E0C30100E5
:10104000613700001011020065120000554D0000CC
:10105000715E0000456D0000F57200008CF7002005
:10106000199C0000719E0000A411020065A40000FC
:101070009DA4000000000020850C00004DA400008D
:10108000C8100200080A0020AC100200DB0C0000AF
:10109000601102008D130000CD140000564F07EBC5
:1010A000461E0EF1140404AD0FCD0FC495E80F00D9
:1010B00084E80F000922CEF828200136C7F8B46072
:1010C000D7F8D430F91881F8B82007EB83024B49E0
:1010D000C2F8C0100133C7F8D430BCE6464BD3F891
:1010E000B460042E0AD9D3F8D80000283FF4C7AE64
:1010F000052311224249434CA047C0E63E4F07EB6F
:10110000461E0EF1140404AD0FCD0FC495E80F0078
:1011100084E80F001122CEF828200136C7F8B46009
:10112000D7F8D430F91881F8B82007EB8302364994
:10113000C2F8C0100133C7F8D430A0E62E4BD3F864
:10114000B460042E0AD9D3F8D80000283FF4ABAE1F
:10115000052319222A492B4CA047A4E6264F07EB6A
:10116000461E0EF1140404AD0FCD0FC495E80F0018
:1011700084E80F001922CEF828200136C7F8B460A1
:10118000D7F8D430F91881F8B82007EB83021F494B
:10119000C2F8C0100133C7F8D43084E61C481D4B98
:1011A000984700283FF488AE134C1B4D0023029350
:1011B000636801934FF47043009304F1E00304F17A
:1011C0001002A1682846154EB04704F1DC00144B0C
:1011D0009847144A14492846144B98476CE69A6875
:1011E000802A7FF47DAEDB68032B7FF479AE037831
:1011F000012B7FF475AE8EE6FC0900202916000055
:1012000060110200651200005D1700009D180000CB
:10121000D80A002065A40000DCFA0020C19B000071
:101220009DA4000000000020FF9A00004DA40000D3
:1012300008B5074BD3F8D003064B984700B908BD53
:1012400000220549054B5868054B9847F7E700BF52
:101250008CF70020659D0000CC110200FC090020E5
:10126000651200000EB400B582B003AA52F8041B48
:10127000019203689B68984702B05DF804EB03B0E5
:1012800070470CB400B583B004AA52F8041B019255
:1012900003689B68984703B05DF804EB02B07047A1
:1012A000013804280ED8DFE800F0030507090B0019
:1012B00001207047022070470320704704207047C8
:1012C000052070470020704720B101280CBF022084
:1012D000002070470120704708B518B121B12AB12C
:1012E00033B108BD034B9847024B9847014B9847D1
:1012F000004B98473D4B010008B50B2837D8DFE875
:1013000000F00A06161A22262A122E1E0E320A2370
:101310000B70002008BD01230B70002008BD0B23BB
:101320000B70002008BD07230B70002008BD0223AE
:101330000B70002008BD03230B70002008BD09239B
:101340000B70002008BD04230B70002008BD05238E
:101350000B70002008BD06230B70002008BD082379
:101360000B70002008BD0C230B70002008BD134635
:1013700002460020087003491846034B9847012095
:1013800008BD00BFA8120200651200002DE9F0415F
:1013900082B004460F4615469846454EB0472B6826
:1013A0001B68042218212846984700285AD0064670
:1013B0002368E31A1A880A2A4EDD598900294BD07E
:1013C000615C012948D10C2A46DD9B89E718002B76
:1013D00042D0E5587C193FD07B59E31A1A88042A79
:1013E0004DDD9B88002B4CD0E056C0B2314B984766
:1013F00030707B59E31A1A88062A44DDDB88002BFB
:1014000043D0E35873607B59E31A1A88082A3EDDFB
:101410001B89002B3DD0E358B3607B59E31A1A882F
:101420000A2A38DD5B89002B37D0E056C0B2224B48
:10143000984730737B59E31A1A880C2A2FDD9B8951
:101440007BB3E35833617B59E31A1A880E2A2ADDED
:10145000DB8953B3E3587361C8F80060002002B021
:10146000BDE8F081154B01934FF47B730093144B4F
:10147000144A39463846144CA0470120EFE70020B3
:10148000B3E70020B1E70023BCE70023BAE700235D
:10149000C2E70023C0E70020C8E70020C6E7012319
:1014A000D0E70123CEE70123D5E70123D3E700BF2F
:1014B000D9120000C9120000A11200001C13020082
:1014C000CC12020004130200831200002DE9F04147
:1014D00082B004460F46154698464C4EB0472B68DE
:1014E0001B6804221C2128469847002865D0064620
:1014F0002368E31A1A880A2A59DD5989002956D027
:10150000615C022953D10C2A51DD9B89E718002B1D
:101510004DD0E5587C194AD07B59E31A1A88042A21
:1015200058DD9B88002B57D0E056C0B2384B984707
:1015300030707B59E31A1A88062A4FDDDB88002BAE
:101540004ED0E35873607B59E31A1A88082A49DDA4
:101550001B89002B48D0E358B3607B59E31A1A88E3
:101560000A2A43DD5B89002B42D0E358F3607B59A4
:10157000E31A1A880C2A3DDD9B89002B3CD0E056EB
:10158000C0B2244B984730747B59E31A1A880E2A4C
:1015900034DDDB89002B33D0E35873617B59E31AC8
:1015A0001A88102A2EDD1B8A73B3E358B361C8F87A
:1015B0000060002002B0BDE8F081174B019340F2BB
:1015C00016430093154B164A39463846154CA0472A
:1015D0000120EFE70020A8E70020A6E70023B1E7FD
:1015E0000023AFE70023B7E70023B5E70023BDE7FB
:1015F0000023BBE70020C3E70020C1E70123CCE7BD
:101600000123CAE70123D1E70123CFE7D912000064
:10161000C9120000A11200001C130200CC1202002B
:1016200004130200831200002DE9F04782B0044643
:10163000894690469A46414DA847D8F800301B6825
:101640000122042140469847002854D005462368CB
:10165000E31A1A880A2A69DD5989002966D0615C73
:10166000082963D10C2A61DD9B89E718002B5DD026
:10167000E658BC195AD0BB59E31A1A88042A47DD28
:101680009B88002B46D0E056C0B22D4B984728705F
:10169000BB59E31A1A88082A3EDD1B89002B3DD06E
:1016A000E35C003318BF0123AB70BB59E31A1A88FF
:1016B0000A2A35DD5B89002B34D0E35C003318BF88
:1016C0000123EB70BB59E31A1A88062A2CDDDB884C
:1016D00053B3E35643B3012B2CD01A4948461A4B57
:1016E0009847D8F800305B68294640469847012063
:1016F00002B0BDE8F087154B019340F252430093CE
:10170000134B144A49464846134CA0470120EFE7C3
:101710000020B9E70020B7E70023C2E70023C0E7B5
:101720000023CBE70023C9E700236B70CAF8005001
:101730000020DDE701236B70F8E700BFD91200003D
:10174000A112000030130200651200001C130200F9
:10175000CC12020004130200831200002DE9F041B4
:1017600082B004460F4615469846454EB0472B6852
:101770001B68042228212846984700285BD006468B
:101780002368E31A1A880A2A4FDD598900294CD0A8
:10179000615C052949D10C2A47DD9B89E718002B9C
:1017A00043D0E5587C1940D07B59E31A1A88042AA3
:1017B0004EDD9B88002B4DD0E056C0B2314B984790
:1017C00030707B59E31A1A88062A45DDDB88002B26
:1017D00044D0E35873607B59E31A1A88082A3FDD26
:1017E0001B89002B3ED0E358B3607B59E31A1A885B
:1017F0000A2A39DD5B89002B38D0E358F3607B5926
:10180000E31A1A880C2A33DD9B89002B32D0E35867
:1018100033617B59E31A1A880E2A2DDDDB896BB3FD
:10182000E056C0B2184B98473075C8F800600020E9
:1018300002B0BDE8F081154B019340F2495300938B
:10184000134B144A39463846134CA0470120EFE7A2
:101850000020B2E70020B0E70023BBE70023B9E790
:101860000023C1E70023BFE70023C7E70023C5E744
:101870000023CDE70023CBE70020D2E70020D0E70C
:10188000D9120000C9120000A11200001C130200AE
:10189000CC12020004130200831200002DE9F04173
:1018A00082B00446884615461E461D4FB8472B6831
:1018B0001B68042211462846984700B30246236855
:1018C000E31A19880A2915DD588998B1205C09287E
:1018D00010D10C290EDD9B89E1185BB1E358C818C3
:1018E00008D0CB58C31A1988042915DD9B88ABB1E1
:1018F000C35813603260002002B0BDE8F081094B8C
:10190000019340F2FD530093074B084A414640467D
:10191000074CA0470120EFE70023EAE70023E8E7B0
:10192000D91200001C130200CC12020004130200A2
:10193000831200002DE9F0410E4617461D46002394
:101940002B600368C31A1A88042A41DD998800298C
:101950003ED0445C082A1BDD1989E1B150F80180B2
:101960007E2C1BDC202C3AD1062A2ADDDB88C1180C
:101970003BB3C358C91824D033685B68424604316E
:10198000304698472860B0FA80F04009BDE8F08101
:101990004FF00108E4E74FF00108E1E7224616495D
:1019A0003846164B98470120BDE8F0814346144A5B
:1019B00052F8242013493846104CA0470120BDE8B6
:1019C000F081114938460D4B98470120BDE8F08160
:1019D000082A01DD0024BFE74FF001080024336826
:1019E0001B68424621463046984728600028DDD0D3
:1019F0000020BDE8F08100BFD8150200651200008C
:101A0000D81302002C1602006416020090F82D3044
:101A100093B130B40378092B0CBF056900254468E5
:101A2000836933B1234603F8015B1A1B8169914234
:101A3000F9D8002030BC7047002070472DE9704372
:101A40008046894616461C46002200231C4DA847A6
:101A500020B1002333602360BDE8708322464046F6
:101A60004946184B98470022174B184DA847184B6A
:101A70009847184B98474FF00042002382428B4111
:101A800013DB002908BFB0F1004F10D0B0F1004FB8
:101A900071F1000311DA236813F11F0F02DA00233A
:101AA000236000203060BDE870830B4B98472368AB
:101AB000013323604FF08040EDE7074B984700BFAC
:101AC00031310100B12401000000E041612C01002E
:101AD00015250100E93801003D4B01002DE9F041D9
:101AE00006460F4690461C460022094B094DA84762
:101AF00050B12346424630463946074DA847236831
:101B0000002B03DBBDE8F081044B9847034B98475B
:101B10000000F03F813101003D1A00003D4B010003
:101B20002DE9F84F82468B4616461F460A98C0F1AB
:101B30001F00012303FA00F0134B984780468946A3
:101B4000124C32463B4650465946A04702460B4689
:101B500040464946A04704460D4609A3D3E9002361
:101B60000B4EB04738B9204629460C9B0B9A094CBE
:101B7000A047BDE8F88F02A1D1E90001F5E700BF59
:101B80000000C0FFFFFFDF41952B0100612C010029
:101B900081310100DD1A00002DE9F84381468846B5
:101BA0001546012404FA00F00138194B98470646FF
:101BB0000F46A5EB0900A0F12001C0F1200304FAB3
:101BC00001F124FA03F3134D04FA00F01943A84776
:101BD00002460B46304639460F4EB04706460F4682
:101BE000A8F12001C8F1200304FA01F124FA03F35B
:101BF00004FA08F01943A84702460B463046394616
:101C0000064CA047064B9847064B9847BDE8F8831B
:101C1000952B0100052C0100612C0100B52E01005F
:101C200099230100953101002DE9F04182B08046F1
:101C300008461D46D168C068134B98470446134BAD
:101C4000984706460F4600212046114B984778B129
:101C5000E8680E4B984702460B46304639460D4C15
:101C6000A047089BC3E90001002002B0BDE8F08155
:101C7000094B0093D8F81440A723084A0849404666
:101C8000A0470120F1E700BFE1340100B92B0100BA
:101C900045380100B52E0100601C0200341C020012
:101CA00004130200000000002DE9F04782B08246D4
:101CB0000D4617461C46224EC868B04780468946E6
:101CC000F868B04702460B46404649461D4EB047AD
:101CD000E4B1804689461A4EE068B04702460B469A
:101CE00040464946184CA047804621F000440A9BD4
:101CF000D868B04702460B4640462146134CA047E1
:101D00000DA3D3E90023124CA04750B10B9B0093C5
:101D10000A9B3A46294650460E4CA04702B0BDE801
:101D2000F0870D4B0093DAF814409A230B4A0C49C4
:101D30005046A0470120F1E77B14AE47E17A943F7B
:101D4000B92B0100612C0100F9280100B52E01001A
:101D500059310100291C00007C1C0200341C0200C7
:101D6000041302002DE9F04F83B01D461378032BB6
:101D70001FD0092B20D0072B12D147F6FF76364F04
:101D8000D2F80C80146901291AD0032929D002291C
:101D900044D02F600C9B1E60002003B0BDE8F08F84
:101DA0002E4B00934469DA232D4A2E49A047012087
:101DB000F3E7FF260027E3E77F266FF07F07DFE7E3
:101DC00041460020284B9847284B9847284B984776
:101DD0002044B842B8BF384628600C9B1E600020E3
:101DE000DBE7DFF884B041460020D847DFF87CA06D
:101DF000D047DFF87C90C8472044B842B8BF384687
:101E0000286041461B48D847D047C8472044B042C5
:101E1000A8BF30460C9B18600020BEE7DFF848B032
:101E200041461548D847DFF844A0D047DFF8409036
:101E3000C8472044B842B8BF3846286041464FF0F2
:101E40007E50D847D047C8472044B042A8BF30464C
:101E50000C9B18600020A0E70080FFFFA01C020080
:101E6000341C02000413020049360100B5250100AC
:101E70006D3801000000C040000080BF2DE9F04F28
:101E800091B00590099391F83030012B40F0848097
:101E90008B46914692F83030012B40F08D80536B89
:101EA000002B00F098801A680892002A00F09D80AC
:101EB000089AD2F800A0BAF1010F18DD0A78092AB1
:101EC00002D0072A40F09B8099F80020092A40F0B0
:101ED000A080229A924540F0AB80D9F808209B68F8
:101EE00002EB83025368229A934240F0B080DBF801
:101EF0000C3006931A9BDB680793089B04331A4641
:101F0000229B002B3CDD209F043F219E043E0024A9
:101F10006B4D0497CDF828B0CDF82C9091469B4698
:101F2000BAF1010FCEBF59F82400089B5868A847A2
:101F3000074688460698A84702460B46384641465B
:101F4000604FB847074688460798A84702460B46A1
:101F5000384641465C4FB8470EAB0DAADFF8A88162
:101F6000C0470D9B049A42F8043F04920E9B46F82A
:101F7000043F01345C45D3D1DDF828B0DDF82C9066
:101F80009BF80030032B70D0092B00F08F80072BBB
:101F900000F08C8000200CE00124039402934B4B52
:101FA00001934B4B0093456936234A4A4A49A84757
:101FB000204611B0BDE8F08F012403940293434BF7
:101FC0000193464B0093059845693823414A42499D
:101FD000A8472046EDE7424B009305984469422309
:101FE0003C4A4049A0470120E3E73F4B0093059856
:101FF00044694323374A3B49A0470120D9E73B4B7B
:102000000093059844694823324A3649A047012085
:10201000CFE7092303930292354B0193354B00938D
:102020000598446949232B4A2B49A0470120C0E762
:102030000392CDF808A0304B0193304B00930598E4
:1020400044694A23234A2449A0470120B1E7039366
:1020500002922B4B0193284B0093059844694D2322
:102060001C4A1D49A0470120A3E710AB0020002116
:1020700063E9020101931A9B0093099B4A46594662
:102080000598204CA047002893D10DAB1C9ADDE9A0
:102090000E011D4CA0470D9B5B421D9A13609BF8DF
:1020A0000030092B02D0032B7FF471AF1B9B1978F2
:1020B0001F9B00931E9B1A9A0598144CA04778E723
:1020C000B92B0100612C0100B52E0100C41C0200D7
:1020D000E01C0200341C0200A81C0200FC1C0200D0
:1020E000181D0200041302002C1D0200481D0200EE
:1020F000841D0200901D0200A01D0200B01D020000
:10210000D41D0200A91C00003D1A0000651D00003E
:1021100008B5034B1B68D968024B984708BD00BF40
:1021200020000020A94C010000B583B0836B63B18F
:1021300002AA002142F8041D28219847012814BF53
:102140000198002003B05DF804FB014B984700BFE5
:102150003D4B01002DE9F0478AB0189E0C682468B9
:10216000023C012C13D84C682568012D18D001249D
:10217000039402955B4B01935B4B0093456950239D
:102180005A4A5B49A84720460AB0BDE8F087594B38
:10219000009344694F23554A5749A0470120F3E76C
:1021A00092F800C0D2F80890D2F804E05469139F66
:1021B0007D1E176907FB05F707F1010ABCF1010F46
:1021C00011D0BCF1020F50D0149D013D04FB05F469
:1021D00004F10108BCF1010F5CD0BCF1020F5BD02F
:1021E00000252C4610E00EEB0305013D95FBFEF5A6
:1021F000149F07F1FF3804FB08F404F10108129C56
:102200004C44013C94FBF9F4013C09FB0484129F0B
:10221000E41B24EAE474013D0EFB05A5EB1A23EA56
:10222000E37303EBD3756D10356004EBD4756D105B
:10223000756003F00103B36004F00104F4609DF8DD
:102240005C30012B4BD085680B685C6805EB841E05
:102250009C6805EB84141F68022F21DDDB68B3F155
:10226000FF3F1BD005EB83131BE00EEB0305A5EB33
:102270000A0595FBFEF5149F07F1FF3804FB08F4EF
:1022800004F10108129C09EB040CACEB080C9CFB5C
:10229000F9F4B9E70025B2E70025F3E7002300E0F1
:1022A0000023A7687F680897F7690797B7690697BB
:1022B00006F12407059706F12007049706F1140795
:1022C0000397103602960C3201924A68526805EB69
:1022D0008215009522467146084CA04754E700201D
:1022E00052E700BF58240200541F0200041F0200DE
:1022F000A81C0200301F0200041302007D1E000013
:102300002DE9F04F8FB0D1F810A0BAF1000F2FD007
:1023100005460C46D1F814B0BBF1000F2AD0D0F816
:1023200008800B685F68BF0108EB07029B6808EB39
:1023300083199368DA6808929B680993D9F8083082
:10234000DA680A929A680B924A68526808EB82121D
:102350009268D1680C9192680D925E68B600836BAA
:102360000AF118023146984730B10FB0BDE8F08F3E
:10237000404B98473F4B9847AB6B0AF11C023146E4
:10238000284698470028F0D118F80730092B13D0B9
:10239000CDF818A005930D9B04930C9B03930B9B06
:1023A00002930A9B0193099B0093089B5A4621467E
:1023B0002846314CA047D8E799F83020012A22D18D
:1023C000D9F83420002A2DD01168002934D0506863
:1023D00000283BD00A68012A04D0D9F808104968BF
:1023E0008A423DD101688A42D2D003910292234BA6
:1023F0000193234B00936C69A323224A2249284668
:10240000A0470120B1E70124039402921F4B0193DE
:102410001F4B00936E6996231A4A1B492846B04702
:102420002046A2E71B4B00936C699A23154A1A4970
:102430002846A047012098E7184B00936C699B231E
:10244000104A15492846A04701208EE7144B0093F7
:102450006C699C230B4A10492846A047012084E759
:10246000104B00936C69A123064A0B492846A047EC
:1024700001207AE73D4B01005521000004200200B5
:10248000B01D0200041F0200A81C0200C41C0200B0
:10249000FC1C0200181D0200041302002C1D020087
:1024A000681F0200881F02002DE9F04FD7B0609D21
:1024B000DDF88491DDF888A1659C29690891D9F837
:1024C00010100991216925911968009159680191AD
:1024D000D2F804B091680291116903915269049293
:1024E0001A6913925F691A6A17925B6A1893002D32
:1024F00000F05F81D5F8088058F8046B3896052EF7
:1025000040F35B81B04B9E4294BFB0004FF0FF3070
:10251000AE4B98473990B2004146AD4B98476B6837
:102520000C93B9F1000F00F04A81D9F8086056F811
:10253000045B3E95052D40F34D81A34B9D4294BF16
:10254000A8004FF0FF30A14B98473F90AA003146BA
:102550009F4B9847D9F804302693BAF1000F00F04A
:102560003B81DAF8086056F8045B4495052D40F38A
:102570003781954B9D4294BFA8004FF0FF30934B9D
:1025800098474590AA003146914B9847DAF80430B5
:102590001A93002C00F02681A66856F8045B4A9531
:1025A000052D40F32381884B9D4294BFA8004FF036
:1025B000FF30864B98474B90AA003146844B984792
:1025C00063680693639B002B00F01281639B9D68F8
:1025D0002C685094052C40F30D817B4B9C4294BF9A
:1025E000A0004FF0FF30794B98475190A200291D71
:1025F000774B98470FFA8BF30D93BDF90850BDF94F
:102600000CE0BDF91060BDF90040BDF90480179BD6
:10261000189A934200F3F080389B042B40F0EE8030
:102620003E9B042B40F0EC804A9B042B40F0EA8058
:10263000399B0A934B9A1E929A4240F0E5803C9B4C
:102640000793DDF80891994540F0E0803F9B0B939C
:102650004E9A12929A4240F0DB801A9BABB1449A98
:10266000052ACCBF459945A9002A40F3D3800B46E3
:1026700001EB8201012253F8040B00FB02F29942A4
:10268000F9D1129B9A4240F0C780DDF8E8B0DDF83E
:10269000ECC0409B0593DDF804A14C9914914D9B2F
:1026A0001A4622931E98002840F3F88179420029A7
:1026B000D4BF38460020249001238340581E329016
:1026C0004010339012982F9017461346149A03FB2C
:1026D00002F300FB03F03090069820900CFB0BF304
:1026E000079800FB03F22E92C8F10008CDF8C480D1
:1026F00063422C9308FB0CF31B1B0C9C00FB034454
:102700001D94129B1A4602FB07F42B942A9502464D
:1027100000FB0CF303FB05F036900D9C289410464B
:1027200002FB04F42994CDF81090059A0AFB02F2FA
:1027300009FB02F22D9209FB0AF21192109603FB9B
:1027400006F30F93CDF808E000FB0EF3039300238C
:102750000693139B1C46DD17CDE9344521EAE1734E
:102760003793149B002B40F38A81319B23931D9B4D
:102770001993209B1F9300231C935B46D346E2468C
:102780009C46229B002B40F363812C9B0E93199B4C
:1027900016931F9B159300231B93E046129B002B5F
:1027A00040F34281269B2193159B27934FF0000C09
:1027B00006E1002338930C93B3E639A8ABE6002377
:1027C0003E932693C9E600BFFEFFFF1F11A5000040
:1027D000C15801003FA8B9E6002344931A93D8E6F4
:1027E00045A8CFE600234A930693EBE64BA8E3E621
:1027F0005093FFE651A8F9E6854B9847844B9847DC
:10280000834B9847824B9847814B9847804B98471A
:102810007F4B9847012234E77D4B98477C4B984784
:102820007B4B98477A4B9847794B9847784B98471A
:10283000774B984701334B4530D0002AFADB52459D
:10284000F8DA0029F6DB4145F4DA069C002CE5DBDA
:102850000A9DA542E2DD002BE2DB079C9C42DFDD06
:10286000F45CBCF1000FDDDB0B9FBC45DADABEF196
:10287000000FD9DB059F7745D6DD0028D6DB8345E1
:10288000D4DD9945D4DD009FFD5C099FED1B089FB9
:10289000E41B019F04FB05740194CBE7009F01300A
:1028A000029B1A44049B1F44039B1E44584505D0B9
:1028B000B9F1000FF3DD00230097BEE70EF1010E22
:1028C0000D9B119A13440D930C9B0F9A13440C9378
:1028D000109B1944059B9E4509D0BBF1000FEDDD0F
:1028E0000C9E0D9F0E9A0020E2E7002301931A9B95
:1028F00023B153F82C30019A1A440192019A379B64
:102900009A40139B934267D0D517359B02FB03F186
:10291000139800FB0511A2FB00230B44002A73F15E
:102920000001C0F2CC8012F1804243F10003104656
:102930001946002A73F10004C0F2D680C30F43EA9F
:102940004103249A002A4DDB249A1F2A51DC339A32
:1029500002EBD371329A1A40249803419142B8BFD6
:102960000133259A1344179A9342B8BF1346189A15
:102970009342A8BF1346069A002A41DB1E99914252
:102980003EDD1C9A002A3DDB14998A423ADA1B9AF2
:10299000002A39DB22998A4236DABCF1000F35DB96
:1029A000129A944532DA279A02F8013B27920CF1E9
:1029B000010C219B2D9A13442193129B9C4533D0EB
:1029C000059B002B91DD2399169B0C93219B0D9366
:1029D000002301939E4680E7B3F1004F94D16FF03E
:1029E0000043AEE70B4B0C4A4FF4B3710B480C4C51
:1029F000A0470C4B084A40F267110848084CA04712
:102A0000034B9847024B9847014B9847004B984718
:102A10003D4B01002C200200881E02003C200200D9
:102A20004D4B01006C2002001B9B01331B93159A38
:102A30002F990A441592169A29990A4416920E9AC9
:102A400028990A440E92229A93427FF4A7AEC44674
:102A50001C9B01331C931F9A2B990A441F92199AAD
:102A600036990A441992239A2A990A442392149A6D
:102A700093427FF486AE6346D446DA469B46069B75
:102A800001330693209A30990A4420921D9A2E9978
:102A90000A441D921E9A93427FF463AE509B052B0D
:102AA00003DD519808B1134B9847449B052B03DD78
:102AB000459808B10F4B984757B0BDE8F08F0E48C6
:102AC0004FF0FF318018594102460B46002871F142
:102AD000000403DBC30F43EA410332E76FF0004019
:102AE000002180185941F5E76FF00040002180185F
:102AF000594123E761A40000010000C02DE9F04F17
:102B0000CDB0569D579C2969039159990969169131
:102B1000D2F80890D2F80480D2F814B0D2F810A0FD
:102B20005A6800921A6801921A6A12925A6A1392AB
:102B30009A691492DB691593002D00F03981AF6812
:102B400057F8046B3496052E40F33581A84B9E420E
:102B500094BFB0004FF0FF30A64B98473590B200BD
:102B60003946A54B98476F68002C00F02681A6686F
:102B700056F8045B3A95052D40F323819C4B9D420A
:102B800094BFA8004FF0FF309A4B98473B90AA00A3
:102B90003146994B984763681A93589B002B00F075
:102BA0001281589B9E6856F8045B4095052D40F3B2
:102BB0000D818F4B9D4294BFA8004FF0FF308D4B8D
:102BC00098474190AA0031468B4B9847589B5B68C9
:102BD0001993599B002B00F0FB80599B9D6855F879
:102BE000044B4694052C40F3F680814B9C4294BFE5
:102BF000A0004FF0FF307F4B98474790A200294636
:102C00007D4B9847599B5E680FFA88F80FFA89FE4A
:102C10000FFA8AFC0FFA8BFBBDF90440BDF9005096
:102C2000129B139A934200F3D880349B042B40F0FC
:102C3000D6803A9B042B40F0D480469B042B40F076
:102C4000D280359B0593479A1B929A4240F0CD80E3
:102C5000389B0493DDF8F890994540F0D1803B9B78
:102C600006934A9A0E929A4240F0CC80199BABB1DF
:102C7000409A052ACCBF419841A8002A40F3C4805D
:102C8000034600EB8200012253F8041B01FB02F211
:102C90009842F9D10E9B934240F0B880369B07933F
:102CA000DDF8DCA03C9B02933D9B1A4601934899BA
:102CB0001791499B1C931B99002940F38A810E9818
:102CC00032901946179B01FB03F300FB03F0299098
:102CD0002696079B0AFB03F3049E06FB03F32A9345
:102CE0006D422B95634230930AFB05F31B1B06FBD9
:102CF000037525950E9800FB01F13391CDF8B0E0F6
:102D000006FB0AF30EFB03F12E91CDF8BC8006FB07
:102D100008F12D91CDF824901146029C02FB04F29B
:102D200009FB02F2319209FB01F21092CDF844B096
:102D30000BFB03F30F93CDF820C006FB0CF30A93B3
:102D40004FF0000B4B46D9469B46179B002B40F398
:102D500032812B9B1D93259B2893269B2793002331
:102D600024931C9B002B40F31381309B0D93289BD5
:102D70001F93279B1E93002323930E9B002B40F34E
:102D8000F480149B043B2093159B043B21931A9BD6
:102D900018931E9B22934FF00008029B002B6CDDC2
:102DA0001D9C1F9B0B93189B0C93002635465AE0E5
:102DB00000273497D8E635A8D1E600233A931A9332
:102DC000EBE63BA8E3E64093199302E741A8F9E656
:102DD0000026469618E747A810E7084B9847074B88
:102DE0009847064B9847054B9847044B984700BFB8
:102DF000FEFFFF1F11A50000C15801003D4B01005F
:102E0000AF4B9847AE4B9847012243E7AC4B9847EE
:102E1000AB4B9847AA4B9847A94B9847A84B984764
:102E2000A74B9847A64B9847009E0130089B1A4431
:102E3000099B9C440A9B9E44019B984205D0BBF190
:102E4000000FF2DD0023009620E101350C9B109A63
:102E500013440C930B9B0F9A13440B93119B1C442C
:102E6000029B9D420AD0019B002BEEDDDDF82CE099
:102E7000DDF830C00D9A0020E1E70026199B13B160
:102E800053F828301E44209B53F8040F2093219BB5
:102E900053F8047F219327EAE772002FD4BF7F42C3
:102EA00000279640B04200F09E80F517C31706FB3E
:102EB00003F100FB0511A6FB00230B44002A73F16C
:102EC0000001C0F2ED8012F1804243F10003104690
:102ED0001946002A73F10004C0F20881C30F43EAC7
:102EE00041031846002FC0F285801F2F00F3898010
:102EF0000123BB40013B5A1002EBD07100EA0302F0
:102F000040FA07F39142B8BF0133169A1344129A5C
:102F10009342B8BF1346139A9342A8BF1346B9F120
:102F2000000F75DB1B9A4A4572DD249A002A71DB7B
:102F300017998A426EDA239A002A6DDB1C998A421D
:102F40006ADAB8F1000F69DB0E9A424566DD229A13
:102F500002F8013B229208F10108189B319A1344B0
:102F600018930E9B98457FF418AF239B013323934E
:102F70001E9A32990A441E921F9A2D990A441F9252
:102F80000D9A2F990A440D921C9A93427FF4F5AE44
:102F9000249B01332493279A33990A442792289A31
:102FA0002E990A4428921D9A2C990A441D92179A28
:102FB00093427FF4D6AE09F10109269B299A134466
:102FC0002693259B2A9A134425931B9B99457FF4AE
:102FD000BCAE409B052B03DD419808B1394B9847A7
:102FE0004DB0BDE8F08FB6F1004F7FF45EAF6FF0EB
:102FF000004376E7344B354A4FF4B3713448354CCF
:10300000A047354B314A40F267113148314CA04757
:103010002B4B98472A4B9847294B9847284B984762
:10302000B9F1000FFFF6F4AE059949457FF7F0AE10
:10303000002BFFF6EFAE049999427FF7EBAE1EF935
:103040000310B8F1000FFFF6E7AE069E46457FF786
:10305000E3AE002DFFF6E2AE029EAE427FF7DEAE9B
:103060000028FFF6DDAE019E86427FF7D9AE9B4574
:103070007FF7D8AE1CF90370039E891B009E01FBED
:103080000761009101335B453FF4CEAE002AF9DBC6
:103090005245F7DA002CF5DB07998C42C0DBF1E7EB
:1030A0000E484FF0FF318018594102460B46002868
:1030B00071F1000414DBC30F43EA410311E700BFC1
:1030C0003D4B010061A400002C200200881E02007C
:1030D0003C2002004D4B01006C200200010000C0AA
:1030E0006FF00040002180185941E4E76FF0004084
:1030F000002180185941F1E62DE9F04FD1B05A9CDA
:10310000117B012900F06A81032900F06C810229FA
:1031100000F06E81AD4916916FF400011591D3F85E
:1031200000B05B680193D2F804809568D2F81090E3
:10313000D2F814A0002C00F06181A76857F8046B46
:103140003296052E40F35E81A14B9E4294BFB000A3
:103150004FF0FF309F4B98473390B20039469E4B5B
:103160009847636803935B9B002B00F04D815B9B4A
:103170009F6857F8046B3896052E40F34881944BAE
:103180009E4294BFB0004FF0FF30924B9847399069
:10319000B2003946904B98475B9B5B6825935C9BDC
:1031A000002B00F036815C9B9F6857F8046B3E96BD
:1031B000052E40F33181864B9E4294BFB0004FF004
:1031C000FF30844B98473F90B2003946824B984776
:1031D0005C9B5B6817935F9B002B00F01F815F9BDC
:1031E0009F6857F8046B4496052E40F31A81784B7C
:1031F0009E4294BFB0004FF0FF30764B9847459009
:10320000B2003946744B98475F9B5F685D9B002B0B
:1032100000F009815D9B9E6834684A94052C40F358
:1032200004816B4B9C4294BFA0004FF0FF30694B70
:1032300098474B90A200311D674B98470FFA88F8CA
:103240002DB20FFA89F90FFA8AFE0FFA8BF6BDF943
:103250000440329B042B40F0EA80389B042B40F062
:10326000E880449B042B40F0E680339B0C93459A06
:103270001E929A4240F0E180369B0B93DDF8F0B04D
:103280009B4540F0DC80399B0D93489A14929A42FA
:1032900040F0D780179BABB13E9A052ACCBF3F992F
:1032A0003FA9002A40F3CF800B4601EB82010122A7
:1032B00053F8040B00FB02F28B42F9D1149B9A42A3
:1032C00040F0C380349B0193DDF8D4A03A9A089271
:1032D0003B9B19460293469802462390479B2193B5
:1032E0001E98002840F3B981184603FB02F39B00A7
:1032F000149A02FB03FCCDF8B8C01A97019B0AFB95
:1033000003F39B000B9A174602FB03F32A936342D5
:103310001C462B9373422893930004FB0AF2921BE2
:10332000039E03FB026620960246149C02FB04F2F5
:1033300090002C90299507FB0AF2920002FB05F001
:103340002D90A0002F90CDF8C08008FB03F03190A5
:103350000846089C01FB04F189000BFB01F1279151
:1033600000FB0BF189001391CDF844E002FB0EF253
:1033700012924FEA8B020692CDF8149009FB03F3E8
:10338000049300230A93239B002B40F357812B9B2C
:103390001993209B1D931A9B189300231C93219B28
:1033A000002B40F33881289B10931D9B2493189B7E
:1033B000229300231B93149B002B40F31981259B20
:1033C0001F93229B269300230993EAE0FFFF7F7F50
:1033D000FEFFFF1F11A50000C15801007C49169196
:1033E000002115919BE67B4916910021159196E6E7
:1033F0004FF07E5116917849159190E60023329353
:103400000393B0E633A8A8E638932593C7E639A816
:10341000BEE63E931793DEE63FA8D5E60027449725
:10342000F4E645A8ECE64A9308E74BA802E76B4BA5
:1034300098476A4B9847694B9847684B9847674B42
:103440009847664B9847012238E7644B9847634B8F
:103450009847624B9847614B9847604B98475F4B42
:1034600098475E4B984701345C4532D0002DFADB1B
:103470005545F8DA002EF6DB019B9E42F3DA0A9BF3
:10348000002BE4DB0C9A9342E1DA002CE1DB0B9B8E
:10349000A342DEDD58F82400099A002ADBDB0D99EF
:1034A0008A42D8DA079A002AD7DB08998A42D4DA06
:1034B000002FD4DB029ABA42D1DDA345D1DD59F801
:1034C0002410474B984701460398464B9847039072
:1034D000C9E70137059B1D44069B9944049B98440A
:1034E000029B9F4204D0BBF1000FF2DD0024BDE738
:1034F000079B013307930F9A13990A440F920E9A70
:1035000012990A440E92119A1644089A93420BD0CB
:10351000029B002BECDDDDF83880DDF83C90109D3F
:103520000027E0E700230393179B002B46D0099A5E
:1035300053F822000A9B002B42DB1E9A93423FDA8B
:103540001C9B002B3EDB239A93423BDA1B9B002BF8
:103550003ADB219A934237DA099B002B36DB149A27
:103560009A4233DD03991F4B98470446159D29461F
:103570001D4B984700B12C46169D294620461B4BF3
:10358000984700B12C46269B43F8044B2693099B91
:10359000013309931F9A27990A441F92149A934260
:1035A00026D0089B002BBDDD199E249B0E931F9BEC
:1035B0000F930023079300230393A9E70020B9E7A3
:1035C000064B9847054B9847044B9847034B984741
:1035D000FFFF7F7F0000C040000080BF3D4B010027
:1035E000E1340100D13201001D38010059380100D9
:1035F0001B9B01331B93229A2F990A442292249AEF
:1036000031990A442492109A30990A441092219ACE
:1036100093427FF4D0AE1C9B01331C93189A2C99D3
:103620000A4418921D9A2D990A441D92199A2999B3
:103630000A441992239A93427FF4B1AE0A9B013354
:103640000A931A9A2E990A441A92209A2A990A449D
:1036500020921E9A93427FF496AE4A9B052B03DD7F
:103660004B9808B1054B98473E9B052B03DD3F98CF
:1036700008B1024B984751B0BDE8F08F61A400003B
:103680002DE9F04186B006464A6984684B685F6858
:1036900004EB87170B685D68AD0104EB050E9868B5
:1036A00004EB801C1868022809DDDB68B3F1FF3FDA
:1036B00002D004EB831804E04FF0000801E04FF063
:1036C00000080B6983B1605D03282ED009281ED045
:1036D00001280BD077691C4B9847635D02461B4954
:1036E0003046B84701200FE0194B98470597002452
:1036F00004940394CDF80880CDF804C0CDF800E020
:103700003046144DA847204606B0BDE8F08100249D
:1037100004940397CDF80880CDF804C0CDF800E0FC
:1037200030460D4DA8472046EEE705970024049447
:103730000394CDF80880CDF804C0CDF800E0304601
:10374000064DA8472046DFE7C5A300007C20020005
:103750003D4B0100F9300000FD2A0000A9240000C3
:1037600070B406460446054D0FCD0FC495E80F0012
:1037700084E80F00304670BC704700BFE41E0200B2
:1037800000B583B0836B63B102AA002142F8041D27
:1037900028219847012814BF0198002003B05DF844
:1037A00004FB014B984700BF3D4B01002DE9F04F52
:1037B00091B0D1F810A0BAF1000F29D005460F46FC
:1037C000D1F814B0BBF1000F24D0D0F808800B68FA
:1037D0005C68A40108EB04029B6808EB831918F8E5
:1037E00004300F939368DA680C929B680B93D9F8B6
:1037F0000830DA680D929A680E921E69B600836BE3
:103800000AF118023146984730B111B0BDE8F08F87
:103810008C4B98478B4B9847AB6B0AF11C02314697
:10382000284698470028F0D118F80430092B17D003
:103830003B681B68023B012B70D87B681B68012B1F
:1038400076D00124039402937F4B01937F4B009326
:103850006E6942237E4A7F492846B0472046D4E716
:1038600099F83030012B22D1D9F83430002B2DD0EB
:103870001A68002A34D0596800293BD01368012BFC
:1038800004D0D9F80820126993423DD10A689342C6
:10389000CED003920293704B0193704B00936C69EE
:1038A00096236B4A6B492846A0470120ADE70124C7
:1038B000039402936A4B01936A4B00936E698923C8
:1038C000634A64492846B04720469EE7664B00930A
:1038D0006C698E235E4A65492846A047012094E71B
:1038E000634B00936C698F23594A60492846A0476F
:1038F00001208AE75F4B00936C699023544A5B492F
:103900002846A047012080E75B4B00936C69942315
:103910004F4A56492846A047012076E7574B009367
:103920006C6941234A4A51492846A04701206CE767
:10393000DBF80800DBF804109BF80030012B08D0FE
:10394000022B47D0012B52D0022B52D000231A4613
:1039500009E00C9B0B44013B93FBF1F30B9A0244EF
:10396000013A92FBF0F2013A0E9C00FB02420B98E6
:10397000121A22EAE272013B0D9801FB03030C9933
:103980005B1A23EAE37303EBD3714910CAF8001002
:1039900002EBD2714910CAF8041003F00103CAF80F
:1039A000083002F00102CAF80C200F9B012B46D010
:1039B000A8683B68596800EB81119A6800EB821295
:1039C0001C68022C19DDDB68B3F1FF3F13D000EB5C
:1039D000831313E00C9B0B440D9A9B1A93FBF1F39A
:1039E0000B9A02440E9C121B92FBF0F2BBE70023E1
:1039F000B4E70023F4E7002300E00023946824697F
:103A00000894DAF81C400794DAF8184006940AF192
:103A1000240405940AF1200404940AF11404039484
:103A20000AF1100402940BF1100401947C6864689C
:103A300000EB841000902846114CA047E5E60020DA
:103A4000E3E600BF3D4B010058240200541F020072
:103A500014210200A81C020004200200B01D020074
:103A6000C41C0200FC1C0200181D0200041302000A
:103A70002C1D0200681F020048210200301F0200B6
:103A80007D1E00002DE9F04FADF50B7D82460869E3
:103A9000002832D04B69002B31D0DAF808804A6810
:103AA000546808EB84140A6851684FEA811908EBDE
:103AB0000906956808EB85151168032906BFD768C4
:103AC00008EB8717002718F80920032A00F0B885AB
:103AD000092A00F0E782012A1AD0DAF814401046C9
:103AE000084B984718F80930024607495046A04746
:103AF00001200DF50B7DBDE8F08F044B9847034B7B
:103B0000984700BFC5A300007C2002003D4B010088
:103B10001A7C012A00F05E81032A00F06981022AE2
:103B200000F06B81AE4A1A926FF40002199202689B
:103B3000019242680292D3F804A0D3F808B05A69FF
:103B400003929A690492DB680593002E00F05B8172
:103B5000D6F8089059F8048BCDF85081B8F1050FCC
:103B600040F353819F4B984594BF4FEA88004FF034
:103B7000FF309D4B984755904FEA880249469B4B32
:103B800098477668002D00F04281D5F8089059F8E2
:103B9000048BCDF83881B8F1050F40F33C81914B8F
:103BA000984594BF4FEA88004FF0FF308E4B9847FE
:103BB0004F904FEA880249468C4B98476B682D938B
:103BC000002F00F02A81D7F8088058F8045B489548
:103BD000052D40F32681834B9D4294BFA8004FF0F2
:103BE000FF30814B98474990AA0041467F4B984748
:103BF0007B682093002C00F01681A76857F8045BBF
:103C00004295052D40F31381764B9D4294BFA80049
:103C10004FF0FF30744B98474390AA003946734BDE
:103C20009847D4F804900FFA8AF00FFA8BF4BDF994
:103C30000CE0BDF91070BDF90450BDF908C0BDF924
:103C4000143022933193549B042B40F0F2804E9B0E
:103C5000042B40F0F080429B042B40F0EE80559BFB
:103C60001293439A1D929A4240F0E980469B1A466D
:103C70001893529B9A4240F0E480569B0693579BC0
:103C80000193589B0F93509A0792DDF84481449A10
:103C90001792459A1692229A03FB02F3189A9342BE
:103CA00040F0D180489B2F93052BCCBF499A49AA5D
:103CB0002F99002940F3C980134602EB81020121AC
:103CC000924653F8042B02FB01F15345F9D11091B0
:103CD000109B189A934240F0BB801D9B002B40F331
:103CE000D6814F9B1393169B179A03FB02F39B00FD
:103CF00018990A4602FB03F23492CDF89C90019A7F
:103D0000069B02FB03F34FEA83090F9B03FB09F9B0
:103D1000CDF8C090CCF1000CCDF8B8C06B42359313
:103D20000F9B9B0094462E9A0CFB02F2521B03FB46
:103D300002652395169E06FB01F296003396369493
:103D40000F9D624605FB02F2920002FB04F43294DE
:103D500089003A91389000FB03F13B912299399107
:103D600089003791109800FB08F189000C910A979F
:103D700002FB07F20B924FEA80090EFB03FA0023C5
:103D80000E93D346C246F046179B002B40F370813A
:103D90002E9B1E93239B2A93279B249300231C93E3
:103DA000169B002B40F35181359B0D932A9B2C933E
:103DB000249B289300231B930F9B002B40F33281FD
:103DC0002D9B25932C9B1F93289B2B93002326939D
:103DD00011930BE1024A1A9200221992A7E600BF42
:103DE000FFFF7F7FFEFFFF1F11A50000C1580100EC
:103DF000854A1A920022199299E64FF07E521A9241
:103E0000824A199293E65496BCE655A8B4E600237C
:103E10004E932D93D4E64FA8CBE6002348932093EE
:103E2000E8E649A8E0E6002342939946FBE643A86A
:103E3000F3E6774B9847764B9847754B9847744B0A
:103E40009847734B9847724B9847012310933FE76D
:103E50006F4B98476E4B98476D4B98476C4B984704
:103E60006B4B98476A4B9847694B984701354444D8
:103E70004F445E44554533D0002CF7DB019BA342F1
:103E8000F4DD029B002BF1DB069A9A42EEDD0E9BDD
:103E9000002BDFDB129A9342DCDA119B002BDBDB79
:103EA0000F9A9342D8DA3068139B002BD6DD059B1E
:103EB000002BD5DB079A9342D2DA002DD2DB554591
:103EC000D0DA099B002BCFDB109A9A42CCDD3968FF
:103ED000504B9847014608984F4B98470890C5E7C4
:103EE000059B01330593049A0C990A440492039AA2
:103EF0000B990A440392029A0A990A440292079A79
:103F0000934209D0BAF1000FEADD039E049F0D9C95
:103F10000025B1E700230893209B002B46D0099A87
:103F200053F822000E9B002B42DB1D9A93423FDA8E
:103F30001C9B002B3EDB179A9A423BDD1B9B002B00
:103F40003ADB169A9A4237DD099B002B36DB189A2A
:103F50009A4233DD0899304B98470446199D29460B
:103F60002E4B984700B12C461A9D294620462C4BD3
:103F7000984700B12C46159B43F8044B1593099BB9
:103F800001330993149A04321492219A934217D060
:103F9000079B002BBEDD1E9B02931F9B0393149B6C
:103FA00004930023059300230893ABE70020B9E7AF
:103FB000174B9847164B9847154B9847144B984703
:103FC000119B013311932B9A1046379908442B907B
:103FD000269A399802442692259A1046084425903C
:103FE0001F9A04321F920F9A93421BD0319B002BD1
:103FF000E6DD229A269B1A442192259A149209936F
:104000002B9B1593C4E700BF0000C040000080BF99
:104010003D4B0100E1340100D13201001D380100A7
:10402000593801001B9B01331B93289A3A990A4483
:1040300028922C9A3B990A442C920D9A38990A445A
:104040000D92169A93427FF4B7AE1C9B01331C93DA
:10405000249A33990A4424922A9A32990A442A9239
:104060001E9A36990A441E92179A93427FF498AE8C
:104070000E9B01330E93279A34990A442792239A70
:1040800030990A4423921D9A93427FF47DAE2F9B70
:10409000052B03DD499808B1014B9847002028E51E
:1040A00061A400000268019242680292D3F804A061
:1040B000D3F808B05A6903929A690492DB680593B1
:1040C00033690C932369289383692F93C3693093D1
:1040D000002E00F05981D6F8089059F8048BCDF8DD
:1040E000B081B8F1050F40F35381AD4B984594BFB3
:1040F0004FEA88004FF0FF30AA4B98476D904FEA87
:1041000088024946A84B984773681F93002D00F01A
:104110004181D5F8088058F8046B6696052E40F367
:104120003D819F4B9E4294BFB0004FF0FF309D4BAE
:1041300098476790B20041469B4B98476B68209325
:10414000002F00F03381BE6856F8045B6095052DA2
:1041500040F33081924B9D4294BFA8004FF0FF3056
:10416000904B98476190AA0031468F4B98477B68E7
:104170002193002C00F02081A66856F8045B5A9524
:10418000052D40F31D81864B9D4294BFA8004FF042
:10419000FF30844B98475B90AA003146824B98478A
:1041A00063682B930FFA8AF50FFA8BF4BDF90C7044
:1041B000BDF91060BDF90400BDF908E0BDF9143087
:1041C0001E9331936C9B042B40F0FC80669B042B68
:1041D00040F0FA805A9B042B40F0F8806D9B0A93C4
:1041E0005B9A1A929A4240F0F3805E9B1A461293B1
:1041F0006A9B9A4240F0EE806E9B0D93DDF8BCB155
:10420000709B0693689A0492DDF8A4815C9A1492DC
:104210005D9A13921E9A03FB02F3129A934240F0A6
:10422000DB80609B2C93052BCCBF619A61AA2C99F3
:10423000002940F3D380134602EB8102012194460A
:1042400053F8042B02FB01F16345F9D10791079B59
:10425000129A934240F0C5801A9B002B40F3D781FD
:10426000679B0B93129A3A92139B149903FB01F3E9
:1042700002FB03F13B910D990BFB01F3069901FB46
:1042800003FCCDF8F0C0CEF1000ECDF8F4E04342CF
:1042900032930EFB0BF31B1A01FB03F02A90129BC7
:1042A0001A461398034602FB03F3369338940A46E2
:1042B00001FB0BF304FB03F139913395114602FB2B
:1042C00005F237921E9A349292003592079A9446DC
:1042D00002FB08F210920E9603FB06F3119301FB0A
:1042E00007F900231D9302934B46E146BC46C246A4
:1042F000D8469B46149B002B40F37A813D9B1C9330
:104300002A9B26931D9B2793002315935B46E34628
:104310009C46139B002B40F35581329B0F93269BA9
:104320002393279B1B93002316934246D046CA46ED
:104330006346DC469B469146069B002B40F3288152
:104340002F9B2593309B24930023229305931E9B40
:104350001B9A13443E93D646319B002B40F30381B6
:104360001B99229A8B182B99CB1819933E98831876
:10437000CB182D93249B1893259B17939246059B4E
:10438000239A13442E93C4E000236C931F93BDE63D
:104390006DA8B4E6002366932093D1E667A8C9E62A
:1043A000FEFFFF1F11A50000C1580100002360930C
:1043B0002193DEE661A8D6E600235A932B93F1E61B
:1043C0005BA8E9E6974B9847964B9847954B9847DB
:1043D000944B9847934B9847924B984701230793E8
:1043E00035E7904B98478F4B98478E4B98478D4BAE
:1043F00098478C4B98478B4B98478A4B9847039D1F
:10440000019F0135099B109A13440993089B119A47
:10441000134408930E9B1E44049B9D420BD0B8F19D
:10442000000FEEDD089909980F9B00220395019774
:1044300000F049BC0027219B13B153F82A301F44D8
:10444000179B53F8044B1793189B53F8045B18936E
:1044500025EAE572002DD4BF6D42002507FA02F26D
:10446000944264D0E717D11704FB01F102FB071156
:10447000A4FB02230B44002A73F10001C0F249841B
:1044800012F1804243F1000310461946002A73F1ED
:104490000004C0F22284C30F43EA4103002D4CDB29
:1044A0001F2D51DC0122AA40013A511001EBD371BA
:1044B0001A402B419142B8BF0133289A13446FF040
:1044C0007F029342B8BF13467F2BA8BF7F23029A77
:1044D000002A40DB1A998A423DDA159A002A3CDB11
:1044E00014998A4239DA169A002A38DB13998A42DB
:1044F00035DABAF1000F34DB129A524531DD199AE0
:1045000002F8013B134619920AF1010A2D9A9342CF
:1045100029D0049B002B8DDD209B534409931F9BC6
:104520002E9A134408931C9E00273D4677E7B2F16C
:10453000004F97D16FF00043B0E73B4B3B4A4FF43D
:10454000B3713B483B4CA0473B4B384A40F26711A4
:104550003748384CA047334B9847324B9847314B3C
:104560009847304B9847059B01330593229A34991D
:104570000A442292259A1046359908442590249A97
:10458000104608442490069A93427FF4E5AEF24622
:10459000169B013316931B9A3A990A441B92239A4D
:1045A00037990A4423920F9A33990A440F92139A27
:1045B00093427FF4C1AE4A46D146C2465B46E346CB
:1045C0009C469046159B01331593279A36990A44C9
:1045D0002792269A39990A4426921C9A38990A44B5
:1045E0001C92149A93427FF494AE6346DC469B4639
:1045F000029B013302931D9A3B990A441D922A9A09
:104600003C990A442A921A9A93427FF473AE2C9BE7
:10461000052B03DD619808B1084B98470020FFF790
:1046200068BA00BF3D4B01002C2002009820020018
:104630003C2002004D4B01006C20020061A40000F0
:10464000326912922A6913922269239202680192B6
:10465000426802925A6803929A6804925A690592D3
:104660009A690692D3F80CB0036A1E93436A1F93AB
:1046700003691593D0F814A0002E00F05081D6F8ED
:10468000089059F8048BCDF81082B8F1050F40F36B
:104690004A81AE4B984594BF4FEA88004FF0FF30F7
:1046A000AB4B984785904FEA88024946A94B9847FB
:1046B00073682093002D00F03881D5F8088058F8F1
:1046C000046B7E96052E40F33481A04B9E4294BF2E
:1046D000B0004FF0FF309E4B98477F90B2004146AC
:1046E0009C4B98476B682193002F00F02481BE6893
:1046F00056F8045B7895052D40F32181934B9D423C
:1047000094BFA8004FF0FF30914B98477990AA00D2
:104710003146904B98477B682293002C00F0118122
:10472000A66856F8045B7295052D40F31581874BFA
:104730009D4294BFA8004FF0FF30854B984773907F
:10474000AA003146834B984763683393BDF90C50F8
:10475000BDF91040BDF91470BDF918300393BDF9CF
:104760000400BDF908E00FFA8BF32F933C93849B70
:10477000042B40F0F3807E9B042B40F0F180729B71
:10478000042B40F0EF801E9B1F9A934200F3EC80B5
:10479000859B1093739A1D929A4240F0E780769B16
:1047A0001A461793829B9A4240F0E280DDF81892F5
:1047B000DDF81C82889B0E93809A0592819E749AE4
:1047C0001992759A18922F9A03FB02F3179A934243
:1047D00040F0D080789B3493052BCCBF799A79AA8E
:1047E0003499002940F3C880134602EB810201216D
:1047F000944653F8042B02FB01F16345F9D10F9164
:104800000F9B179A934240F0BA801D9B002B40F3F8
:104810001282CAF100033A937F9A1192002BD4BFFF
:10482000534600231A46149301239340013B2593DA
:104830005B102693179A3592189B199903FB01F385
:1048400002FB03F1369108FB09F30E9901FB03FC0F
:10485000CDF800C1CEF1000ECDF8DCE04342399333
:1048600008FB0EF31B1A01FB03F02C90179B1A4652
:104870001898034602FB03F33E9338940A4608FB5C
:1048800001F304FB03F13F913D95114605FB02F254
:1048900041920F9A944602FB06F20A92039A0892FA
:1048A00002FB03F3099307FB01FA00232B930C93FC
:1048B000159B1946DA17CDE928125246B2464646EC
:1048C000CB46B9469046199B002B40F3A581379BF8
:1048D0001A932C9B2E932B9B2D9300231B933A9B77
:1048E00023EAE3732A93189B002B40F38281399BC0
:1048F0000B932E9B32932D9B319300231C935B468D
:10490000D3469A460E9B002B40F35D812F9B3B9331
:10491000002330930D936346D4469A4630E100233A
:1049200084932093C6E685A8BDE600237E93219359
:10493000DAE67FA8D2E6002378932293EDE679A801
:10494000E5E600237293339300E700BFFEFFFF1FED
:1049500011A50000C158010073A8F1E6924B9847D9
:10496000914B9847904B98478F4B98478E4B984761
:104970008D4B98478C4B984701230F9340E78A4B08
:104980009847894B9847884B9847874B9847864B61
:104990009847854B9847844B984701324B44504485
:1049A00041445A4535D0002BF7DB9E42F5DD002C03
:1049B000F3DB6445F1DA0C9F002FE2DB109DAF4280
:1049C000DFDA0D9F002FDEDB0E9DBD42DBDD0D78B3
:1049D0000695119D002DD8DD039F002FD7DB059D87
:1049E000BD42D4DD002AD4DB9345D2DD079D002DE6
:1049F000D1DB0F9FAF42CEDD90F800E0139DAEEB10
:104A0000050E129D069F7F1B049D07FB0E55049506
:104A1000C3E7039D0135029B0A9A13440293019B4D
:104A2000099A13440193089B1C44059B9D420AD09C
:104A3000BBF1000FEEDD019902980B9B002203955C
:104A4000B1E700230493229B2BB1079A53F822303D
:104A5000049A1A440492049A2A9B9A40159B934202
:104A600068D0D117299B02FB03F3159D05FB01318B
:104A7000A2FB05230B44002A73F10001C0F234812C
:104A800012F1804243F1000310461946002A73F1E7
:104A90000004C0F25481C30F43EA4103149A002A70
:104AA0004EDB149A1F2A52DC269A02EBD371259A08
:104AB0001A40149803419142B8BF0133239A13441A
:104AC0001E9A9342B8BF13461F9A9342A8BF13463B
:104AD0000C9A002A42DB1D998A423FDA1B9A002A6F
:104AE0003EDB19998A423BDA1C9A002A3ADB189974
:104AF000914237DD079A002A36DB17998A4233DA6A
:104B0000169A02F8013B1692079B01330793249AE9
:104B10009A422BD0059B002B93DD219B079A1344CF
:104B20000293209B279A134401931A9C0023049319
:104B30001D467DE7B3F1004F93D16FF00043ADE721
:104B40001A4B1B4A4FF4B3711A481B4CA0471B4B1E
:104B5000174A40F267111748174CA047124B984765
:104B6000114B9847104B98470F4B98470D9B0133BB
:104B70000D93309A3B990A4430920E9A93421FD07B
:104B80003C9B002BF2DD309A134631990B4433994C
:104B9000CB1816932F9913468A18249207930D9BCE
:104BA000329A13442793B5E73D4B01002C200200B5
:104BB000982002003C2002004D4B01006C200200B6
:104BC0005346E2469C461C9B01331C93319A35990F
:104BD0000A443192329A41990A4432920B9A3D9991
:104BE0000A440B92189A93427FF48CAE5346DA46ED
:104BF0009B461B9B01331B932D9A3E990A442D9291
:104C00002E9A3F990A442E921A9A38990A441A9277
:104C1000199A93427FF467AE0C9B01330C932B9A45
:104C200036990A442B922C9A40990A442C921D9A48
:104C300093427FF448AE349B052B03DD799808B18D
:104C4000424B98470020FEF754BF029C002CFFF611
:104C5000CAAB029C25460A9CA542BFF6C4AB059C84
:104C6000002CFFF6C2AB2546069CA542BFF6BDABA5
:104C700091F900400B9F002F7FF7B9AB039D002DEA
:104C8000FFF6B7AB049FAF427FF7B3AB002AFFF646
:104C9000B2AB90457FF7AFABBAF1000FFFF6ADAB0B
:104CA000079F57457FF7A9AB90F900700C9D641BD7
:104CB000019D04FB0754019401326344704459443C
:104CC00042453FF49CAB002BF6DB4B45F4DA002E5B
:104CD000F2DB0D9CA642B8DBEEE76FF0004000214E
:104CE00080185941FFF7D7BB19484FF0FF318018A2
:104CF000594102460B46002871F1000403DBC30F43
:104D000043EA4103CAE66FF0004000218018594190
:104D1000F5E70F484FF0FF318018594102460B4626
:104D2000002871F1000404DBC30F43EA4103FFF7DD
:104D3000B5BB6FF00040002180185941F4E76FF0D7
:104D40000040002180185941A5E600BF61A4000081
:104D5000010000C070B406460446054D0FCD0FC4D7
:104D600095E80F0084E80F00304670BC704700BF24
:104D7000F420020000B583B0836B63B102AA002166
:104D800042F8041D14219847012814BF01980020FF
:104D900003B05DF804FB014B984700BF3D4B010099
:104DA0002DE9F04389B0D1F81080B8F1000F15D08B
:104DB0000746D1F814C0BCF1000F11D084680E680A
:104DC0007268920104EB020E3368022B0CDDF3686B
:104DD000B3F1FF3F06D004EB831306E02D4B984759
:104DE0002C4B9847002300E0002349684D68AD0133
:104DF00004EB0509A05C625D82420BD1B568AD0190
:104E00006219615D81421CD07B692349384698470D
:104E1000012013E0D7F81480204EB0478146605D32
:104E2000B0470390CDF808901D4B01931D4B0093A4
:104E300060231D4A1D493846C047012009B0BDE81E
:104E4000F083012824D09CF8004008AD0020002108
:104E500065E902010195CDF8009071463846144D80
:104E6000A8470028EAD105AB4246DDE90601114D0D
:104E7000A847059B5B42C8F8043008F10C03009377
:104E800008F108034A46214638460B4CA047D5E7AF
:104E90000020D3E73D4B0100B8220200C5A300006B
:104EA0009C220200AC220200482202008022020062
:104EB000A91C00003D1A0000651D00002DE9F04FFF
:104EC000A9B01C46329D339F349E012A00F0D58044
:104ED000032A00F0D780022A00F0D980884B05937E
:104EE0006FF400030493002C00F0D780D4F80890EE
:104EF00059F8048BCDF84080B8F1050F40F3CF800E
:104F0000804B984594BF4FEA88004FF0FF307E4BAE
:104F1000984711904FEA880249467C4B984764684D
:104F2000002D00F0BE80D5F8089059F8048BCDF81C
:104F30005880B8F1050F40F3B880724B984594BF84
:104F40004FEA88004FF0FF306F4B984717904FEAB9
:104F5000880249466D4B98476B680C93002F00F010
:104F6000A680D7F8088058F8045B1C95052D40F3FF
:104F7000A280644B9D4294BFA8004FF0FF30624B6B
:104F800098471D90AA004146604B98477B68039361
:104F9000002E00F09480B76857F8045B2295052D29
:104FA00040F38B80574B9D4294BFA8004FF0FF30D9
:104FB000554B98472390AA003946544B984775683B
:104FC000229B0F93169A0E92591E78D48B4276DD4F
:104FD0000F9B052BCCBF239823A80F9A002A70DDC6
:104FE00001231F4600233E469646994214BF50F8BF
:104FF0002320324602FB07F701339E45F5D10B977C
:105000000E9B023B60D40E9A9A425FDD0E9A052AEF
:105010005EDC28AA02EB830353F8443C0F9A052A6E
:105020005ADC28AA02EB810151F8142C0A920A9A40
:105030009A4256D10E9B013B55D40E9A9A4254DDAA
:105040000E9A052A53DC28AA02EB830353F8443C4A
:1050500006930B9B002B40F3B4800A9B9B000D939F
:105060000895069A920001920294039AD318079326
:1050700000230993264D274F95E0214B05930023EC
:10508000049330E7244B0593002304932BE74FF060
:105090007E530593214B049325E7109440E711A814
:1050A00038E7002316930C9358E717A84FE700231F
:1050B0001C9303936CE71DA864E723A87BE7184BB8
:1050C000984701230B939BE7154B9847144B984740
:1050D000179A52F82330A1E7239A52F821200A9216
:1050E000A5E70F4B98470E4B98470D4B9847179ADB
:1050F00052F823300693ACE700262FE0002132E07F
:10510000FFFF7F7FFEFFFF1F11A50000C1580100B8
:10511000E1340100D13201000000C040000080BF36
:105120003D4B0100009B43F8044B00930AF1040A35
:10513000019B9B44079B534527D0069B002BDBDD3F
:10514000D846029C002658F8041B54F8040BA847C4
:1051500001463046B84706464C45F4D1039B002B28
:10516000CCD0DAF800103046B8470446049E3146E9
:10517000244B984700B13446059E31462046224BC9
:1051800098470028CED03446CCE7099B01330993D9
:10519000089A0D990A440892029A01990A440292C7
:1051A0000B9A93420DD00A9B002BEEDDDDF80CA08C
:1051B000DDF830B0029B019A03EB0209089B0093D3
:1051C000BBE70F9B052B03DD239808B10F4B9847D6
:1051D0001C9B052B03DD1D9808B10C4B98470E9BBB
:1051E000052B03DD179808B1084B9847109B052B3A
:1051F00003DD119808B1054B9847002029B0BDE8A0
:10520000F08F00BF1D3801005938010061A4000073
:105210002DE9F04FE3B04A69AAB1064684680B68ED
:1052200058684FEA801804EB0807986804EB801B65
:10523000186802280CDDDB68B3F1FF3F05D004EBF2
:105240008313069306E09D4B98470023069301E0E5
:10525000002306934B685D68AB010893E31807933E
:105260000B699BB114F80800032800F07481092829
:105270001CD001280CD07569914B984714F8083060
:10528000024690493046A84701200CE08B4B9847D6
:105290001278079B0293069B0193CDF800B03B4622
:1052A0003046894CA04763B0BDE8F08FD7F8108036
:1052B000DBF81040079A12690A92D3F80090D3F8ED
:1052C00004A09A680892DB680993002F00F0B88068
:1052D000BE6856F8045B2C95052D40F3B3807B4BDC
:1052E0009D4294BFA8004FF0FF30794B98472D9016
:1052F000AA003146774B98477F68BBF1000F00F05A
:10530000A380DBF8086056F8045B2695052D40F372
:105310009F806E4B9D4294BFA8004FF0FF306C4BB6
:1053200098472790AA0031466A4B9847DBF804302B
:105330001493069B002B00F08D80069B9E6856F808
:10534000045B2095052D40F38880604B9D4294BFFF
:10535000A8004FF0FF305E4B98472190AA003146DD
:105360005C4B9847069B5B680693079B002B76D0A7
:10537000079B9E6856F8045B1A95052D75DD534B07
:105380009D4294BFA8004FF0FF30514B98471B90AF
:10539000AA0031464F4B9847079B5968269B1693A6
:1053A000012B60DD1A9B022B61D1089B099A934265
:1053B0005FDC1B9B15931C9B1393169B9A1E5AD460
:1053C000169B934259DD169B052B58DC62AB03EB11
:1053D000820252F8EC3C139A934254DB169B5A1EFD
:1053E00053D4169B934252DD169B052B51DC62ABC6
:1053F00003EB820252F8EC3C0793159B002B40F321
:105400009380CAF10003002BD4BFD4464FF0000CA8
:10541000012202FA0CF2013A0C9252101092139AE5
:10542000129201EB020A079A049205970022119248
:1054300023EAE3730B934A46D317CDE90E2366E0C4
:105440002C975AE72DA853E700232693149370E76F
:1054500027A867E72093069387E721A87EE71A939A
:10546000269B012B03DC154B98471BA890E7134B99
:105470009847124B9847114B9847104B9847279BDA
:1054800053F82230A7E70D4B98470C4B98470B4B2E
:105490009847279B53F822300793AEE70022C9E3D1
:1054A000B9F1004F40F0CF836FF000438CE30A4B1B
:1054B0000A4A4FF4B3710A480A4CA0473D4B010019
:1054C000C5A300007C200200BD4E0000FEFFFF1FB0
:1054D00011A50000C15801002C200200CC210200BF
:1054E0003C2002004D4B0100A44BA54A40F267113D
:1054F000A448A54CA047119B01331193129A9244E2
:10550000059A04990A440592159A93420CD0139B6C
:10551000002BF0DD129BAAEB03050698DDF850E0A6
:10552000049B059A991873E3209B052B03DD2198B2
:1055300008B1964B9847169B052B03DD279808B1B9
:10554000924B98472C9B052B03DD2D9808B18F4B70
:1055500098470020A7E63D69DBF810A0079A12697A
:105560000A921A681692D3F80490C9F100089A6852
:105570000492DB680593089BE05C03280DD00728A4
:1055800000F098817769824B9847089BE35C02465C
:1055900080493046B847012085E6002F00F0E380BF
:1055A000BE6856F8044B5C94052C40F3DF807A4BC0
:1055B0009C4294BFA0004FF0FF30784B98475D901D
:1055C000A2003146764B98477E68BBF1000F00F091
:1055D000CF80DBF8087057F8044B5694052C40F345
:1055E000CB806D4B9C4294BFA0004FF0FF306B4BC3
:1055F00098475790A2003946694B9847DBF804302A
:105600001793069B002B00F0CD80069B9F6857F8F0
:10561000044B5094052C40F3C8805F4B9C4294BFD0
:10562000A0004FF0FF305D4B98475190A2003946E3
:105630005B4B9847069B5B680893079B002B00F029
:10564000B680079B9F6857F8044B4A94052C40F39B
:10565000B480514B9C4294BFA0004FF0FF304F4BA1
:1056600098474B90A20039464D4B9847079B5C6882
:10567000569B1193012B40F39E804A9A002A40F3D7
:105680009E80049B05998B4200F39B80531E00F182
:105690009A809A4240F39780052ACCBF4B984BA83A
:1056A000012113910027394601279C46BE466145DA
:1056B00014BF50F821303B4603FB0EFE01318A42F5
:1056C000F5D118916346CDF84CE0119A911E7CD427
:1056D000119A8A427BDD119A052A7ADC62AA02EBD2
:1056E000810151F82C1C189A052A76DC62AA02EB7B
:1056F000830353F85C3C1493149B8B4272D1119B2F
:105700005A1E71D4119B934270DD119B052B6FDCE7
:1057100062AB03EB820252F82C3C0993139B002BE3
:1057200040F39B80B8F1000FD4BF4846002001230E
:105730008340013B0C935B101093149B159304EB77
:10574000030CDDF8249006960023129328EAE873F0
:105750000B93169A1646D717CDE90E67CDF81C9015
:10576000E14694466CE000265C962EE75DA827E7AC
:1057700000235693179344E757A83BE76C20020099
:10578000CC2102003C2002004D4B010061A400002E
:10579000C5A300007C200200FEFFFF1F11A5000032
:1057A000C15801005093089347E751A83EE74A9338
:1057B000569B012B03DC384B98474BA852E7364BDE
:1057C0009847354B9847344B9847334B9847324B63
:1057D0009847579A52F8211085E74B9A52F8233090
:1057E000149389E72C4B98472B4B98472A4B9847A3
:1057F000579B53F82230099390E7002277E2B2F1E9
:10580000004F40F07D826FF000433DE2234B244A7D
:105810004FF4B3712348244CA047244B204A40F254
:1058200067112048204CA047129B01331293159A10
:105830009144069A07990A440692139A93420CD00F
:10584000149B002BF0DD159BA9EB030E089CDDF8E3
:105850005C80069B079A991837E2189B052B03DD9D
:105860004B9808B1124B9847509B052B03DD51987C
:1058700008B10F4B9847119B052B03DD579808B1D2
:105880000B4B98475C9B052B03DD5D9808B1084BDB
:105890009847002007E500BF3D4B01002C20020087
:1058A000CC2102003C2002004D4B01006C20020084
:1058B00061A40000002F00F0E680BE6856F8044B9B
:1058C0004494052C40F3E280944B9C4294BFA0008A
:1058D0004FF0FF30924B98474590A2003146914BD4
:1058E00098477E68BBF1000F00F0D280DBF80870AB
:1058F00057F8044B3E94052C40F3CE80874B9C42D6
:1059000094BFA0004FF0FF30854B98473F90A20016
:105910003946844B9847DBF804301793069B002BDD
:1059200000F0BC80069B9F6857F8044B3894052C08
:1059300040F3B780794B9C4294BFA0004FF0FF30FA
:10594000774B98473990A2003946764B9847069B8B
:105950005B681893079B002B00F0A580079B9F684E
:1059600057F8044B3294052C40F3A0806B4B9C42BB
:1059700094BFA0004FF0FF30694B98473390A200CE
:105980003946684B9847079B5C68049B059A93428D
:1059900000F38E800A9B002B40F08C80329B159385
:1059A0003E9A11925A1E00F18780934240F3848000
:1059B000159B052BCCBF339833A8159900297DDDA5
:1059C00001230E9300230127BE468C46934214BF49
:1059D00050F82310394601FB0EFE01339C45F5D1EA
:1059E000CDF838E0119B991E6BD4119B8B426ADD78
:1059F000119B052B69DC62AB03EB810151F88C1C18
:105A0000159B052B65DC62AB03EB820252F8BC3CB4
:105A10001393139B8B4261D1119B5A1E60D4119B2F
:105A200093425FDD119B052B5EDC62AB03EB8202D0
:105A300052F88C3C07930E9B002B40F3A380B8F1E7
:105A4000000FD4BFCC464FF0000C012303FA0CF337
:105A5000013B09935B100A93139B5B001493109412
:105A6000079B194606960023129328EAE8730B93C6
:105A7000169A1646D717CDE90C671695CDF864A08F
:105A80008A46964669E0002644962BE745A824E717
:105A900000233E93179341E73FA838E738931893C4
:105AA00058E739A84FE7002432946EE733A866E739
:105AB0001D4B98471C4B98471B4B984701230E934F
:105AC00090E7194B9847184B98473F9B53F8211084
:105AD00096E7339B53F8223013939AE7124B98477B
