:1000000060000120E1020000DD020000DD020000CE
:10001000DD020000DD020000DD0200000000000043
:10002000000000000000000000000000DD020000F1
:10003000DD02000000000000DD020000DD02000023
:10004000DD020000DD020000DD020000DD02000034
:10005000DD020000DD020000DD020000DD02000024
:10006000DD020000DD020000DD020000210A0000C8
:10007000DD020000DD020000DD020000DD02000004
:10008000DD020000DD020000DD020000DD020000F4
:10009000DD020000DD020000DD020000DD020000E4
:1000A000DD020000DD020000DD020000DD020000D4
:1000B000DD020000DD020000DD020000DD020000C4
:1000C000DD020000DD020000DD020000DD020000B4
:1000D000DD020000DD020000DD020000DD020000A4
:1000E000DD020000DD020000000000000000000052
:1000F0000000000071090000DD020000DD020000C8
:10010000DD020000DD020000DD020000DD02000073
:10011000DD020000DD020000DD020000DD02000063
:10012000DD020000DD020000DD020000DD02000053
:10013000DD020000DD020000DD020000DD02000043
:10014000DD020000DD020000DD020000DD02000033
:10015000DD020000DD020000DD020000DD02000023
:10016000DD020000DD020000DD020000DD02000013
:10017000DD020000DD0200000000000000000000C1
:10018000DD020000DD020000DD020000DD020000F3
:1001900000000000DD020000DD020000DD020000C2
:1001A000DD020000DD020000DD020000DD020000D3
:1001B000DD020000DD020000DD020000DD020000C3
:1001C000DD020000DD020000DD020000DD020000B3
:1001D000DD020000DD020000DD020000DD020000A3
:1001E000DD020000DD020000DD020000DD02000093
:1001F000DD020000DD020000DD020000DD02000083
:10020000DD020000DD020000DD020000DD02000072
:10021000DD020000DD020000DD020000DD02000062
:10022000DD020000DD020000DD020000DD02000052
:10023000DD020000DD020000DD020000DD02000042
:10024000DD020000DD020000DD020000DD02000032
:10025000DD020000DD020000DD020000DD02000022
:10026000DD02000010B5054C237833B9044B13B1FF
:100270000448AFF300800123237010BD000000206C
:10028000000000004C0D00000C4B43B10C480D4920
:1002900010B5AFF300800C48036823B910BD0A48BD
:1002A000036833B97047094B002BF7D0BDE8104005
:1002B0001847064B002BF5D0184700BF0000000080
:1002C0004C0D0000040000204C0D00000000000058
:1002D00008B5014B984708BD0D040000FEE700007B
:1002E00008B51C4B1C4A9A4210D01C4B194A9A4222
:1002F0000CD2013B9B1A23F0030304331344164929
:1003000051F8040B42F8040B9A42F9D1144B154AE8
:100310009A420AD2013B9B1A23F00303043313448D
:10032000002142F8041B9342FBD10F4B0F4A22F0ED
:100330007F029A60D3F8882042F47002C3F88820C4
:10034000BFF34F8FBFF36F8F094B9847094B984707
:10035000FEE700BF000000204C0D00000000002060
:10036000600000200000002000ED00E00000000020
:10037000010C0000BD0B0000104B93F8C82002F0E8
:10038000FE0242F0010283F8C82093F8B42002F084
:10039000F00242F0030283F8B42093F8C92002F07F
:1003A000FE0242F0010283F8C92093F8B42002F063
:1003B0000F0242F0300283F8B42070470080004101
:1003C000064B4022C3F808214322C3F88C20044A7C
:1003D000136A43F001031362704700BF001C004022
:1003E0000008004008B5054B984700224FF08641B1
:1003F0000348044B9847044B984708BDC1030000CD
:1004000024000020B10600007903000008B5124B5B
:100410009847124B0222C3F89820C3F8882002F1B3
:100420008042C3F8A8204FF04042C3F8A82093F8B8
:10043000C12002F0FE0283F8C120094A536943F447
:1004400000735361074B9847024607490748084B1A
:100450009847084B984708BDD90700000080004125
:10046000000800401D0A0000002400403000002069
:10047000A1050000E503000010B5044B1C68044B07
:10048000984701462046034B984710BD1C000020AA
:10049000B5070000D107000070B50D4616460446AA
:1004A00060B1081C18BF012034220549054B98474C
:1004B0002368324629462046984770BD0020F3E75E
:1004C000480C00004D070000F8B5844607682FB1BE
:1004D0008D683C460026C2F1010E0BE00E4B98479A
:1004E000F8BD7344A0680344AB420AD22368264691
:1004F00053B11C4663689342F3D8A06803449B1A27
:10050000F2E7A74204D034462046044B9847F8BD92
:100510006046014B9847F8BD75070000A107000031
:100520002DE9F0474469076901370761037E13F03D
:10053000010F13D1037E13F0020F0FD154B3636880
:10054000FB1AA268934207D3064600F11408DFF8AD
:100550004890DFF848A012E0BDE8F087037E43F042
:1005600002030376BDE8F0877569E3682046984783
:1005700085B12C466B68FB1AAA6893420AD34046A1
:10058000C847237C012BEFD167603A46214640469D
:10059000D047E9E7BDE8F087A9070000C9040000DB
:1005A00038B50D46044678B1081C18BF01203B221F
:1005B0000649074B984729462046064B9847002096
:1005C0002061054B236038BD0020F0E75C0C000083
:1005D0004D070000B5090000210500002DE9F84392
:1005E0000F469046044628B331B3101C18BF0120B3
:1005F000F1221249124B98470834124D2046A84761
:100600000028FBD0013F0026DFF840900D4D17F881
:10061000011F2046C8472046A8470028FBD00136C6
:100620004645F4D3084D2046A8470028FBD0304665
:10063000BDE8F8830020DBE70020D9E7740C000058
:100640004D0700007B0B0000850B00006D0B0000C8
:100650002DE9F8430F4690460446E0B1E9B1101C7D
:1006600018BF01204FF486720D490E4B9847013F89
:10067000002608340C4DDFF834902046A8470028A7
:10068000FBD02046C84707F8010F01364645F4D392
:100690003046BDE8F8830020E4E70020E2E700BF31
:1006A000740C00004D0700008F0B0000730B00005E
:1006B00038B50D46044698B1081C18BF01203422F5
:1006C0000849094B9847294604F10800074B984709
:1006D000034618B9064A6260064A2260184638BDC9
:1006E0000020ECE7740C00004D0700002D0B00000B
:1006F00051060000DD05000010B5044653220649EE
:10070000003018BF0120054B984704F10800044B46
:100710009847002010BD00BF740C00004D0700007A
:10072000590B000038B50C46054648B1081C18BFE7
:10073000012069220349044B98472560002038BDF9
:100740000020F6E7740C00004D07000000B900BE61
:10075000704703684BB18B4209D01B681BB19942AB
:10076000FBD1012070470020704700207047012016
:100770007047000038B504460D46064B984780F098
:10078000010039220449C0B2044B984723682B600A
:10079000256038BD53070000900C00004D07000095
:1007A00003680B600160704703680BB11A68026050
:1007B00018467047C0EB0010430102330348A0FB0A
:1007C00003235B08642000FB03F07047ABAAAAAACE
:1007D0000139FDD8704700BF10B5094A13889BB294
:1007E0001380084B9847084B9847084B98470820B8
:1007F000074CA047074B984740F6F770A04710BD3D
:10080000004000416508000085080000590800000C
:10081000190800008908000010F0010F08D00B4AE9
:100820000B4B1A62194643F6FD724B681342FCD11A
:1008300010F0080F08D0074A054BDA62194643F654
:10084000FD724B681342FCD1704700BF06090100DE
:10085000001C0040050901000122014B5A7170473C
:1008600000080040064B42F28E029A8200229A75DE
:10087000DA75DA6902F47C52DA6101221A7470477F
:100880000014004070470000364A136A23F00F033B
:1008900043F004031362114643F6FD724B681342A2
:1008A000FCD1304A536813F0040FFBD12E4B0022C9
:1008B0001A772E4A9A621A4692F82C3013F0100FCB
:1008C000FAD10022284B83F820201A4692F82C30C7
:1008D00013F0040FFAD10222234B1A771A4692F82A
:1008E0002C3013F0020FFAD11F4B5A6A5A621A4683
:1008F00092F82C3013F0080FFAD180221A4B83F8AB
:1009000020201A4692F82C3013F0040FFAD1164B1F
:1009100093F8203013F0010F1DD0134A136903F42C
:100920001063B3F5106FF9D10E4A5368002BFCD158
:100930000C4A136A23F00F0343F0060313621146B7
:1009400043F6FD724B681342FCD1064A536813F01C
:10095000040FFBD17047044A136913F4807FFBD066
:10096000E2E700BF001C004000100040000001044E
:1009700000B583B00D4B9B78DBB20193019B13F064
:10098000020F06D00A4B1B681BB1084A50689847F3
:1009900009E0019B13F0010F05D0054B5B6813B113
:1009A000024A5068984703B05DF804FB000002411A
:1009B0004C00002038B50C46054630221449003062
:1009C00018BF0120134B9847EC600123238048F2A5
:1009D000030223691342FCD1EB681A6912F0010F7C
:1009E000FBD148F280021A8048F203011A690A42D8
:1009F000FCD1EA6820231362136913F0600FFBD166
:100A0000EB684FF480725A81034B1D60002038BDA3
:100A1000B00C00004D0700002000002000207047AF
:100A200010B5084B1C68E3689B8913F4807F07D0DE
:100A300023680BB120469847E3684FF480729A818F
:100A400010BD00BF2000002070B489B006466C467F
:100A50000D4D0FCD0FC495E80F0084E80F00009BEB
:100A6000B3420DD0314601AB012053F8042B8A422A
:100A700007D001300828F8D1002009B070BC7047B9
:100A80000020C0B2F9E700BFC80C000010B5044652
:100A9000214B9847042805D040F247221F490020E7
:100AA0001F4B9847E36913F0010F19D1E36913F065
:100AB000030FFBD1236813F0020F0BD0236823F040
:100AC00002032360E36913F0030FFBD1E36913F022
:100AD000020FFBD105232360E36913F0030FFBD161
:100AE000E36913F0010FFBD10E4B2360E36913F0B0
:100AF000030FFBD14FF440336360E36913F01F0F22
:100B0000FBD1094BA3604FF22B63A3810020A0739C
:100B100084F8300010BD00BF490A0000000D00003D
:100B20004D070000040010400200700038B50C466C
:100B30000546BB220549003018BF0120044B9847E9
:100B40002C602046034B984738BD00BF000D0000C5
:100B50004D0700008D0A00000268136843F002038D
:100B60001360D36913F0030FFBD1704703689962D8
:100B700070470368986AC0B270470368187E00F037
:100B8000010070470368187EC0F340007047036897
:100B9000187EC0F38000704710B5044C044920460D
:100BA000044B98472046044B984710BD2400002072
:100BB0005C00002025070000F906000008B5094B7D
:100BC0009847094B9847094E094D0A4C0C2231466B
:100BD0002868A0470222084BC3F89C206420074BDA
:100BE0009847F3E7D1020000990B00001C0D0000AC
:100BF0005C0000209904000000800041790400009E
:100C000070B50D4E0D4CA41BA4100025A54209D1B2
:100C10000B4E0C4C00F08AF8A41BA4100025A54232
:100C200005D170BD56F8253098470135EEE756F8E6
:100C3000253098470135F2E7380D0000380D0000E7
:100C4000380D00003C0D00002E2E2F68616C2F73B4
:100C500072632F68616C5F696F2E63002E2E2F68A0
:100C6000616C2F7372632F68616C5F74696D65725C
:100C70002E6300002E2E2F68616C2F7372632F6815
:100C8000616C5F75736172745F73796E632E63005C
:100C90002E2E2F68616C2F7574696C732F737263BD
:100CA0002F7574696C735F6C6973742E6300000038
:100CB0002E2E2F68706C2F7274632F68706C5F72A9
:100CC00074632E63000000000030004000340040D8
:100CD00000200141004001410000004300040043A6
:100CE00000080043000C004300000000000000006A
:100CF00000000000000000000000000000000000F4
:100D00002E2E2F68706C2F736572636F6D2F687055
:100D10006C5F736572636F6D2E630000546F67675D
:100D20006C65204C4544210A00000000F8B500BF66
:100D3000F8BC08BC9E46704789020000F8B500BFA9
:0C0D4000F8BC08BC9E467047650200002D
:00000001FF
